:020000040800F2
:1000000050230020450200084B4F0008A14800087B
:10001000494F0008C12500081D5A000800000000D3
:10002000000000000000000000000000AD0100081A
:100030001326000800000000F101000865530008C5
:100040005F0200085F0200085F0200085F0200080C
:100050005F0200085F0200085F0200085F020008FC
:100060005F0200085F0200085F020008C525000863
:100070005F0200085F020008D1250008DD250008A6
:100080005F0200085F020008452400085F020008C4
:100090005F0200085F0200085F0200085F020008BC
:1000A0005F020008F95300085F0200085F020008C1
:1000B0005F0200085F020008055400085F020008A4
:1000C0005F0200085F0200085F0200085F0200088C
:1000D0005F020008115A00085F0200085F02000872
:1000E0005F0200085F0200085F02000800F002F8EB
:1000F00000F04DF80AA090E8000C82448344AAF175
:100100000107DA4501D100F042F8AFF2090EBAE872
:100110000F0013F0010F18BFFB1A43F0010318473B
:10012000288C0000488C0000103A24BF78C878C1A1
:10013000FAD8520724BF30C830C144BF04680C60ED
:10014000704700000023002400250026103A28BF35
:1001500078C1FBD8520728BF30C148BF0B60704739
:10016000662908F0B381002070471FB500F0DAFF60
:1001700004000020002107F0DBF9401C6060002033
:10018000002107F0BFF9E0601FBD10B510BD01F000
:100190008FFA1146FFF7E9FF05F0C6FD01F0ECFC10
:1001A00003B4FFF7F2FF03BC01F010FD224B196806
:1001B0000868B0E8F00F80F30988BFF36F8F4FF045
:1001C000000080F311884EF00D0E70470000000013
:1001D00006480068006880F3088862B661B6BFF31D
:1001E0004F8FBFF36F8F00DF00BF00BF08ED00E04F
:1001F000EFF30980BFF36F8F0F4B1A6820E9F00F00
:10020000106008B54FF0500080F31188BFF34F8F96
:10021000BFF36F8F06F06EFC4FF0000080F3118883
:10022000BDE8084019680868B0E8F00F80F3098855
:10023000BFF36F8F704700BF58000020EFF30580B9
:10024000704700000948804709480047FEE7FEE77D
:10025000FEE7FEE7FEE7FEE7FEE7FEE7FEE7FEE776
:1002600004480549054A064B70470000F75300084B
:10027000ED000008501D002050230020501F0020DA
:10028000501F00200FB41CB5074B06AA7B446946DB
:100290000090059800F059FC0020694600F068FCC9
:1002A0001CBC5DF814FB0000E108000070B50446BA
:1002B00085690068C10601D5302600E02026C00708
:1002C00007D070BDD4E9012130469047206A401C18
:1002D00020626D1EF6D570BD70B504468569007844
:1002E000C00707D170BDD4E9012120209047206AC2
:1002F000401C20626D1EF6D570BD00002DE9F05F38
:10030000894604464FF0000ADFF824B1FB44C0F8E8
:1003100020A02046E168884700287DD0252806D007
:10032000D4E901219047206A401C2062F1E70025B2
:100330005F462046E16888472028064607DB312EC5
:1003400005D2B81910F8200C08B10543F1E7A80749
:1003500001D525F00405C4F81CA00027C4F818A096
:100360002A2E09D0304605F024FC38B304EB870868
:10037000303EC8F8186019E059F8041B204604EB19
:1003800087029161E1688847012F064618D1E0692C
:10039000002820DA25F020051DE0D8F8180000EB31
:1003A000800006EB40003038C8F818002046E168AD
:1003B0008847064605F0FDFB0028EED1012F0AD044
:1003C0002E2E08D12046E16888477F1C0646022F62
:1003D00045F02005C4DBA069002803DA404245F05F
:1003E0000105A061E80701D025F01005A6B1A6F12E
:1003F0004100192802D8203645F400654A463146A6
:10040000204625604D46FFF7ABFE60B1012807D0BE
:10041000ED1D25F0070000E007E000F1080978E78E
:1004200005F1040975E730467AE7206ABDE8F09FD8
:10043000668900000FB400B58DB010A90990009135
:100440000B904FF0FF300A9000200C900648784443
:100450000690064878446A4607900F9909A800F06C
:100460000FFE0DB05DF814FB4F0C0000670C000090
:100470002DE9FF5F4FF00008994614464646916902
:10048000D2E901A7DDF838B001988847054659EA56
:100490000B0005D009E0A1690198761C8847054644
:1004A000216A284688470028F5D1681C03D05FEAF6
:1004B000CA7005D015E04FF0FF3004B0BDE8F09FE2
:1004C0002068011D2160D0F800800AE05FEACA7050
:1004D00001D108F8015BA169761C01987F1E88474D
:1004E0000546002F1ADD681C18D0B9F1000F0DD099
:1004F000E81705EBD060421120F01F0059F82210D8
:100500002A1A012090400142E0D107E0BBF1000F20
:10051000DCD12846216A88470028D7D0E1690198B4
:100520008847BBF1000F07D1002E05DD5FEACA70D6
:1005300002D1002188F80010A068B84203DDBBF1A9
:10054000000F03D017B16FF00100B6E73046B4E7F3
:10055000032A40F2308010F0030C00F0158011F8EF
:10056000013BBCF1020F624498BF11F801CB00F8C7
:10057000013B38BF11F8013BA2F1040298BF00F81B
:1005800001CB38BF00F8013B11F0030300F02580D8
:10059000083AC0F0088051F8043B083A51F804CBFF
:1005A000A0E80810F5E7121D5CBF51F8043B40F8C5
:1005B000043BAFF30080D20724BF11F8013B11F8D0
:1005C00001CB48BF11F8012B24BF00F8013B00F814
:1005D00001CB48BF00F8012B704710B5203AC0F09E
:1005E0000B80B1E81850203AA0E81850B1E8185034
:1005F000A0E81850BFF4F5AF5FEA027C24BFB1E871
:100600001850A0E8185044BF18C918C0BDE81040E1
:100610005FEA827C24BF51F8043B40F8043B08BFEA
:100620007047D20728BF31F8023B48BF11F8012BB1
:1006300028BF20F8023B48BF00F8012B704702F0AA
:10064000FF0343EA032242EA024200F04BBD4FF0AF
:10065000000200B5134694469646203922BFA0E812
:100660000C50A0E80C50B1F12001BFF4F7AF09071E
:1006700028BFA0E80C5048BF0CC05DF804EB89000F
:1006800028BF40F8042B08BF704748BF20F8022B52
:1006900011F0804F18BF00F8012B70474FF0013C5C
:1006A00050F8042B51F8043B9A4221D1A2EB0C03E1
:1006B000934313EACC1317D150F8042B51F8043BA1
:1006C0009A4215D1A2EB0C03934313EACC130BD13E
:1006D00050F8042B51F8043B9A4209D1A2EB0C03C9
:1006E000934313EACC13DBD04FF00000704700BFF8
:1006F000D01A01BAB1FA81F101F0180122FA01F021
:10070000CB40C1F12001DBB2C0B2C01A2CFA01F318
:10071000D11A914311EAC311E6D17047704770476F
:10072000704770472DE9FF4F0C461E464FF0FF37CC
:100730008BB0D2E90001DDF860800A908A46C1F3EF
:100740000A5505B93D46002108464FF00000BAF1B0
:10075000000F00F4400005DA00EB80004FF4400188
:1007600001EA50004FEA9059B9F1010F00DDB94696
:100770000A9850EA4A000ED044F61050A5F2FF3510
:1007800045432F14B8F1000F1ED07542291E1EDDFF
:10079000C9F100021CE0B8F1010F4FF0000001D0D8
:1007A000302103E0F24305E02154401CB042FBDB62
:1007B00030460022002121540B99C1F80880C1E97C
:1007C00000200FB0BDE8F08FBD1B6D1CDEE74A4670
:1007D00000DA694206A800F0F5FE06AB93E80700D0
:1007E00003AB83E8070050460A9901F0F6F98DE85B
:1007F0000700A0F500501F3800900398002D0ADD77
:1008000042F21F014A460844002303A903906846A8
:1008100001F0A2FC09E0A0F500504A461F38002371
:1008200003A90390684601F0C1FC8DE807000004AD
:10083000000C03D04FF0FF30410800E01046B8F143
:10084000000F03D00022009215461EE0751E05D44D
:1008500000F070FC303262556D1EF9D5B3460122AE
:10086000084302D000227F1C04E02078302801D108
:1008700000227F1E002A099784D01DE0112D07DA7F
:1008800000F058FC303262556D1C50EA0102F5D17F
:10089000084302D00098C8B10EE00021681E05E0B0
:1008A000235C625C63542254401E491C8142F7DB86
:1008B000AB46A81B401E0990002004F80B000B98C3
:1008C000099AC0F80880C0E9002B7AE711264FF09A
:1008D000000857E72DE9F04F88460446D21D22F064
:1008E000070191B0D1E90001CDE90A0105F0BCF89A
:1008F00002460B98C00F01D02D2007E02068810729
:1009000001D52B2002E0202101EAC000032A099032
:1009100001D0072A05DB03464146204600F058FC7B
:100920000BE12078800601D5E06900E00620B8F1EF
:10093000650F814606D0B8F1660F18D0B8F1670F81
:1009400070D131E00020B9F1110F009001DB1123CB
:1009500001E009F101030AAA01A90CA8FFF7E2FED0
:10096000DDE90C70002609F10105834647E001200E
:100970004B4600904FF000470AAA01A90CA8FFF7C8
:10098000D1FEDDE90DB00C995D46002610B909F1E4
:1009900001000D18B9EB050003D4C0F1FF3609F1D1
:1009A0000105A5EB09002BE0B9F1010F01DA4FF0C9
:1009B00001090020B9F1110F0090484601DD112313
:1009C00000E003460AAA01A90CA8FFF7ABFEDDE987
:1009D0000C704D4600268346207800070AD4AB45AC
:1009E00000DA5D4601A8012D04DD411911F8011C52
:1009F000302907D04F4502DA17F1040F04DA01203D
:100A000082460FE06D1EEEE7002F02DCED1B3E4438
:100A100003E0781CA84200DD7D1CB81B00F1010A30
:100A20004FF000472078000703D4AA4501DB4FF0C0
:100A3000FF3A0021B7F1004F0DF143088DF8431044
:100A400024D002202B23002F01DA7F422D230A21FC
:100A5000021EA0F1010000DC5FB197FBF1FC97FBE7
:100A6000F1F201FB1C7C17460CF1300C08F801CDAB
:100A7000EEE7A8F1010003702188090501D54521A1
:100A800000E06521A0F1010800F8011C09980FA9F8
:100A9000A1EB0807FF1D00B10120411901EBEA702D
:100AA000A1693844081A401EA0612078C00602D40B
:100AB0002046FFF7FBFB099828B1D4E901219047B4
:100AC000206A401C20622078C00622D52046FFF70D
:100AD000EDFB1EE0002E04DBB34502DD01A8805DC6
:100AE00000E03020D4E901219047206A401C2062B8
:100AF000761CAAF101005FEA000A0AD100F012FB9D
:100B0000C0680168405CD4E901219047206A401C1C
:100B10002062281EA5F10105DCDC07E0D4E90121F3
:100B200018F8010B9047206A401C2062381EA7F17C
:100B30000107F3DC2046FFF7CFFB032011B041E6AD
:100B400001694A1C02610878704700B58FB0CDE991
:100B500001310021059105497944CDE90310114681
:100B60006846FFF7CBFB0FB000BD0000E5FFFFFFBD
:100B70000A6802F8010B0A60704700002DE9FF4F78
:100B800006468BB00878FF2806D0491C2D2805D0D2
:100B900000244FF0000908E000200CE00124F8E7F1
:100BA00009EB8903491C00EB43090878FF28F7D1BA
:100BB00014B1C9F100008146107800252C46AA46E0
:100BC00029462D2801D02B2804D1521C2D2813D0C2
:100BD000002082468B461078FF280FD04FF0000C83
:100BE0000A21521CA5FB017804FB018105FB0C11B5
:100BF000C5194BEB0104EEE70120EAE700210846A6
:100C00004FF00000BAF1000F02D000EB8000400866
:100C1000C0F38157012F01DD4FF0FF370E9955EAE0
:100C2000040009EB01080BD04FF0020918F5FA7F18
:100C300016DA4FEACA70002F706008DD012007E065
:100C40004FEACA70C6E900B00FB0BDE8F08F0020CF
:100C5000306000F06BFAC0F800901821084616E0EA
:100C6000B8F5FA7F18DD002F02DAF748784401E082
:100C7000F6487844D0E90010C6E9001040EACA708E
:100C8000706000F053FAC0F80090142108460FB0CD
:100C9000BDE8F04F07F017BC002108464FF00000F8
:100CA000B8F10001099002DAC7F1000200E03A460B
:100CB00001DAC8F1000106A800F084FC06AB93E855
:100CC000070003AB83E8070044F23E005BEA04013F
:100CD0000090584604D144F21E012C465D46009116
:100CE000210C0904014306D10099240444EA154467
:100CF0002D041039009104F07F41014306D1009981
:100D0000240244EA15642D020839009104F0704170
:100D1000014306D10099240144EA15742D01091FED
:100D2000009104F04041014306D10099A40044EA37
:100D30009574AD00891E009104F00041084304D170
:100D400000986D196441401E00904FF001033A462F
:100D50006846B8F1000FCDE9014503A902DD01F0B5
:100D60003AFA01E001F00DFABAF1000F04460D461F
:100D700001D084F00044002108464FF0000009999A
:100D800040F2FF77484010F00C0F07D124F00040EC
:100D9000284303D0C4F30A50B84212D100F0C6F978
:100DA000C0F80090C4F30A50B8420AD1A848784469
:100DB000D0E90010C6E9001004F00041084370605B
:100DC00042E7C6E900543FE72DE9FF4F1F464FF0C9
:100DD000000A4FF0FF38454691B0D7E90146CDF8FB
:100DE0003CA000F09FF9C0680168405C1090B969B0
:100DF00012986D1C8847396A814688470028F6D1C9
:100E0000B9F1FF3F0AD0002E24F4D06411DDB9F10E
:100E10002B0F08D0B9F12D0F0BD102E0404615B0D1
:100E200013E744F48064B96912986D1C8847761EF4
:100E30008146600504A901D52D2000E02B20002E5D
:100E400001F1010B0DF130088DF810003FDDB9F113
:100E5000690F08D0B9F1490F05D0B9F16E0F02D072
:100E6000B9F14E0F1CD13B4601A8009580E8500215
:100E7000DDE912126FF0020007F08EFBC11CCED12B
:100E80000EE0B96912986D1C884781461398761E4A
:100E900044F4007405600F98401C002E0F9016DD7E
:100EA000B9F1300FEDD0B9F1780F02D0B9F1580F88
:100EB0000DD10F9801280AD13B46CDE90054DDE958
:100EC0001212001F029607F065FBC11CA7D11099F2
:100ED00089453ED144F0800406E01399681CAAF1CC
:100EE000010A44F400740860B9696D1C1298761EFA
:100EF000884730288146F0D02BE01099894505D1EC
:100F0000200603D4761E44F0800418E0484604F01E
:100F100050FE08B3761E0DF123018B4544F4007496
:100F200008D2A9F130000BF8010B200607D5AAF171
:100F3000010003E0200602D40AF101008246A00568
:100F400002D51399681C0860B96912986D1C88470E
:100F50008146002ED1DC53E0002E51DDB9F1650F42
:100F600002D0B9F1450F4BD1A00549D5B9696D1C27
:100F70001298761E24F440748847002E81460CDDBA
:100F80002B2804D0B9F12D0F07D144F48074B9692E
:100F900012986D1C8847761E8146E00501D52D21EB
:100FA00000E02B2108F8011BCDF8008021E0761E1F
:100FB0000DF13901884544F400740CD2A9F13000D8
:100FC00010F0FF0088F8000002D10099884509D987
:100FD00008F1010806E0E00501D51E4801E042F2F3
:100FE0000F708246B96912986D1C88478146139824
:100FF0000560002E04DD484604F0DBFD0028D6D154
:10100000F96912988847FF2053468BF8000088F84A
:10101000000000200A900B9004AA0CA90AA8FFF770
:10102000ADFDA00502D46FF00100F8E614F0240F26
:1010300012D0E0071CD13868DDE90A12031D3B60BD
:101040000068C0E9001213E000810000F280000097
:10105000B67F0000F1D8FFFF0AA9684604F038FD0A
:10106000E00705D13868009A011D39600068026008
:101070002846D4E602681144137801601846704788
:10108000D1600549794451610449794411620021D4
:101090001161114600F0DCB8EDFFFFFF31010000E7
:1010A000426842B1016811F8013B23B1521EC0E908
:1010B0000012184670470121C160881E70474268BF
:1010C0005AB1C368016843B983688B4205D0491E91
:1010D000521CC0E90012002070474FF0FF307047EB
:1010E0004FF000020429C0F0128010F0030C3FF40E
:1010F000B0AACCF1040CBCF1020F18BF00F8012B10
:10110000A8BF20F8022BA1EB0C01FFF7A2BA5FEAFF
:10111000C17C24BF00F8012B00F8012B48BF00F868
:10112000012B704700487047101D00200048704791
:10113000F01C002030B5B0F10A024FEA900E71F1B8
:1011400000034EEA817EB0EB0E0061EB91014FEAA5
:10115000101E4EEA017E10EB0E0041EB11114FEA1A
:10116000102E4EEA016E10EB0E0041EB11214FEAFA
:10117000104E4EEA014E10EB0E0041EB11414018AB
:1011800041F100014FEAD00040EA41704FEAD1013D
:1011900010EB80054FEA810444EA907444EB0104AB
:1011A0006D1944EB0404521BA3414FF0000348BFE8
:1011B0000A3200D530BD401C41F1000130BD10B5F0
:1011C000044600F09BFA0068005D00F0010010BDCD
:1011D0002DE9F0411F46044603260168072A01F461
:1011E000006004DB08B116A505E016A503E008B110
:1011F00015A500E015A521F010002060A069C01E13
:10120000A0610FB1401EA0612046FFF74FF84FB11B
:10121000D4E9012138469047206A401C2062C01C56
:10122000206206E0206AFAE7D4E9012115F8010BF3
:101230009047761EF8D22046FFF74EF8BDE8F081C1
:101240004E414E006E616E00494E4600696E66006A
:101250002DE9F34F4FF0000A0C4656468DB00120A1
:101260000C9001F10C000B9062690B9801219047E2
:10127000051E2DD0252D2CD0216A8847C0B162696A
:101280000B9801219047216A88470028F7D16269AD
:10129000411E0B98904700E0761CA1690D98884785
:1012A000216A88470028F7D1E1690D988847DBE774
:1012B000A1690D988847A842074601D1761CD3E75B
:1012C000E1690D9888477F1C02D1BAF1000F6FD0F9
:1012D0006BE162690B9800273D46394690472A2802
:1012E00004D162690B98012190470125DFF8D08273
:1012F00062690B9801219047A0F130010A290AD2B6
:101300004745E5DC07EB870100EB4107303FDFD4C1
:1013100045F01005ECE7E90601D46FF000476C28B2
:101320000AD04C2814D0682815D06A280DD074280B
:101330001CD07A281AD01DE062690B9801219047D1
:101340006C2802D045F0040514E045F002050DE0DC
:1013500045F020050AE062690B9801219047682852
:1013600002D045F0080505E045F4006562690B9878
:1013700001219047C4E9015765283DD019DC582860
:101380007AD00CDC452837D004DC252826D041282B
:101390009ED131E046282FD0472899D12CE05B28F8
:1013A00077D0612828D063287CD0642823D15AE0E4
:1013B000F6E06F2848D008DC66281DD067281BD0CF
:1013C000692821D06E2816D127E0702845D07328CF
:1013D00068D0752847D078280DD14DE0A1690D98C7
:1013E0008847252805463FF469AFE1690D9888478D
:1013F0006D1C3FF46AAFD8E00D9923466A466FF042
:10140000010007F0C5F8C5E045F0400023464FF065
:1014100000026060A80736D43EE0E8077FF447AFDB
:101420002068011D21600068290501D506701BE7B1
:10143000290701D5068017E7A90703D5F117C0E9E9
:10144000006111E706600FE745F0400023464FF0CA
:1014500008026060A80716D41EE040F60E0125EAD7
:101460000100606016E045F0400023464FF00A029C
:101470006060A80707D40FE045F040006060A8074F
:1014800008D5234610220D996FF00100AFF30080BC
:1014900080E007E0102223460D996FF00100AFF3C2
:1014A000008077E04FF0000963284F46C8464B465E
:1014B000CB4602D05B2806D038E0E80601D40120F4
:1014C000A060012732E06269D4F80CB00B980121CA
:1014D00090475E2807D14FF0010949466269D4F868
:1014E0000CB00B989047216939B900210A4603AB2B
:1014F00043F82120491C0829FADBD8B3216949B3F4
:1015000008F1010862690B98012190475D28F4D128
:10151000B9F1000F09D0002003A951F82020D243CF
:1015200041F82020401C0828F7DB03AB2069002885
:1015300020794FEA40701ED05B462246CDF80080ED
:10154000CDE901970D9900286FF0010020DAAFF383
:1015500000801FE0C11703AA00EBD1614B1121F0FD
:101560001F0102EB8302411A1368012088400343E4
:101570001360C7E719E00D99224600286FF00100BB
:10158000009702DAAFF3008004E0FEF771FF01E09C
:10159000AFF3008000280ADA401C06D10C9820B175
:1015A0004FF0FF300FB0BDE8F08F5046FAE7E90783
:1015B00001D10AF1010A064400200C9054E6000013
:1015C000CCCCCC0C2DE9F047814616468AB0354884
:1015D00078440DC88DE80D0032487844801C03AC77
:1015E0000DC884E80D0041F69B300844372190FB7C
:1015F000F1F290FBF1F5A5F1800501FB12041B3C13
:1016000002D56442012000E00020DFF898A0804667
:101610000027FA44AAF1BE0A0EE0E0070AD03246DB
:10162000684607EB470101230AEB810100F0BEFD8C
:101630008DE8070064107F1C002CEED1194F7F4409
:10164000AE3F19E0E80715D007EB04100DF1180ABA
:1016500090E80E008AE80E00C068F04201D19819A7
:1016600008903246012306A903A800F09FFD03ABB2
:1016700083E807006D10641C002DE3D14FF00103D7
:1016800032466946B8F1000F03A802D000F064FDAD
:1016900001E000F08BFDC9E90001C9F808200AB09B
:1016A000BDE8F0873077000000487047F01C00204C
:1016B0007546FFF7F9FFAE4605006946534620F030
:1016C0000700854618B020B5FEF7CAFDBDE82040EA
:1016D0004FF000064FF000074FF000084FF0000BEE
:1016E00021F00701AC46ACE8C009ACE8C009ACE8A1
:1016F000C009ACE8C0098D467047000010B5FFF77F
:1017000011FD001D10BD00BF295E000010B5FFF7E0
:101710000DFD006810BD10B50446FFF707FD04601D
:1017200010BD00002DE9FF4F1F464FF03C0987B068
:101730004FF00042DDE9141001F10108DDF858A076
:1017400002EA405003900020059083460546044677
:101750000490B969461E08988847AAF1010A0290C8
:10176000BAF1000F3BDD02982E2815D0102100F0B1
:101770001FFA00282EDB4FF0010B0599014317D00B
:10178000B9F1000F0BDB4A46C11700F0FEF9054323
:101790000C43A9F1040905E0012004900BE008B115
:1017A00045F0010501200590049820B9361D02E09E
:1017B000049800B1361FB969089808F101088847F4
:1017C000BBF1000FAAF1010A0290C9D00999C1F832
:1017D0000080C5E70298702808D0502806D0F96923
:1017E00008988847BBF1000F14D04FE0002002900A
:1017F0000120BBF1000F049009D0B969089808F1E5
:1018000001088847AAF10109B9F1000F07DCF9695D
:10181000089888476FF001000BB0BDE8F08F2B28C7
:1018200004D02D280CD14FF0FF300490B9690898EE
:1018300008F101088847A9F10109B9F1000FE6DDB7
:10184000411CE4D00A2100F0B3F90028DFDB029943
:1018500008F1010801EB810100EB41000290B96938
:10186000089888470A2100F0A3F9099AA9F101090B
:10187000B9F1000FC2F8008001DD0028E7DAF9694C
:10188000089888470499029800FB016655EA04000D
:1018900004D004F04041090002D006E0039898E02B
:1018A000A40044EA9574AD00B61E04F0004108009F
:1018B00002D16D196441761E159810F0240F03D0E3
:1018C0004FF00B095C4803E04FF028096FF07D00F2
:1018D0008246564507DAAAEB06018944B9F1410F61
:1018E00001DD4FF0410901200021A9F1010200F0C2
:1018F0004CF9024628400B462140084301D0012103
:1019000000E00021501E029143F1FF3128402140A8
:10191000084301D0012000E000200299834651EAEB
:101920000B014FD0002108464FF00000039900F44E
:10193000400039B100EB80004FF4400100EBD07063
:1019400001EA60008015012802DD4FF0FF3000E061
:1019500013D0401C36D0029860B3BBF1000F0CD1FD
:101960004A460120002100F010F928402140084398
:1019700001D0012000E00020E0B101204A46002112
:1019800000F003F9034640190A4661412D1A8C41C3
:1019900011D3B9F1400F09DD159810F0240F02D0D2
:1019A000AAF1340603E0AAF1170600E0761C002530
:1019B0004FF0004406E05B1E42F1FF3220EA0305CF
:1019C00021EA0204CAF10100B04206DA1B49039879
:1019D00008430190002000900EE0039AC4F3D32145
:1019E000E80A0A43164940EA44500A433146CDE921
:1019F0000002684604F0D2F8159810F0240F0BD0BE
:101A00001598C00715D13868DDE90012031D3B6049
:101A10000068C0E900120CE002A8694604F058F81A
:101A20001598C00705D13868029A011D3960006811
:101A300002604046F0E6000002FCFFFF0000F07F7D
:101A40000000F03F2DE9FF4F92461D4685B04FF054
:101A50000041DDE9124BDDE914727F1E01EA4B50B3
:101A6000414940F0FF4940EA0108002122F02000EE
:101A70004928049102D04E2828D04CE03BA00126F2
:101A800007C88DE80700A9690698641C88477F1E6F
:101A9000014606D41DF8060018B121F0200181424C
:101AA0000BD0E96906988847032E34D0082E32D02F
:101AB0006FF0010009B0BDE8F08F761C032E01D055
:101AC000082EE0D1601CCAF80000DCE7A96906987E
:101AD000641C88477F1E2AD420F02000412826D18C
:101AE000A9690698641C88477F1E20D420F0200036
:101AF0004E281CD1A9690698641C88477F1E48F4AB
:101B0000002849F48009CAF8004001D4282806D0EA
:101B1000E969069888475FEACB7012D022E0A9698C
:101B20000698641C88477F1E01D4002803DAE969FF
:101B300006988847BCE72928F1D1641CCAF8004000
:101B4000E9E71BF0240F07D028680499031D2B60D8
:101B50000068C0E9001805E02868021D2A600068D6
:101B6000C0F800902046A5E70000F07F494E4649A6
:101B70004E4954590000000010B50446AFF30080F0
:101B80002046BDE81040FEF70BBBB2F120030AD59A
:101B9000C2F1200301FA02F120FA03F300FA02F085
:101BA00041EA0301704700FA03F14FF0000070476B
:101BB0003A2800D2303820F02002412A01D3A2F185
:101BC0003700884201D34FF0FF3070470149182099
:101BD000ABBEFEE72600020070475FEA400C08BF7C
:101BE00091F0000F4FEA8C234FEAC12243EA515192
:101BF0004FEA1C5018BF00F5F0404FEA300018BF04
:101C000041F000415FEA6C5C00F02980BCF1FF3FCD
:101C100008BF40F080407047130C06BF12044FF01D
:101C2000100C4FF0000C130E04BF12020CF1080C44
:101C3000130F04BF12010CF1040C930F04BF9200A8
:101C40000CF1020CD30F04BF52000CF1010C114631
:101C50004FF00002A0F11F00A0EB0C00704711F044
:101C6000004F08BF704731F000413FF4D5AF0B0C77
:101C700006BF09044FF0100C4FF0000C0B0E04BF10
:101C800009020CF1080C0B0F04BF09010CF1040C44
:101C90008B0F04BF89000CF1020CCB0F04BF49006D
:101CA0000CF1010CCCF12003A0EB0C0022FA03F3A1
:101CB00002FA0CF241EA030100F10100704720F042
:101CC0007F4C80EA030023F07F47ACEB070303F56A
:101CD0007C5300F0004003F1FF032DE980494FEAF7
:101CE000154B09B44FEA144325EA0B4E24EA034886
:101CF0000FF2042606EB132749083E785FEA32020A
:101D000003FB0667C7F5000707FB06F64FEA5437E3
:101D10004FEAD64606F1020607FB066CCCF1005CE2
:101D20004FEA1C472CEA074C07FB06F40CFB06F5B0
:101D300004EB15464FEA961634BF00204FF00040E2
:101D40004FEAD13706FB07FC4FEA1C4C0CFB0BF7A4
:101D5000D21B03FB0CF761EB07010CFB0EF7B0EB9A
:101D6000074072EB17420CFB08F734BFA2EB0742A7
:101D7000B2EB074261EB17414FEA0C444FEA91077F
:101D800006FB07FC4FEA1C4C0CFB0BF7B0EBC74003
:101D900072EB573203FB0CF734BFA2EBC742B2EB36
:101DA000C74261EB57310CFB0EF7B0EBC70072EB8B
:101DB00057720CFB08F734BFA2EBC702B2EBC702A5
:101DC00061EB5771039F4FEA816141EA921104EB85
:101DD000CC044FEAD1374FEA826206FB07FC42EAA5
:101DE00090124FEA80604FEA1C4C0CFB0BF7D21BA1
:101DF00003FB0CF761EB07010CFB0EF7B0EB0740A0
:101E000072EB17420CFB08F734BFA2EB0742B2EBB0
:101E1000074261EB17414FEA8C554FEA910704EBFB
:101E20009C2406FB07FC4FEA1C4C0CFB0BF7B0EBA9
:101E3000C74072EB573203FB0CF734BFA2EBC7422B
:101E4000B2EBC74261EB57310CFB0EF7B0EBC700AA
:101E500072EB57720CFB08F734BFA2EBC702B2EB70
:101E6000C70261EB577115EB4C254FEA816141EADE
:101E700092114FEA82624FEAD13742EA901206FB92
:101E800007FC44F100044FEA80604FEA1C4C0CFB55
:101E90000BF7D21B03FB0CF761EB07010CFB0EF7F2
:101EA000B0EB074072EB17420CFB08F734BFA2EB14
:101EB0000742B2EB074261EB174115EB1C154FEAE5
:101EC000813141EA92414FEA823242EA90424FEA3E
:101ED00080304FEA0C7644F1000448EA03434EEAAE
:101EE0000B484FF0000EB2EB080C71EB030724BF58
:101EF000624639464EEB0E0E4FF0000B0018524171
:101F000049414BEB0B0BB2EB080C71EB03077BF178
:101F1000000B24BF624639464EEB0E0E4FF0000B0D
:101F20000018524149414BEB0B0BB2EB080C71EB23
:101F300003077BF1000B24BF624639464EEB0E0EC1
:101F400051EA020718BF46F0010616EB0E7655F16E
:101F5000000254F1000103D5BDE88901BDE8008805
:101F6000BDE88901BDE80048B619524141EB0101C5
:101F7000A3F10103704780807F7E7D7C7B7A797836
:101F8000777676757473727171706F6E6E6D6C6C3E
:101F90006B6A6A69686867666665646463636261E0
:101FA0006160605F5F5E5E5D5D5C5C5B5B5A5A5961
:101FB00059585857575656555555545453535252CD
:101FC0005251515050504F4F4F4E4E4D4D4D4C4C25
:101FD0004C4B4B4B4A4A4A4949494848484747476E
:101FE00047464646454545444444444343434342AB
:101FF000424242414141000046EA0646A3F5705381
:102000004FEA164646EA42564FEAD22242EA415287
:1020100010B54FEAD121A3F1010300F02FF820F011
:10202000004000F1020C00F0004701EB00501146A7
:10203000BCF5006F40EA070000D210BDBAF1000FF6
:102040000AD01CB503B44FF004004FF004014FF068
:1020500000000FBCBDE810404FF00001BBF1010FC4
:10206000B9BF04484FF0FF310348002140EA0700A0
:1020700010BD00BFFFFFEF7F0000F07F002B9C46EC
:1020800030D477002BD01CB54FEA370703B44FF09C
:1020900010004FF01001BAF1000F06D0BCF1000F94
:1020A000DCBF40F0080040F008014FF000000FBC1A
:1020B000BDE810400BF1010BBBF1010F08BF5FEA57
:1020C000170722BF12F1010211F101014FF0004187
:1020D00043F1000300F0004043EA00007047F9D3E9
:1020E0005708D0E746EA064613F1400F4FEA164676
:1020F0001FDD13F1200FDFBF16430A4600212033F6
:102100005B42BED0C3F1200746EA064602FA07F753
:102110004FEA164646EA0706C3F1200722FA03F201
:1021200001FA07F721FA03F14FF0000342EA070230
:10213000A7E746EA020646EA06464FEA164646EA98
:102140000106BCBF46EA0646360C4FF000034FF0CE
:1021500000024FF0000194E72DE9804C9A46934627
:1021600070B491E8380007C831EA400C48BF34EA3F
:10217000430C03D5FFF7A3FDFFF780FFF0BCBDE8DC
:10218000008C2DE9804C9A46934670B491E8380053
:1021900007C831EA400C48BF34EA430C03D5FFF7C7
:1021A0008EFDFFF729FFF0BCBDE8008C2DE9804CC7
:1021B0009A46934670B491E8380007C810F0804FF3
:1021C00008BF13F0804F03D100F01AF8FFF756FF55
:1021D000F0BCBDE8008C2DE9804C9A46934670B463
:1021E00091E8380007C810F0804F08BF13F0804F07
:1021F00003D100F005F8FFF7FFFEF0BCBDE8008C4E
:1022000020F07F4780EA030023F07F4C07EB0C03AC
:10221000A3F57C5300F00040A3F1FE0392F0000F01
:1022200000F0B38095F0000F00F077802DE90149B0
:102230004FEA11404FEA144621EA004800FB06FC31
:1022400024EA064708FB06F607FB08F800FB07F739
:1022500018EB06484CEB164C4FEA124B18EB0748AC
:102260004FEA15464CEB174022EA0B4E0BFB06FCDF
:1022700025EA06470EFB06F607FB0EFE0BFB07F7EB
:102280001EEB064E4CEB164C4FF000061EEB074EB5
:102290004CEB174B18EB0B0840F1000018EB0E0B42
:1022A00058EB000840F100008F1A4FF000013CBFCE
:1022B000C943661B14BFB5EB040C00213CBFC943E6
:1022C000F61B4FEA17444EEA8E0E27EA04454FEA02
:1022D0001C4704FB07622CEA074C05FB07F70CFBC5
:1022E00005F604FB0CFC16EB074642EB174216EB17
:1022F0000C4642EB1C421BEB060658EB0202414126
:1023000046EA9E0601D5BDE80189B619524141EB66
:102310000101A3F10103BDE801894FEA14454FEA29
:10232000114724EA054621EA074C05FB07F406FBA2
:1023300007F70CFB06F105FB0CFC11EB074144EB26
:1023400017444FEA124711EB0C4144EB1C4422EABC
:10235000074C05FB07F206FB07F70CFB06F605FB2F
:102360000CFC16EB074642EB174216EB0C4642EB11
:102370001C456A1854F1000148BF7047B619524114
:1023800041EB0101A3F10103704795F0000F37D035
:102390004FEA11424FEA144721EA024624EA074C69
:1023A00002FB07F106FB07F70CFB06F402FB0CFC33
:1023B00014EB074441EB17414FEA154714EB0C446B
:1023C00041EB1C4125EA074C02FB07F506FB07F72A
:1023D0000CFB06F602FB0CFC16EB074645EB17451B
:1023E00016EB0C4645EB1C42121951F1000148BF97
:1023F0007047B619524141EB0101A3F10103704747
:102400004FEA14454FEA114724EA054621EA074CF2
:1024100005FB07F106FB07F70CFB06F24FF0000681
:1024200005FB0CFC12EB074241EB174112EB0C428F
:1024300051EB1C4148BF7047921841EB0101A3F1D9
:1024400001037047014800F0A0B9000044010020DA
:1024500070B5044600688168C943C90717D181680F
:1024600021F00101816000F04DFE05460AE000BF49
:1024700000F048FE401B022804D920688068C04351
:10248000C00706D020688068C043C007F0D0002095
:1024900070BDA06A40F01000A062E06A40F0010048
:1024A000E062012070BD10B50146406A826A12F0F8
:1024B000500F05D0006A026BBDE810400846104777
:1024C000816A41F40071816201688968C1F3424107
:1024D00007290CD1017B51B9816A21F48071816295
:1024E000816AC90403D4816A41F00101816200F06C
:1024F00049F910BD10B5406A816A41F0400181621E
:10250000C16A41F00401C16200F03EF910BD10B58E
:10251000406A00F038F910BDF8B500260446009670
:1025200000688168C943C9072DD0816841F0010165
:102530008160164816490068B0FBF1F000E0401ECB
:1025400000900028FBD100F0DDFD054616E000BF3D
:1025500000F0D8FD401B022810D920688068C043D5
:10256000C0070BD0A06A40F01000A062E06A40F003
:102570000100E06284F824600120F8BD20688068D2
:10258000C043C007E4D10020F8BD00005400002083
:1025900040420F00084D094C28780028FCD007481D
:1025A00002F024FE606903F033FBA06005F01AFE20
:1025B00040B202F09BFEEFE7DA0000201800002096
:1025C000FEE70000014800F085BB00007401002018
:1025D000014800F07FBB000070030020014800F0BC
:1025E00079BB00002C03002030B590F84050012446
:1025F000AC40C56B6C60046863604368102B036873
:1026000003D099600068C26030BD9A600068C16004
:1026100030BD704772B6FEE770B51148008805F00E
:10262000FDFD104C217821B1002501290DD0257028
:1026300070BD0D49884202DD0C498842F8DB00F08C
:1026400061FD60600120207007E000F05BFD6168C3
:10265000401AB0F57A7F00D32570002070BD0000CD
:10266000D8000020DC0000200000704200E0764529
:1026700003480168486A002200B24A6270470000BD
:102680009C02002070470000F8B50024009490F8E8
:1026900024202546012A12D0012280F824204A68ED
:1026A0001F23072A0DD20668776B521E02EB8202A7
:1026B00093409F430B6893401F43776319E00220C8
:1026C000F8BD06680D2A0AD2376BD21F02EB8202D0
:1026D00093409F430B6893401F43376309E0F76AB9
:1026E0000D3A02EB820293409F430B6893401F43D5
:1026F000F7620A68072306680A2A0AD3F7680A3AC3
:1027000002EB420293409F438B6893401F43F76064
:1027100008E0376902EB420293409F438B68934085
:102720001F4337610A68102A01D0112A20D1124BA9
:1027300002689A4217D193681B0219D4936843F434
:10274000000393600968102912D10C490C4A0968EA
:10275000B1FBF2F101EB8101490000E0491E00915B
:102760000029FBD104E0816A41F02001816201244B
:1027700080F824502046F8BD002401405400002079
:1027800040420F0070477047704770B504460068BC
:1027900006684568A90625D5B10723D5A16AC906EB
:1027A00003D4A16A41F40071A1628168C1F342417E
:1027B000072910D1217B71B9416821F020014160C6
:1027C000A06A20F48070A062A06AC00403D4A06A4A
:1027D00040F00100A0622046FFF7D4FF21686FF0AF
:1027E0001200086028062ED570072CD5A06AC006F6
:1027F00003D4A06A40F40050A06220688168C1F34D
:102800000231072909D04168490515D48168C1F30F
:102810004241072910D1217B71B9416821F0800123
:102820004160A06A20F48050A062A06AC00503D471
:10283000A06A40F00100A0622046FFF723FF216854
:102840006FF00C00086068060CD5F0070AD0A06A8B
:1028500040F48030A062204600F094F821686FF0C8
:102860000100086070BD00002DE9F0414FF0000745
:1028700004003D467ED0A06A002628B9E66284F8AE
:102880002460204600F080F82046FFF7E1FDA16AB1
:10289000C90600D420B1A06A40F01000A06269E02F
:1028A000A16A21F4885141F00201A1626268E169E4
:1028B000237B0A4347EA43010A43A1684FF4807728
:1028C000B94209D0012907D05FF0000194F814C083
:1028D000BCF1010F02D00AE03946F7E7F3B1A36A71
:1028E00043F02003A362E36A43F00103E362236839
:1028F000D3F804C02CF4694C4CEA010CC3F804C0B2
:1029000021688B68DFF870C003EA0C0313438B6007
:10291000A168B9420BD0012909D00CE0DFF85CC0F6
:10292000A3690CEB43330B4343F40061DFE7218AD7
:102930000D05A5F580152168CB6A23F470032B43A0
:10294000CB62216889680E4B1940914208D1E6623A
:10295000A16A21F0020141F00101A162BDE8F0810C
:10296000A06A20F0020040F01000A062E06A40F08F
:102970000100E0620120F1E7FDF7E1FF00E0FFFF69
:10298000FE0E1FFF7047000070B586B0002506469A
:10299000009501950295039500681E49884236D13D
:1029A0001D49886940F400708861886900F40070EE
:1029B0000490886940F0080088618869694600F0E1
:1029C000080004900120009003200190134800F0BB
:1029D000A3FA144C1248C4E900058020C4E902504F
:1029E00040002061800060612020C4E90605204687
:1029F00000F01AFA08B1FFF70DFE3462002205213B
:102A00001220666200F0B0FD122000F09FFD06B0BB
:102A100070BD00000024014000100240000C014085
:102A2000080002407401002070B5044690F82400AC
:102A300001280DD0012084F824002046FFF76CFD0A
:102A400002004FF0000005D084F82400104670BD4D
:102A5000022070BDA16A40F20123994341F48071C4
:102A6000A1621F4D23681F49AB4218D10E6816F4AE
:102A7000702F14D0A66A46F48016A6620E687605FA
:102A800005D5A66A26F4005646F48056A662A66AC4
:102A9000F6040AD5E66A26F00606E66206E0A66AAD
:102AA00026F48016A6625E68E9E7E06284F82400F6
:102AB0006FF00200186020688368C3F34243072B5D
:102AC00005D1A84208D1096811F4702F04D081689B
:102AD00041F480118160B9E7816841F4A001F9E710
:102AE00000280140042401402DE9F04789460446AE
:102AF0003B4900683B4F0E1D9046884201D0B842CA
:102B000007D1306810F4702F03D001252846BDE8A6
:102B1000F08794F8240001280CD0012084F82400C8
:102B20002046FFF7F9FC05004FF0000004D084F8C0
:102B30002400EBE70220EAE7A16A40F60162914334
:102B400041F48071A1622168B94218D1326812F44F
:102B5000702F14D0A16A41F48011A1623168490537
:102B600005D5A16A21F4005141F48051A162A16A06
:102B7000C9040AD5E16A21F00601E16206E0A26A11
:102B800022F48012A2624968E9E7E06284F8240036
:102B9000216A15488862216A1448C862216A14486B
:102BA000086321686FF0020008602068816841F4C2
:102BB00080718160216843464A464C31206A00F0AA
:102BC00061F920688168C1F342410729816803D017
:102BD00041F48011816099E741F4A001FAE7000017
:102BE0000024014000280140A72400080F25000808
:102BF000F524000810B590F821100022022905D014
:102C00000421816380F82020012010BD01680B6839
:102C100023F00E030B6001680B6823F001030B60C7
:102C200090F84030C46B012101FA03F3636080F82F
:102C3000211080F82020104610BD000010B590F83B
:102C400021100024022903D00421816301243DE0E6
:102C500001680A6822F00E020A6001680A6822F020
:102C600001020A601A4A0168914201D1012121E062
:102C7000174A1432914201D110211BE0144A283224
:102C8000914201D1891515E0114A3C32914201D19E
:102C900089140FE00E4A5032914202D14FF4803134
:102CA00008E00B4A6432914202D14FF4801101E0F6
:102CB0004FF08071064A083A5160012180F82110D6
:102CC000002180F82010416B01B18847204610BDDB
:102CD000080002402DE9F05FC16B0C6801680B68C9
:102CE000D0F840C0042202FA0CF2494DDFF824A1CA
:102CF000494E4A4FDFF828B1DFF828E122422CD0B4
:102D00005A072AD50A68920603D40A6822F00402F8
:102D10000A600168A94201D1042219E0514501D19C
:102D2000402215E0B14202D14FF4806210E0B94276
:102D300002D14FF480420BE0594502D14FF480227A
:102D400006E0714502D14FF4800201E04FF080624D
:102D50002F4908394A60C16A3BE04FF0020808FA7F
:102D60000CF818EA040F4FF000094FF0010235D0BB
:102D70005FEA837832D50B689B0605D40B6823F095
:102D80000A030B6080F821200168A94201D10222C8
:102D900019E0514501D1202215E0B14202D14FF492
:102DA000007210E0B94202D14FF400520BE05945D5
:102DB00002D14FF4003206E0714502D14FF4001207
:102DC00001E04FF00072124908394A6080F8209003
:102DD000816A00291AD0BDE8F05F0847082505FA86
:102DE0000CF5254212D01B0710D50B6823F00E03FB
:102DF0000B6090F84010C36B02FA01F159608263D6
:102E000080F8212080F82090016BE2E7BDE8F09F78
:102E1000080002401C000240300002404400024012
:102E2000580002406C00024030B528B308C813496E
:102E300014221944B1FBF2F18900C1631049816386
:102E4000022141771A6843F6F0718A43D0E90014F1
:102E50002143D0E902452C432143046921434469BD
:102E600021438469214311431960002141630122F8
:102E700042770177084630BD012030BDF8FFFDBF25
:102E80000000024070B5044690F82000002501289B
:102E90000CD0012084F8200094F821600020012E3D
:102EA00006D084F820000225284670BD022070BD9F
:102EB000022684F82160A0632068066826F00106D7
:102EC00006602046FFF790FBE06A00282068016852
:102ED00002D041F00E0106E021F0040101602068FB
:102EE000016841F00A0101602068016841F00101B8
:102EF0000160D9E770B5044600F004F90546601C8E
:102F000002D004480078044400F0FCF8401BA042C2
:102F1000FAD370BD480000202DE9F84FDFF8B891D2
:102F20000024A9F1040B23460F2709F1040AABF191
:102F3000040EC9E00125A5402A40AA427DD1674E72
:102F4000D1F804C0ACEB0608B44532D014DCBCF1B7
:102F5000030F3AD009DCBCF1000F2AD0BCF1010FFD
:102F60001CD0BCF1020F31D11DE0BCF1110F17D004
:102F7000BCF1120F2AD119E0B8F5881F19D006DC70
:102F8000B8F5803F15D0B8F5801F1FD111E0B8F516
:102F9000001F0ED0B8F5041F18D10AE0CB6815E069
:102FA000CB681B1D12E0CB6808330FE0CB680C33F5
:102FB0000CE08B682BB1012B4FF0080303D0456167
:102FC00004E0042302E0056100E00023FF2A01D8A9
:102FD000064601E000F104064FEA840501D9A5F197
:102FE0002005D6F8008007FA05FC28EA0C0803FA49
:102FF00005F548EA0508C6F800804D68ED0062D581
:10300000374DAE6946F00106AE61AD6924F00306A6
:1030100005F001050095334D06EB050CDCF8085072
:10302000A607360F07FA06F825EA0805DFF8B88084
:10303000404503D14FF0000817E044E0DFF8AC80D2
:10304000404502D14FF001080FE0DFF8A480404571
:1030500002D14FF0020808E0DFF89880404502D125
:103060004FF0030801E04FF0040808FA06F848EAB8
:103070000508CCF808804D68D9F80060ED024D468F
:1030800001D5164300E096432E604D68DAF80060E3
:10309000AD02554601D5164300E096432E604D68BB
:1030A000DBF80060AD035D4601D5164300E09643B2
:1030B0002E604D68DEF80060ED03754601D51643BD
:1030C00000E096432E60641C0D682A46E5407FF4BC
:1030D00031AFBDE8F88F0000080401400000111076
:1030E000001002400000014000080140000C0140B7
:1030F00000100140001401400AB101617047090449
:10310000FBE700000148806870470000480000208D
:1031100070B5040025D094F83D00002520B984F84E
:103120003C50204600F050F9242084F83D002068EF
:10313000016821F0010101602068016841F400414B
:1031400001602068016821F40041016000F06AFB21
:103150004D4A6168914201D84C4900E04C4988428F
:1031600001D2012070BD4B492368B0FBF1F15E68CC
:1031700026F03F060E435E606368934206D94FF423
:10318000967359434FF47A73B1FBF3F12368491CEA
:103190001E6A26F03F06314319626168914210D8D9
:1031A0004900401EB0FBF1F2521CC2F30B02042A8C
:1031B00001D2042022E0B0FBF1F0401CC0F30B0070
:1031C0001CE0A268F2B301EBC10303EB0116431E3E
:1031D000B3FBF6F35B1C43F480431B0549D092B369
:1031E00001EBC10202EB0111401EB0FBF1F0401CEB
:1031F000C0F30B0040F4804040F400402168CA69ED
:103200004CF6FF739A431043C861D4E90710014399
:103210002068026822F0C00211430160D4E9030172
:1032200001432068826848F2FF339A43114381606A
:10323000D4E9050108432168CA6822F0FF0210435F
:10324000C86001E00EE016E02068016841F001016D
:1032500001602564202084F83D00256384F83E50F9
:10326000002070BD01EB4106431EB3FBF6F35B1C6F
:10327000B3E70120C2E701EB4101401EB0FBF1F0D2
:10328000401CC0F30B00B7E7A086010080841E003D
:1032900000093D0040420F002DE9FF4F83B09A46E0
:1032A000DDE9119793460446DDF84080FFF72AFFD9
:1032B000054694F83D0020287FD11923012240497A
:1032C0002046009501F084FB002876D194F83C005C
:1032D000012872D0012084F83C0020680168C907E9
:1032E00003D1016841F0010101602068016821F407
:1032F00000610160212084F83D00402084F83E00F8
:1033000000262664C4F82480A4F82A90608D2085C5
:103310002C48E062CDE9007553465A462046049990
:1033200001F0D6FA70B930E02A463946204601F05D
:10333000F5FB58B1206C042804D12068016841F4E1
:1033400000710160012007B0BDE8F08F606A21685C
:1033500000780861606A401C6062218D491E89B254
:103360002185628D521E628522685369DB435B07AB
:103370000BD469B100781061606A401C6062208DD6
:10338000401E2085608D401E6085208D0028CBD199
:103390002A463946204601F0EFFA0028CAD154F8EF
:1033A0003D0B016841F400710160202004F81E0902
:1033B000E67766770020C6E7FFE70220C3E7000054
:1033C000020010000000FFFF10B586B00021009140
:1033D00001910291039100681349884222D1134C54
:1033E000A06940F00800A061A069694600F00800EB
:1033F00004904FF44070009012200190032003903D
:103400000B48FFF789FD0B48416841F0E06141F04E
:1034100002014160E06940F40010E061E06900F4FD
:103420000010049006B010BD00540040001002408F
:10343000000C0140000001400248816802781144FC
:103440008160704748000020074810B5016841F0CE
:1034500010010160032000F0A7F80F2000F006F82B
:1034600000F050F8002010BD0020024030B50546A5
:103470001F4887B0C16941F00401C161C06906A954
:1034800000F00400009001A800F0ACF90498B0B17D
:1034900000F0C8F940001749174AB0FBF1F117488E
:1034A000491E0260416040F2E7320021C0E9032179
:1034B0008160816100F0C2FB040003D015E000F0E0
:1034C000B1F9E8E70D4800F005FC04000DD11E201D
:1034D00000F03CF8102D07D2002229461E2000F0F3
:1034E00043F80748056000E0012407B0204630BDDE
:1034F0000010024040420F0000080040B4030020CA
:103500004C0000200F4808B5816941F0010181613C
:10351000816901F001010091C16941F08051C161EF
:10352000C069002200F0805000900F21901E00F032
:103530001BF80548416821F0E06141F000714160ED
:1035400008BD00000010024000000140002809DB17
:1035500000F01F02012191404009800000F1E020AD
:10356000C0F8001170470000F0B40E4B1B680C4609
:10357000C3F30223C3F10705042D00D90425191D47
:10358000072901D2002300E0DB1E012606FA05F11F
:10359000491E214099409E40761E16403143F0BCA2
:1035A00002F076BA0CED00E0064900F00702086868
:1035B0004FF6FF03184040EA0220034A1043086018
:1035C000704700000CED00E00000FA052DE9F8431B
:1035D00005460078354CC00754D0E0690026C0008D
:1035E00008D4E06940F08050E061E069012600F015
:1035F000805000902E480168C90512D401688046A9
:1036000041F480710160FFF77DFD074605E000BFD2
:10361000FFF778FDC01B642823D8D8F80000C00548
:10362000F6D5206A10F4407021D0A98801F44071C9
:1036300081421CD0206A1F49012220F440700A6098
:1036400000220A602062C00711D0FFF75BFD074629
:1036500041F2883808E000BFFFF754FDC11B414527
:1036600002D90320BDE8F883206A8007F4D5206AD8
:10367000696820F44070084320621EB1E06920F0C0
:103680008050E0612878800705D56068A96820F43B
:103690004040084360602878C00605D56068E96846
:1036A00020F48000084360600020DBE70010024047
:1036B00000700040400442422DE9F0470F460500EB
:1036C00061D0434E306800F00700B84209D230683C
:1036D00020F0070038433060306800F00700B8423F
:1036E00051D128683B4C810712D5400703D560684B
:1036F00040F4E06060602878000703D5606840F41B
:10370000605060606068A96820F0F0000843606065
:103710002878C00728D06868012810D021680228BE
:1037200010D0890700292EDA616821F003010143D6
:103730006160FFF7E7FC804641F288390DE02168BF
:103740008903EFE78901EDE7FFF7DCFCA0EB080157
:10375000494502D90320BDE8F0876068696800F038
:103760000C00B0EB810FEFD1306800F00700B842D9
:103770000BD9306820F0070038433060306800F023
:103780000700B84201D00120E5E72878400705D5B9
:103790006068E96820F4E06008436060287800070A
:1037A00006D56068296920F4605040EAC100606075
:1037B00000F058F86168084AC1F30311515CC84031
:1037C0000649086006480068FFF750FE0020C2E77F
:1037D00000200240001002406E86000854000020C5
:1037E0004C0000200F2202600C4A536803F00303D0
:1037F0004360536803F0F0038360536803F4E063AD
:10380000C36052684FF4E06303EAD20202610448E5
:10381000006800F0070008607047000000100240D8
:10382000002002400448054900684968044AC1F381
:103830000221515CC8407047540000200010024033
:103840007E8600080448054900684968044AC1F3B7
:10385000C221515CC8407047540000200010024053
:103860007E8600080E4A51680E4801F00C03042BB6
:1038700011D0082B0FD10C48C1F38343C903C05C9E
:103880000AD55168084AC1F34041921E515C054A6D
:103890005043B0FBF1F070470449484370470000C3
:1038A0000010024000127A005E86000800093D0008
:1038B0002DE9F84F040070D02078C04DC00749D0E2
:1038C0006868C0F38100012807D06868C0F38100F0
:1038D000022809D16868C00306D52868800339D555
:1038E00060680028E7D035E06068B0F5803F0BD015
:1038F00010B1B0F5A02F11D0286820F480302860D6
:10390000286820F4802002E0286840F48030286095
:10391000606890B1FFF7F6FB06460AE0286840F4BD
:1039200080202860F0E700BFFFF7ECFB801B6428D5
:1039300073D828688003F7D50CE0FFF7E3FB064651
:1039400005E000BFFFF7DEFB801B6428F0D8286885
:103950008003F7D420789A4E80074FF001094FF08A
:10396000000839D5686810F00C0F07D06868C0F3FC
:103970008100022809D16868C00306D4286880073E
:1039800014D52069012808D110E02069B0B1C6F82B
:103990000090FFF7B7FB074605E00AE1FFF7B2FB2F
:1039A000C01B0228C4D828688007F7D52868616939
:1039B00020F0F80040EAC10028600DE0C6F8008061
:1039C000FFF7A0FB074604E0FFF79CFBC01B0228A3
:1039D00023D828688007F7D4207800072CD57948A9
:1039E000A169D9B1C0F80090FFF78CFB074604E04D
:1039F000FFF788FBC01B02280FD8686A8007F7D53D
:103A000071484FF4FA510068B0FBF1F0009000BF2C
:103A10000098411E0091FAD20EE080E0C0F80080CC
:103A2000FFF770FB074604E0FFF76CFBC01B0228A2
:103A300075D8686A8007F7D42078400760D5E869B0
:103A40000027C00008D4E86940F08050E861E869C8
:103A5000012700F0805000905C480168C90513D42C
:103A60000168834641F480710160FFF74BFB824699
:103A700006E000BFFFF746FBA0EB0A0064284ED823
:103A8000DBF80000C005F5D5E06801280AD008B1D0
:103A9000052813D0286A20F001002862286A20F047
:103AA000040002E0286A40F001002862E06841F268
:103AB000883B98B1FFF726FB82460BE0286A40F06E
:103AC00004002862EEE700BFFFF71CFBA0EB0A0131
:103AD00059455AD8286A8007F6D50CE0FFF712FB43
:103AE000824605E0FFF70EFBA0EB0A0159454CD8D2
:103AF000286A8007F6D41FB1E86920F08050E86199
:103B0000E06988B36968C1F38101022944D00228C1
:103B1000C6F8608004D0FFF7F5FA044638E034E0D8
:103B2000FFF7F0FA074604E0FFF7ECFAC01B0228A3
:103B30002BD828688001F7D4206AB0F5803F05D1E2
:103B40006868A16820F4003008436860D4E908017F
:103B50000843696821F4741108436860C6F86090EE
:103B6000FFF7D0FA044606E025E000BFFFF7CAFAE7
:103B7000001B022809D828688001F7D51BE000BF88
:103B8000FFF7C0FA001B022802D90320BDE8F88F16
:103B900028688001F4D40EE00128F7D06868226A12
:103BA00000F48031914204D1616A00F470108842BF
:103BB00001D00120EAE70020E8E700000010024001
:103BC0000000424280044242540000200070004045
:103BD0007047704770B590F83C20012A26D0012428
:103BE00080F83C40022280F83D2003685A689D68B6
:103BF00022F070060A6832435A600D4B02689A42FE
:103C000008D0B2F1804F05D00A4B9A4202D00A4B3D
:103C10009A4204D1496825F080031943916080F8E5
:103C20003D40002180F83C10084670BD022070BD68
:103C3000002C0140000400400008004010B50400C2
:103C400003D094F83D0010B107E0012010BD002022
:103C500084F83C00204600F01FF8022084F83D0064
:103C6000211D206801F0D4FB012084F8460084F86F
:103C70003E0084F83F0084F8400084F8410084F856
:103C8000420084F8430084F8440084F8450084F836
:103C90003D00002010BD000008B500680B498842B7
:103CA00012D10B48816941F4006181618069002271
:103CB00000F40060009005211920FFF755FCBDE8D5
:103CC00008401920FFF742BC08BD0000002C01404D
:103CD0000010024090F83D10012901D001207047EA
:103CE000022180F83D100168CA6842F00102CA60F2
:103CF00000680B49884208D0B0F1804F05D00949CF
:103D0000884202D00849884204D1816801F0070145
:103D1000062903D0016841F00101016000207047CD
:103D2000002C0140000400400008004070B504462B
:103D300090F83C000025012817D0012684F83C604B
:103D4000022084F83D002068826822F0770222F485
:103D50007F4282600868502838D00DDC20284FD080
:103D600005DC90B3102811D14AE0022070BD302844
:103D700046D040280AD13BE060282FD070280DD0D3
:103D8000B0F5805F03D0B0F5005F12D0012584F854
:103D90003D60002084F83C00284670BDCB68D1E926
:103DA0000121206801F07DFB2068816841F07701E6
:103DB00009E0CB68D1E90121206801F072FB20689D
:103DC000816841F480418160E1E719E0CA6849688F
:103DD000206801F01BFC5021206806E0CA68496891
:103DE000206801F024FC6021206801F064FBCEE72C
:103DF000CA684968206801F009FC40212068F4E79E
:103E0000226801461046F0E72DE9F0410D46040016
:103E100003D094F83D0018B108E00120BDE8F0811E
:103E2000002084F83C00204600F040F8022084F88E
:103E30003D002068816844F2070291438160211DA2
:103E4000206801F0E5FA226890689169166A2B688B
:103E5000AF69034340F20330814341EA0721A86878
:103E6000EF6908434FF6FC418843E96840EA0720C0
:103E7000014328692F6A000140EA07300843696856
:103E80006D6926F0220646EA0515294393602268EB
:103E9000906154F8460B0162012004F81F09E07597
:103EA0002076E0762077A0750020B7E700B585B0D2
:103EB0000021009101910291039100680D4988420F
:103EC00016D10D48C16941F00201C161C16901F01B
:103ED00002010491816941F00401816180696946B0
:103EE00000F004000490C02000900448FFF714F88C
:103EF00005B000BD00040040001002400008014071
:103F000070B590F83E60044690F83F5090F842300B
:103F100090F84320022021B104290ED0012E1BD19C
:103F200014E0012E18D1012B16D184F83E0084F83C
:103F3000420001220021206820E0012D0CD1012A3D
:103F40000AD184F83F0084F8430014E0012D03D126
:103F5000012B01D1012A01D0012070BD84F83E005F
:103F600084F83F0084F8420084F8430001220021D5
:103F7000206801F089FA01220421206801F084FA06
:103F80002068016841F001010160002070BD7047A8
:103F90002DE9F04104460068C66805694FF0000746
:103FA000A90713D5B10711D5F91E016101202077AA
:103FB000206880698007204602D0FFF7E8FF04E010
:103FC00000F0A2F8204600F045F92777680716D5DB
:103FD000700714D521686FF0040008610220207773
:103FE0002068806910F4407F204602D0FFF7CFFFA1
:103FF00004E000F089F8204600F02CF92777280724
:1040000015D5300713D521686FF00800086104202A
:1040100020772068C0698007204602D0FFF7B7FFED
:1040200004E000F071F8204600F014F92777E80664
:1040300016D5F00614D521686FF01000086108202D
:1040400020772068C06910F4407F204602D0FFF737
:104050009EFF04E000F058F8204600F0FBF82777B8
:10406000E80708D0F00706D021686FF0010008616A
:10407000204600F03FF9280608D5300606D521680D
:104080006FF0800008612046FFF7A2FD680608D5A2
:10409000700606D521686FF040000861204600F0E8
:1040A000ABF9A8060AD5B00608D521686FF0200044
:1040B00008612046BDE8F041FFF78BBDBDE8F08107
:1040C00000B585B000210091019102910391006833
:1040D000B0F1804F11D10A48816941F0040181613A
:1040E0008069694600F004000490012000900220DD
:1040F000019003900348FEF70FFF05B000BD0000DC
:104100000010024000080140704770B5044690F866
:104110003C0000260D4601280FD0012084F83C0009
:104120006AB1042A1DD0082A2FD00C2A3FD00126BC
:10413000002084F83C00304670BD022070BD20682D
:1041400001F0C2F92068816941F0080181612068AD
:10415000816921F004018161206881692A69114324
:1041600011E0206801F0D8F92068816941F400610C
:1041700081612068816921F48061816120688169A1
:104180002A6941EA02218161D2E7206801F0F0F951
:104190002068C16941F00801C1612068C16921F04E
:1041A0000401C1612068C1692A69114311E02068D6
:1041B00001F00AFA2068C16941F40061C161206818
:1041C000C16921F48061C1612068C1692A6941EA3D
:1041D0000221C161ACE710B5040003D094F83D00A2
:1041E00010B107E0012010BD002084F83C002046FB
:1041F00000F01EF8022084F83D00211D206801F027
:1042000007F9012084F8460084F83E0084F83F0056
:1042100084F8400084F8410084F8420084F84300A8
:1042200084F8440084F8450084F83D00002010BD67
:1042300008B50068B0F1804F08D10548C16941F068
:104240000101C161C06900F00100009008BD0000DB
:10425000001002407047000010B50446022249B128
:1042600004290ED0082913D094F84100012816D053
:10427000012010BD94F83E000128F9D184F83E20B9
:104280000FE094F83F000128F2D184F83F2008E0C5
:1042900094F840000128EBD184F8402001E084F834
:1042A00041200122206801F0EFF80F492068884280
:1042B00003D1426C42F4004242642068884208D034
:1042C000B0F1804F05D00949884202D008498842A0
:1042D00004D1816801F00701062903D0016841F08B
:1042E00001010160002010BD002C014000040040CD
:1042F000000800402DE9F04104460068304988423A
:1043000001D1FFF799F82F492068884256D12E4CE9
:104310002E4D00262068401C20606168491C6160A9
:1043200005281BDBFEF7A4F903F09AFB284A294B6A
:1043300003F0EAFB03F012F9A5F1300148602649C9
:1043400003F080FF696803F029FE686001F00EFD4C
:104350002861286801F00AFDE86026601A4F60684D
:104360001837052819DBA86803F0ECFD1B4A1C4B25
:1043700003F026F903F0F2F8386001F0F1FCF86080
:10438000FEF74AF9174903F05DFF174903F068FE8D
:10439000786001F0E5FC38616660144A7968144879
:1043A000914202DD134A914206DD0670BE60BDE80F
:1043B000F041002000F09ABF01210170BDE8F081BA
:1043C00000080040002C01400000002014010020E3
:1043D000D589157F25A1D83F0AD7233DC976BE9F31
:1043E0001A2F0940D00FC94000F07F45666606408D
:1043F000DA00002033338340704738B5044690F824
:104400004200202801D0022038BD51B14AB101201C
:10441000206300206063204601F0B2FA216B01297D
:1044200001D0012038BD21680A68496800912168DF
:104430000C3151E8002F42F0100241E80023002B1C
:10444000F5D138BD10B50068064A904209D106483A
:1044500001F0B6FBBDE81040142203490348FFF702
:10446000CCBF10BD00380140D01C0020E402002069
:1044700070470000F8B5016804460868CA684B69CF
:1044800010F00F0F4FF0000559D003F0010602F4B1
:104490009077374365D0C10705D0D10503D5616C4E
:1044A00041F001016164410705D5D90703D0616C72
:1044B00041F002016164810705D5D90703D0616C21
:1044C00041F004016164010707D502F02001314386
:1044D00003D0616C41F008016164616C00293AD03D
:1044E000800604D5900602D5204601F08CF920689C
:1044F0004069616CC0F38010090700D460B32046A6
:1045000001F04CF920684069400621D5206814303C
:1045100050E8001F21F0400140E80012002AF5D1C8
:10452000E06BA8B16D494163E06BFEF787FB0028A3
:1045300011D0E06B416B01B0BDE8F0400847830645
:104540000FD593060DD52046BDE8F84001F05BB9C4
:104550002046FFF78DFFF8BD2046FFF789FF656411
:10456000F8BD266B2023012E7CD1C6067AD5D6064F
:1045700078D508684868009048694FF00206400600
:1045800040D5E16B086840680004000CE8D0A28DBB
:104590008242E5D9E085886920282DD020680C303A
:1045A00050E8001F21F4807140E80012002AF5D184
:1045B0002068143050E8001F21F0010140E800128B
:1045C000002AF5D12068143050E8001F21F0400186
:1045D00040E80012002AF5D184F8423025632068B3
:1045E0000C3050E8001F21F0100140E80012002AB2
:1045F000F5D1E06BFEF7FEFA6663A08DE18D401AFF
:1046000081B22AE0A08DE18D401A81B2E08D0028B0
:10461000A6D00029A4D022680C3252E8000F20F462
:10462000907042E80007002FF5D12068143050E860
:10463000002F22F0010240E80027002FF5D184F876
:104640004230256320680C3050E8002F22F0100221
:1046500040E80023002BF5D166632046FFF7F2FE09
:10466000F8BDFFE705062BD5150629D594F84100BE
:104670002128F5D1A068B0F5805F01D12069B0B1E3
:10468000206A411C2162216800784860E08C401E4D
:104690000004000CE084E3D12068C16821F08001AF
:1046A000C1602068C16841F04001C160D8E7206A5C
:1046B0000088C0F308004860206A801C2062E5E79B
:1046C0004006CDD55006CBD5CA68204622F0400220
:1046D000CA6084F8413000F0E1F8C1E753560008A1
:1046E00070B5040004D094F84100002510B106E034
:1046F000012070BD84F84050204600F023F82420AB
:1047000084F841002068C16821F40051C16020464E
:1047100001F0DAF82068016921F490410161206814
:10472000416921F02A0141612068C16841F40051CA
:10473000C1606564202084F8410084F8420065630C
:10474000002070BDF0B585B00024064600940194A9
:104750000294039400682D49884254D12C48816901
:1047600041F480418161816901F480410491816952
:1047700041F0040181618069264D00F0040004903D
:104780004FF40070009002200190032003906946CE
:104790002846FEF7C1FB2815CDE9000469462846E6
:1047A0000294FEF7B9FB1D4D1B488027C5E90004A4
:1047B000C5E902472C616C61AC612846EC61FEF7EB
:1047C00033FB08B1FDF726FFF5636E62134D124807
:1047D0004435143801C5102091C5104845F81049DA
:1047E00044306C61AC61EC61FEF71EFB08B1FDF773
:1047F00011FFB5630022052125206E62FEF7B4FE8D
:104800002520FEF7A3FE05B0F0BD000000380140F2
:104810000010024000080140580002402C03002014
:104820007047704770B5044690F84100202801D0C9
:10483000022070BD49B342B32162A284E284002009
:104840006064212384F84130A56B114BAB62A56BEA
:10485000104BEB62A56B104B2B63A36B5863256861
:1048600013462A1DA06BFEF70DFB21686FF0400078
:1048700008602068143050E8001F41F0800140E8D3
:104880000012002AF5D1002070BD012070BD00008B
:104890005157000893570008635600087047704747
:1048A000FEE701684A69D24352050FD46FF4806273
:1048B0004A61002140F8301F20224273817302694F
:1048C00042F004020261017301207047002070472A
:1048D0002DE9F843044600680D46DDE908970168B4
:1048E0009846164641F4807101604B4600224FF015
:1048F00001112046009700F06BF848B1206800686D
:10490000C00502D54FF4007020640320BDE8F88391
:10491000216805F0FE0008613B464A4615492046DD
:1049200000F09EF888B920684169806900903A4695
:104930004946204600F0F2F848B1206C042804D122
:104940002068016841F4007101600120DEE7F5B2E2
:10495000B8F1010F09D02168300A08613A4649468A
:10496000204600F0DBF80028E7D120680561002030
:10497000CCE700000200010070B516460D46044663
:104980001EE02046FFF78DFF08B1012070BD681CB6
:1049900016D0FEF7B7FB801BA84200D885B9206867
:1049A0004069C04340070BD5002044F8300F202158
:1049B0006173A073216941F0200121612073E4E754
:1049C00020684069C0434007DBD4002070BD000070
:1049D0002DE9F047984617460D460446C1F30746B1
:1049E000DDF820902AE000BFB8F1FF3F26D0FEF7A7
:1049F00089FBA0EB0901414502D8B8F1000F1DD198
:104A00002068012E16D0806925EA00000004000C01
:104A100012D00020B84211D1002044F8300F2021DC
:104A20006173A073216941F020012161207301208D
:104A3000BDE8F0874069E7E70120EBE72068012E39
:104A40000AD0806925EA00000004000C06D000208E
:104A5000B842C9D00020EBE74069F3E70120F7E74F
:104A60002DE9F047984616460D4604464FF00009DA
:104A70004FF0200AC1F3074723E020684069C04394
:104A8000400515D42068016841F400710160216877
:104A90006FF480604861C4F8309084F83DA084F8D9
:104AA0003E90216C41F00401216484F83C9021E0A7
:104AB000701C06D0FEF726FBA0EB0800B04203D81E
:104AC00016B1012F1FD021E02068012F15D0806979
:104AD00025EA00000004000C18D000BF44F8309F05
:104AE00084F80DA084F80E90216941F02001216125
:104AF00084F80C900120BDE8F087406925EA0000A9
:104B00000004000CEAD12068406901E02068806957
:104B100025EA00000004000CAFD1ECE770B51646A2
:104B20000D4604461EE02046FFF7BBFE08B10120FB
:104B300070BD681C16D0FEF7E5FA801BA84200D8AD
:104B400085B920684069C04300060BD5002044F8B1
:104B5000300F20216173A073216941F02001216190
:104B60002073E4E720684069C0430006DBD40020DE
:104B700070BD00003EB500211148009101910F4A1F
:104B80000291026001248160047301754FF4602278
:104B90000461C2614160FDF767FE08B1FDF73AFDAF
:104BA0000820CDE900040620029069460448FDF77C
:104BB0006BFD002801D0FDF72DFD3EBD0024014016
:104BC00044010020114808B5416941F001014161EB
:104BD0004069002200F00100009005210B20FEF743
:104BE000C3FC0B20FEF7B2FC002205210E20FEF7CD
:104BF000BBFC0E20FEF7AAFC002205210F20FEF7C9
:104C0000B3FCBDE808400F20FEF7A0BC0010024036
:104C100010B59CB000F034FA00F08CFA00F010FAF5
:104C200014222C492C48FFF7E8FB00212B48FFF702
:104C300013FB3C212A48FFF763F92A48FFF74AF89B
:104C40002948FDF7F1FE012228492748FDF74CFFCE
:104C500027480021274A01724172802181727F21F9
:104C6000C1720021244801F0CDF8244C2421606158
:104C70006846FBF7ECFC1F49242224316846FBF709
:104C8000ACFC6A4600211E4801F0BCF8A06024215B
:104C900009A8FBF7DCFC17492422483109A8FBF7D7
:104CA0009CFC09AA0021174801F0ACF8E06024211F
:104CB00012A8FBF7CCFC0F4924226C3112A8FBF799
:104CC0008CFC12AA0021104801F09CF820611CB055
:104CD00010BD0000D01C0020E4020020540200207F
:104CE0009C0200200C02002044010020D80000207B
:104CF000E41C0020CC8500085D5300080000002063
:104D00004D4F0008952500082D53000870B586B05A
:104D100000241C480094019402940394816941F09A
:104D200010018161816901F010010491816941F0F4
:104D300020018161816901F020010491816941F0C4
:104D400004018161816901F004010491816941F0EC
:104D50000801816180690C4E00F008004FF4405555
:104D60000490002229463046FEF7C6F9012000953E
:104D7000CDE901040220039069463046FEF7CCF8E5
:104D800006B070BD00100240000C01400D4810B587
:104D90000B4901600C49416000214FF48042816061
:104DA000C0E9031241618161C1610162FEF7B0F99E
:104DB000002803D0BDE81040FDF72CBC10BD00005A
:104DC00000540040B8010020801A060010B586B0DB
:104DD0000024174800940194029403940494134906
:104DE0000594016041F61F41C0E901140921C0E9A1
:104DF000031444618461FEF721FF08B1FDF70AFC4A
:104E00004FF48050009069460948FEF78FFF08B1C3
:104E1000FDF700FC049404A905480594FEF7DAFEAA
:104E2000002801D0FDF7F6FB06B010BD002C0140B4
:104E30000C02002010B58AB0002407941C2168469B
:104E40000894FBF704FC15484FF0804101604721AE
:104E5000C0E901146321C0E903148461FFF7BBF9C1
:104E600008B1FDF7D7FB079407A90C480894FEF793
:104E7000B1FE08B1FDF7CEFB6020CDE9000402943D
:104E80000022694605480494FFF73FF908B1FDF791
:104E9000C1FB0248FFF714F90AB010BD540200200C
:104EA00010B58CB024216846FBF7D1FB00241748CD
:104EB000099415490A94C0E900144FF6FF71C0E93E
:104EC0000241046184610320CDE900040120062130
:104ED0000222CDE90204CDE904120690CDE9074192
:104EE00069460A48FEF790FF08B1FDF793FB099465
:104EF00009A906480A94FEF76DFE002801D0FDF7C7
:104F000089FB0CB010BD0000000400409C02002092
:104F10000C4810B50A4901604FF4E13141600021AD
:104F200081600C22C160C0E904128161C161FFF798
:104F3000D7FB002803D0BDE81040FDF76BBB10BDC8
:104F400000380140E4020020FEE7FEE788B0264E6C
:104F5000264C274D06F13007A4F11808706802F0BE
:104F6000F1FF02460B4623A16846FBF78BF90021AF
:104F70006A46084600F024F9786802F0E3FF02462A
:104F80000B4620A16846FBF77DF96A460221002006
:104F900000F016F9A06802F0D5FF02460B461EA1EC
:104FA0006846FBF76FF96A460421002000F008F913
:104FB000606802F0C7FF02460B461BA16846FBF77C
:104FC00061F96A460621002000F0FAF8D8F81C00C2
:104FD0002860706868600C2205491848FFF722FCB9
:104FE0000A2000F0D3FEB9E7E400002018000020FA
:104FF000E41C002053706561643A252B30362E3155
:10500000660000004C6F636174696F6E3A252B3047
:10501000362E3166000000006F75747075743A2585
:105020002B30362E316600006174746974756465C6
:105030003A252B30362E316600000000E4020020B5
:10504000002000F001B8000070B506465FF00004D3
:1050500004F1B000C0B200F0E3FC002000F0E0FC7E
:10506000102000F0DDFC0025304600F0EBFC6D1C4C
:10507000EDB2802DF8D3641CE4B2082CE8D370BDE7
:1050800010B56420FDF736FFAE2000F0C9FC2020EB
:1050900000F0C6FC102000F0C3FCB02000F0C0FC03
:1050A000C82000F0BDFC002000F0BAFC102000F089
:1050B000B7FC402000F0B4FC812000F0B1FCFF20E0
:1050C00000F0AEFCA12000F0ABFCA62000F0A8FC94
:1050D000A82000F0A5FC3F2000F0A2FCA42000F0D6
:1050E0009FFCD32000F09CFC002000F099FCD52010
:1050F00000F096FCF02000F093FCD92000F090FC2A
:10510000222000F08DFCDA2000F08AFC122000F052
:1051100087FCDB2000F084FC202000F081FC8D2047
:1051200000F07EFC142000F07BFCBDE81040AF20B6
:1051300000F076BC10B58D2000F072FC142000F059
:105140006FFCBDE81040AF2000F06ABC10B504460B
:10515000B031C8B200F064FC102040EA141000F036
:105160005FFC04F00F00BDE8104040F0010000F0CB
:1051700057BC00002DE9F041203A0024D5B20E467C
:1051800007465F2D18D2FFF7E1FF0C4800EB05152D
:10519000285D00F057FC641CE4B2082CF8D3761CA0
:1051A000F1B23846FFF7D2FF04E0285D00F04AFC78
:1051B000641CE4B2102CF8D3BDE8F08186860008A8
:1051C0002DE9F04116460F460546002409E0772DEB
:1051D00007D839462846FFF7CDFF0835641CEDB2E5
:1051E000E4B2325D002AF2D1BDE8F0812DE9F05F32
:1051F0000446406AA062D4E903794FF07E558346A5
:105200002E464946384603F0E9F86062E26A804675
:105210000146104602F0C2FEE062D4F81CA001462E
:10522000504603F00FF8294988420BDB504602F044
:1052300089FE02460B462648264902F07DFA02F016
:105240008DF9E0625046E16A02F0FCFF2249884293
:105250000BD9504602F076FE02460B461C481F4909
:1052600002F06AFA02F07AF9E0623946484603F041
:10527000B5F81B49884203DA1A49884200D800264B
:105280005946404603F0AAF8216A02F0DBFF0746C0
:105290005146304602F0D6FFE16A02F0D3FF0646DF
:1052A0004146A06902F0CEFF314602F077FE394652
:1052B00002F074FE6061A84202DD6561BDE8F09F06
:1052C00009498842FAD96161F8E70000CDCC4C3E2B
:1052D0009A9999999999C93FCDCC4CBE9999C9BFD2
:1052E0006F12833B6F1283BB000080BF30B40E4946
:1052F000002364240B4A0968642801DB137004E06E
:10530000012510F1640F02DC15704C6306E00028E3
:1053100001DB137001E015704042486330BC00F0BF
:105320007DBC0000DB00002054020020084D094C29
:10533000094E0848FFF75AFF606900F063FCA0605F
:10534000A84201DDA560F4E7B042F2D9A660F0E71B
:10535000FEB7323E14010020FEB732BE012000F03D
:1053600015FDFBE710B54FF0E020006901F014FFD8
:10537000012803D0BDE8104001F042BC10BD30B59B
:1053800093B028216846FBF762F914210AA8FBF7BD
:105390005EF9002501200F951095119501041295D5
:1053A0008DE8230004904FF4E010CDE908100224AA
:1053B00007946846FEF77CFA08B172B6FEE70AA9C0
:1053C0000F2081E831004FF48060CDE90D05022106
:1053D0000AA8FEF771F908B172B6FEE74FF4004073
:1053E00011900F940FA8FEF7F1F8002801D072B6C3
:1053F000FEE713B030BD70470148FEF7C9BD00009D
:105400000C0200200148FEF7C3BD0000B4030020D9
:10541000F0B50268194B1A4C1A4D4FF0804798426C
:1054200005D0B84203D0A04201D0A84203D122F057
:1054300070064A683243984205D0B84203D0A04271
:1054400001D0A84203D122F44074CA6822434C69B7
:1054500022F08002224302608A68C2620A68826285
:10546000984201D109690163012141610169C907BC
:1054700003D0016921F001010161F0BD002C014060
:10548000000400400008004010B501F01F03012196
:10549000046A99408C430462016A9A401143016294
:1054A00010BD10B5846842EA032224F47F440A4305
:1054B0002243826010BD826822F070020A4342F0EB
:1054C000070181607047000030B5036A026A22F06C
:1054D000010202624268846924F073050C682C435F
:1054E00023F002058B682B430A4DA8420BD123F011
:1054F0000805CB6822F440722B434D6923F0040366
:1055000015438A692A4342608461496841630362A2
:1055100030BD0000002C014030B5026A036A23F060
:1055200010030362436884690D6824F4E64444EA86
:1055300005248D6822F0200242EA05120B4DA84294
:105540000ED1CD6822F0800242EA05124D6923F4A3
:10555000406343EA85038D6922F0400243EA8503F4
:105560004360846149688163026230BD002C014060
:1055700030B5036A026A22F4807202624268C4692A
:1055800023F4007324F073050C682C438D6843EA00
:1055900005230C4DA8420ED1CD6823F4006343EAE5
:1055A00005234D6922F4405242EA05128D6923F425
:1055B000806342EA05124260C4614968C1630362C4
:1055C00030BD0000002C014030B5046A026A22F4AC
:1055D000805202624268C3690D6823F4E64343EADD
:1055E00005238D6824F4005444EA0534064DA8428E
:1055F00004D14D6922F4804242EA85124260C361BF
:1056000049680164046230BD002C014010B5036A92
:10561000046A24F001040462846924F0F00444EA7A
:10562000021423F00A020A438461026210BD10B51D
:10563000036A046A24F010040462846923F0A0035E
:1056400024F4704444EA023243EA011182610162A7
:1056500010BD10B5406A0021C185C184FEF708FF66
:1056600010BD70B5446A2068406994F84110C0F3D9
:10567000C0100025212904D118B1E584204600F08E
:10568000B4F82068406994F84210C0F380102229D1
:1056900004D118B1E585204600F080F8606C40F038
:1056A000100060642046FEF7E3FE70BD10B50146B1
:1056B000406A096809684FF0000289062ED4C28545
:1056C00001680C3151E8003F23F4807341E8003455
:1056D000002CF5D10168143151E8003F23F001039B
:1056E00041E80034002CF5D10168143151E8003F45
:1056F00023F0400341E80034002CF5D1202180F84C
:105700004210016B012909D101680C3151E8003FB9
:1057100023F0100341E80034002CF5D14263016B03
:10572000012902D0FFF77CF810BD818DFEF78AFEBB
:1057300010BD10B5406A01214163016B012902D0FF
:10574000FFF76FF810BD818D4908FEF77BFE10BD95
:1057500010B50146406A09680968890616D4002117
:10576000C1840168143151E8002F22F0800241E821
:105770000023002BF5D101680C3151E8002F42F0D5
:10578000400241E80023002BF5D110BDFFF786F859
:1057900010BD10B5406AFFF782F810BD01680C31EA
:1057A00051E8002F22F4907241E80023002BF5D13C
:1057B0000168143151E8002F22F0010241E8002372
:1057C000002BF5D1016B012909D101680C3151E899
:1057D000002F22F0100241E80023002BF5D12021F8
:1057E00080F8421000210163704701680C3151E8D4
:1057F000002F22F0C00241E80023002BF5D1202128
:1058000080F84110704708B590F84210222901D065
:10581000022008BD82684FF480539A4201D1016989
:1058200021B1816A9A421BD04AB10AE00268816ABA
:105830005268C2F308020A80816A891C08E0026982
:1058400072B10268526802F07F020A70816A491CD4
:105850008162C18D491E0904090CC18503D01BE07A
:1058600002685268F1E70168CA6822F02002CA6043
:105870000168CA6822F48072CA6001684A6922F02D
:1058800001024A61202180F8421000214163026B2D
:10589000012A03D0FEF7C4FF002008BD01630168A0
:1058A0000C3151E8002F22F0100241E80023002BB8
:1058B000F5D101680A68D20602D50A6849680091E4
:1058C000818DFEF7BFFDE7E770B50446006801690A
:1058D000E26821F44051114301612169A068084345
:1058E000616908432168CA6841F20C639A43024324
:1058F000CA6020684169A26921F440711143416185
:105900001E492068884202D1FDF79CFF01E0FDF7A7
:1059100089FF00EBC00101EB001260686421800088
:10592000B2FBF0F3B3FBF1F36FF018067343B2FB75
:10593000F0F5B2FBF0F605EB8305322303EB05151A
:10594000B5FBF1F5B6FBF1F605F0F00505EB061534
:10595000B2FBF0F6B2FBF0F0B0FBF1F06FF0180222
:10596000504306EB800003EB0010B0FBF1F0216820
:1059700000F00F002844886070BD0000003801402E
:1059800038B5816204468285002013466064222275
:1059900084F84220E56B1B4AAA62E56B1A4AEA6268
:1059A000E56B1A4A2A63E26B50630A462168E06B92
:1059B000091DFDF767FA20680168406800902069BA
:1059C00048B120680C3050E8001F41F4807140E875
:1059D0000012002AF5D12068143050E8001F41F071
:1059E000010140E80012002AF5D12068143050E887
:1059F000001F41F0400140E80012002AF5D10020CC
:105A000038BD0000AD560008335700086356000843
:105A10000148FEF72FBD0000E4020020FEE7000071
:105A200001B584B001214FF47A7204A88DE8070013
:105A30000B46002278210248FDF72EFC05B000BD80
:105A4000B801002001B584B00121642204A88DE8CA
:105A500007000B46402278210248FDF71DFC05B0E7
:105A600000BD0000B8010020490050EAC12018BF65
:105A700004204A0D18BF40F0010040F2FF72B2EB63
:105A8000515F08BF40F00200012808BF05207047A1
:105A90000907090E002804DB00F1E02080F800145B
:105AA000704700F00F0000F1E02080F8141D7047EF
:105AB00040F2013200204FF0E04102F03BBD000017
:105AC000024A0020110702F035BD000001FDFFFF72
:105AD00010B50446D1E9000100F002F8206010BDC5
