:020000040800F2
:10000000F004002001010008FB1200081112000892
:10001000F91200088D0100083117000800000000E7
:10002000000000000000000000000000FF120008B7
:10003000D301000800000000FD12000801130008B1
:100040001B0100081B0100081B0100081B01000820
:100050001B0100081B0100081B0100081B01000810
:100060001B0100081B0100081B0100081B01000800
:100070001B0100081B010008910100089D010008F8
:100080001B0100081B0100081B0100081B010008E0
:100090001B0100081B0100081B0100081B010008D0
:1000A0001B0100081B0100081B0100081B010008C0
:1000B0001B0100081B0100081B0100081B010008B0
:1000C0001B0100081B0100081B0100081B010008A0
:1000D0001B010008251700081B0100081B01000870
:1000E0001B0100081B0100081B010008DFF80CD0F1
:1000F00000F03AF80048004771170008F0040020AB
:100100000648804706480047FEE7FEE7FEE7FEE7B1
:10011000FEE7FEE7FEE7FEE7FEE7FEE76313000803
:10012000ED000008D2B201E000F8012B491EFBD21D
:1001300070470022F6E710B513460A4604461946F2
:10014000FFF7F0FF204610BD30B5054600200346FE
:1001500000E05B1C934205D2EC5CC85C201A01D124
:10016000002CF6D130BD0000064C074D06E0E068DB
:1001700040F0010394E8070098471034AC42F6D3EE
:10018000FFF7B8FFC4170008E4170008FEE70000F7
:10019000014800F091B80000A8000020014800F0DC
:1001A0008BB800006400002030B590F84050012466
:1001B000AC40C56B6C60046863604368102B0368D7
:1001C00003D099600068C26030BD9A600068C16069
:1001D00030BD704772B6FEE710B590F821100022CE
:1001E000022905D00421816380F82020012010BD60
:1001F00001680B6823F00E030B6001680B6823F0A5
:1002000001030B6090F84030C46B012101FA03F345
:10021000636080F8211080F82020104610BD000097
:1002200010B590F821100024022903D00421816325
:1002300001243DE001680A6822F00E020A600168AC
:100240000A6822F001020A601A4A0168914201D14B
:10025000012121E0174A1432914201D110211BE003
:10026000144A2832914201D1891515E0114A3C32D5
:10027000914201D189140FE00E4A5032914202D1CD
:100280004FF4803108E00B4A6432914202D14FF4BE
:10029000801101E04FF08071064A083A5160012157
:1002A00080F82110002180F82010416B01B18847AF
:1002B000204610BD080002402DE9F05FC16B0C68BC
:1002C00001680B68D0F840C0042202FA0CF2494DD4
:1002D000DFF824A1494E4A4FDFF828B1DFF828E1C2
:1002E00022422CD05A072AD50A68920603D40A68FB
:1002F00022F004020A600168A94201D1042219E037
:10030000514501D1402215E0B14202D14FF4806243
:1003100010E0B94202D14FF480420BE0594502D1BE
:100320004FF4802206E0714502D14FF4800201E0D3
:100330004FF080622F4908394A60C16A3BE04FF0B4
:10034000020808FA0CF818EA040F4FF000094FF001
:10035000010235D05FEA837832D50B689B0605D45D
:100360000B6823F00A030B6080F821200168A94282
:1003700001D1022219E0514501D1202215E0B142FC
:1003800002D14FF4007210E0B94202D14FF4005292
:100390000BE0594502D14FF4003206E0714502D11D
:1003A0004FF4001201E04FF00072124908394A6020
:1003B00080F82090816A00291AD0BDE8F05F0847D4
:1003C000082505FA0CF5254212D01B0710D50B683D
:1003D00023F00E030B6090F84010C36B02FA01F19A
:1003E0005960826380F8212080F82090016BE2E759
:1003F000BDE8F09F080002401C00024030000240AF
:1004000044000240580002406C00024030B528B35E
:1004100008C8134914221944B1FBF2F18900C163E1
:1004200010498163022141771A6843F6F0718A43CB
:10043000D0E900142143D0E902452C43214304694B
:1004400021434469214384692143114319600021F8
:100450004163012242770177084630BD012030BD5B
:10046000F8FFFDBF0000024070B5044690F8200080
:10047000002501280CD0012084F8200094F8216088
:100480000020012E06D084F820000225284670BDE9
:10049000022070BD022684F82160A06320680668EF
:1004A00026F0010606602046FFF77EFEE06A00287F
:1004B0002068016802D041F00E0106E021F004013D
:1004C00001602068016841F00A010160206801684C
:1004D00041F001010160D9E72DE9F84FDFF8B8914B
:1004E0000024A9F1040B23460F2709F1040AABF1FC
:1004F000040EC9E00125A5402A40AA427DD1674EDD
:10050000D1F804C0ACEB0608B44532D014DCBCF121
:10051000030F3AD009DCBCF1000F2AD0BCF1010F67
:100520001CD0BCF1020F31D11DE0BCF1110F17D06E
:10053000BCF1120F2AD119E0B8F5881F19D006DCDA
:10054000B8F5803F15D0B8F5801F1FD111E0B8F580
:10055000001F0ED0B8F5041F18D10AE0CB6815E0D3
:10056000CB681B1D12E0CB6808330FE0CB680C335F
:100570000CE08B682BB1012B4FF0080303D04561D1
:1005800004E0042302E0056100E00023FF2A01D813
:10059000064601E000F104064FEA840501D9A5F101
:1005A0002005D6F8008007FA05FC28EA0C0803FAB3
:1005B00005F548EA0508C6F800804D68ED0062D5EB
:1005C000374DAE6946F00106AE61AD6924F0030611
:1005D00005F001050095334D06EB050CDCF80850DD
:1005E000A607360F07FA06F825EA0805DFF8B880EF
:1005F000404503D14FF0000817E044E0DFF8AC803D
:10060000404502D14FF001080FE0DFF8A4804045DB
:1006100002D14FF0020808E0DFF89880404502D18F
:100620004FF0030801E04FF0040808FA06F848EA22
:100630000508CCF808804D68D9F80060ED024D46F9
:1006400001D5164300E096432E604D68DAF800604D
:10065000AD02554601D5164300E096432E604D6825
:10066000DBF80060AD035D4601D5164300E096431C
:100670002E604D68DEF80060ED03754601D5164327
:1006800000E096432E60641C0D682A46E5407FF426
:1006900031AFBDE8F88F00000804014000001110E0
:1006A000001002400000014000080140000C014021
:1006B00000100140001401400AB1016170470904B3
:1006C000FBE7000001488068704700000000002040
:1006D0000248816802781144816070470000002060
:1006E000074810B5016841F010010160032000F0D7
:1006F00075F80F2000F006F800F024F8002010BD77
:100700000020024070B50D4D04464FF47A712878F0
:10071000B1FBF0F00A490968B1FBF0F000F0DCFA37
:1007200048B9102C07D200222146501E00F036F89E
:1007300000206C6070BD012070BD00000000002032
:100740000C0000200C4808B5816941F0010181616D
:10075000816901F001010091C16941F08051C161DD
:10076000C06900F0805000900448416821F0E061C9
:1007700041F00071416008BD0010024000000140DE
:10078000002809DB00F01F02012191404009800090
:1007900000F1E020C0F8001170470000F0B40E4BEB
:1007A0001B680C46C3F30223C3F10705042D00D9CF
:1007B0000425191D072901D2002300E0DB1E0126B4
:1007C00006FA05F1491E214099409E40761E1640CA
:1007D0003143F0BC00F0ADBF0CED00E0064900F085
:1007E000070208684FF6FF03184040EA0220034A58
:1007F00010430860704700000CED00E00000FA05AF
:100800002DE9F0470F46050061D0434E306800F0F7
:100810000700B84209D2306820F007003843306042
:10082000306800F00700B84251D128683B4C81077E
:1008300012D5400703D5606840F4E0606060287816
:10084000000703D5606840F4605060606068A96884
:1008500020F0F000084360602878C00728D068685E
:10086000012810D02168022810D0890700292EDA2B
:10087000616821F0030101436160FFF723FF8046B7
:1008800041F288390DE021688903EFE78901EDE73E
:10089000FFF718FFA0EB0801494502D90320BDE886
:1008A000F0876068696800F00C00B0EB810FEFD151
:1008B000306800F00700B8420BD9306820F007001C
:1008C00038433060306800F00700B84201D00120A2
:1008D000E5E72878400705D56068E96820F4E0601E
:1008E000084360602878000706D56068296920F40D
:1008F000605040EAC100606000F038F86168084A62
:10090000C1F30311515CC8400649086006480068FD
:10091000FFF7F8FE0020C2E700200240001002406E
:10092000AA1700080C000020040000200448054914
:1009300000684968044AC1F30221515CC84070470D
:100940000C00002000100240BA17000804480549B6
:1009500000684968044AC1F3C221515CC84070472D
:100960000C00002000100240BA1700080E4A51681F
:100970000E4801F00C03042B11D0082B0FD10C48AA
:10098000C1F38343C903C05C0AD55168084AC1F367
:100990004041921E515C054A5043B0FBF1F0704754
:1009A00004494843704700000010024000127A00DA
:1009B0009A17000800093D002DE9F84F040070D097
:1009C0002078C04DC00749D06868C0F38100012875
:1009D00007D06868C0F38100022809D16868C003A5
:1009E00006D52868800339D560680028E7D035E04F
:1009F0006068B0F5803F0BD010B1B0F5A02F11D0DA
:100A0000286820F480302860286820F4802002E0E4
:100A1000286840F480302860606890B1FFF752FE8B
:100A200006460AE0286840F480202860F0E700BF0E
:100A3000FFF748FE801B642873D828688003F7D529
:100A40000CE0FFF73FFE064605E000BFFFF73AFE69
:100A5000801B6428F0D828688003F7D420789A4E49
:100A600080074FF001094FF0000839D5686810F091
:100A70000C0F07D06868C0F38100022809D16868AC
:100A8000C00306D42868800714D52069012808D13E
:100A900010E02069B0B1C6F80090FFF713FE0746DA
:100AA00005E00AE1FFF70EFEC01B0228C4D8286843
:100AB0008007F7D52868616920F0F80040EAC10096
:100AC00028600DE0C6F80080FFF7FCFD074604E053
:100AD000FFF7F8FDC01B022823D828688007F7D449
:100AE000207800072CD57948A169D9B1C0F80090C9
:100AF000FFF7E8FD074604E0FFF7E4FDC01B02280E
:100B00000FD8686A8007F7D571484FF4FA5100682A
:100B1000B0FBF1F0009000BF0098411E0091FAD2A6
:100B20000EE080E0C0F80080FFF7CCFD074604E04F
:100B3000FFF7C8FDC01B022875D8686A8007F7D484
:100B40002078400760D5E8690027C00008D4E8692C
:100B500040F08050E861E869012700F08050009083
:100B60005C480168C90513D40168834641F480716B
:100B70000160FFF7A7FD824606E000BFFFF7A2FD78
:100B8000A0EB0A0064284ED8DBF80000C005F5D5BC
:100B9000E06801280AD008B1052813D0286A20F09F
:100BA00001002862286A20F0040002E0286A40F070
:100BB00001002862E06841F2883B98B1FFF782FDAE
:100BC00082460BE0286A40F004002862EEE700BF8E
:100BD000FFF778FDA0EB0A0159455AD8286A80072B
:100BE000F6D50CE0FFF76EFD824605E0FFF76AFDE3
:100BF000A0EB0A0159454CD8286A8007F6D41FB1EA
:100C0000E86920F08050E861E06988B36968C1F361
:100C10008101022944D00228C6F8608004D0FFF781
:100C200051FD044638E034E0FFF74CFD074604E090
:100C3000FFF748FDC01B02282BD828688001F7D495
:100C4000206AB0F5803F05D16868A16820F40030C3
:100C500008436860D4E908010843696821F4741105
:100C600008436860C6F86090FFF72CFD044606E074
:100C700025E000BFFFF726FD001B022809D82868E1
:100C80008001F7D51BE000BFFFF71CFD001B022809
:100C900002D90320BDE8F88F28688001F4D40EE063
:100CA0000128F7D06868226A00F48031914204D1AB
:100CB000616A00F47010884201D00120EAE7002048
:100CC000E8E7000000100240000042428004424277
:100CD0000C0000200070004010B5401EB0F1807F75
:100CE00001D3012010BD4FF0E02460610F21601797
:100CF00000F01FFD0020A06107202061002010BD32
:100D000038B5044690F84200202801D0022038BDB2
:100D100051B14AB10120206300206063204600F0F9
:100D2000B9FC216B012901D0012038BD21680A6876
:100D30004968009121680C3151E8002F42F01002FF
:100D400041E80023002BF5D138BD000070B50068E4
:100D5000184988422CD1022217A11848FFF7F4F94C
:100D6000174D4FF4005430B1032216A11348FFF77A
:100D7000EBF938B110E0072213A1154800F00AFA88
:100D8000002205E0082213A1114800F003FA012215
:100D900021462846FFF790FC084800210A220160FE
:100DA00041600181BDE8704001460948FFF7A8BFD6
:100DB00070BD0000003801404F4E000010000020C0
:100DC000001001404F4646004C4544204F4E210044
:100DD0001C0000204C4544204F46462100000000E6
:100DE00070470000F8B5016804460868CA684B6996
:100DF00010F00F0F4FF0000559D003F0010602F478
:100E00009077374365D0C10705D0D10503D5616C14
:100E100041F001016164410705D5D90703D0616C38
:100E200041F002016164810705D5D90703D0616CE7
:100E300041F004016164010707D502F0200131434C
:100E400003D0616C41F008016164616C00293AD003
:100E5000800604D5900602D5204600F05DFB206890
:100E60004069616CC0F38010090700D460B320466C
:100E700000F01DFB20684069400621D52068143031
:100E800050E8001F21F0400140E80012002AF5D18F
:100E9000E06BA8B16D494163E06BFFF7C1F9002831
:100EA00011D0E06B416B01B0BDE8F040084783060C
:100EB0000FD593060DD52046BDE8F84000F02CBBB9
:100EC0002046FFF78DFFF8BD2046FFF789FF6564D8
:100ED000F8BD266B2023012E7CD1C6067AD5D60616
:100EE00078D508684868009048694FF002064006C7
:100EF00040D5E16B086840680004000CE8D0A28D82
:100F00008242E5D9E085886920282DD020680C3000
:100F100050E8001F21F4807140E80012002AF5D14A
:100F20002068143050E8001F21F0010140E8001251
:100F3000002AF5D12068143050E8001F21F040014C
:100F400040E80012002AF5D184F842302563206879
:100F50000C3050E8001F21F0100140E80012002A78
:100F6000F5D1E06BFFF738F96663A08DE18D401A8B
:100F700081B22AE0A08DE18D401A81B2E08D002877
:100F8000A6D00029A4D022680C3252E8000F20F429
:100F9000907042E80007002FF5D12068143050E827
:100FA000002F22F0010240E80027002FF5D184F83D
:100FB0004230256320680C3050E8002F22F01002E8
:100FC00040E80023002BF5D166632046FFF7BEFE04
:100FD000F8BDFFE705062BD5150629D594F8410085
:100FE0002128F5D1A068B0F5805F01D12069B0B1AA
:100FF000206A411C2162216800784860E08C401E14
:101000000004000CE084E3D12068C16821F0800175
:10101000C1602068C16841F04001C160D8E7206A22
:101020000088C0F308004860206A801C2062E5E761
:101030004006CDD55006CBD5CA68204622F04002E6
:10104000CA6084F8413000F0E1F8C1E76513000898
:1010500070B5040004D094F84100002510B106E0FA
:10106000012070BD84F84050204600F023F8242071
:1010700084F841002068C16821F40051C160204615
:1010800000F0ACFA2068016921F490410161206808
:10109000416921F02A0141612068C16841F4005191
:1010A000C1606564202084F8410084F842006563D3
:1010B000002070BDF0B585B0002406460094019470
:1010C0000294039400682D49884254D12C488169C8
:1010D00041F480418161816901F480410491816919
:1010E00041F0040181618069264D00F00400049004
:1010F0004FF4007000900220019003200390694695
:101100002846FFF7E9F92815CDE900046946284685
:101110000294FFF7E1F91D4D1B488027C5E9000443
:10112000C5E902472C616C61AC612846EC61FFF7B0
:101130006DF908B1FFF74EF8F5636E62134D124872
:101140004435143801C5102091C5104845F81049A0
:1011500044306C61AC61EC61FFF758F908B1FFF7FE
:1011600039F8B5630022114625206E62FFF716FBA1
:101170002520FFF705FB05B0F0BD00000038014059
:1011800000100240000801405800024064000020A6
:101190007047704770B5044690F84100202801D090
:1011A000022070BD49B342B32162A284E2840020D0
:1011B0006064212384F84130A56B114BAB62A56BB1
:1011C000104BEB62A56B104B2B63A36B5863256828
:1011D00013462A1DA06BFFF747F921686FF0400006
:1011E00008602068143050E8001F41F0800140E89A
:1011F0000012002AF5D1002070BD012070BD000052
:1012000063140008A51400087513000870477047A0
:10121000FEE700000D4808B5416941F00101416158
:101220004069002200F00100009011460E20FFF7F7
:10123000B5FA0E20FFF7A4FA002211460F20FFF79F
:10124000ADFABDE808400F20FFF79ABA001002403F
:1012500070B586B000241848009401940294039459
:10126000816941F010018161816901F010010491EF
:10127000816941F020018161816901F020010491BF
:10128000816941F0040181618069012200F004005C
:101290000A4E5503049029463046FFF70DFA012007
:1012A0000095CDE901040220039069463046FFF71E
:1012B00013F906B070BD000000100240001001409C
:1012C0000C4810B50A4901604FF4E131416000213A
:1012D00081600C22C160C0E904128161C161FFF725
:1012E000B7FE002803D0BDE81040FEF773BF10BD65
:1012F000003801401C000020FEE7FEE77047704701
:10130000FFF7E6B930B58FB028216846FEF711FF28
:1013100014210AA8FEF70DFF01210804CDE90010F1
:101320000024029402250491CDE907504FF4E01007
:1013300009906846FFF740FB08B172B6FEE70F2040
:10134000CDE90A054FF48060CDE90C4002210AA8DE
:101350000E94FFF755FA002801D072B6FEE70FB0E1
:1013600030BD704710B5406A0021C185C184FFF7C8
:1013700037FD10BD70B5446A2068406994F841108B
:10138000C0F3C0100025212904D118B1E5842046FE
:1013900000F0B4F82068406994F84210C0F380105F
:1013A000222904D118B1E585204600F080F8606C50
:1013B00040F0100060642046FFF712FD70BD10B5CC
:1013C0000146406A096809684FF0000289062ED478
:1013D000C28501680C3151E8003F23F4807341E875
:1013E0000034002CF5D10168143151E8003F23F09E
:1013F000010341E80034002CF5D10168143151E8B3
:10140000003F23F0400341E80034002CF5D12021B7
:1014100080F84210016B012909D101680C3151E8B3
:10142000003F23F0100341E80034002CF5D1426363
:10143000016B012902D0FFF7ABFE10BD818DFFF7D4
:1014400085FC10BD10B5406A01214163016B012983
:1014500002D0FFF79EFE10BD818D4908FFF776FC94
:1014600010BD10B50146406A09680968890616D49E
:101470000021C1840168143151E8002F22F080025C
:1014800041E80023002BF5D101680C3151E8002F11
:1014900042F0400241E80023002BF5D110BDFFF7D8
:1014A000B5FE10BD10B5406AFFF7B1FE10BD016872
:1014B0000C3151E8002F22F4907241E80023002BF8
:1014C000F5D10168143151E8002F22F0010241E802
:1014D0000023002BF5D1016B012909D101680C31E2
:1014E00051E8002F22F0100241E80023002BF5D133
:1014F000202180F8421000210163704701680C31FF
:1015000051E8002F22F0C00241E80023002BF5D162
:10151000202180F84110704708B590F84210222928
:1015200001D0022008BD82684FF480539A4201D155
:10153000016921B1816A9A421BD04AB10AE002686E
:10154000816A5268C2F308020A80816A891C08E035
:10155000026972B10268526802F07F020A70816A01
:10156000491C8162C18D491E0904090CC18503D043
:101570001BE002685268F1E70168CA6822F02002A5
:10158000CA600168CA6822F48072CA6001684A6948
:1015900022F001024A61202180F8421000214163BB
:1015A000026B012A03D0FFF7F3FD002008BD0163A1
:1015B00001680C3151E8002F22F0100241E80023AD
:1015C000002BF5D101680A68D20602D50A6849687D
:1015D0000091818DFFF7BAFBE7E7000070B5044684
:1015E00000680169E26821F44051114301612169F9
:1015F000A0680843616908432168CA6841F20C6326
:101600009A430243CA6020684169A26921F440718B
:10161000114341611E492068884202D1FFF796F9C3
:1016200001E0FFF783F900EBC00101EB00126068F5
:1016300064218000B2FBF0F3B3FBF1F36FF0180606
:101640007343B2FBF0F5B2FBF0F605EB83053223F2
:1016500003EB0515B5FBF1F5B6FBF1F605F0F0056A
:1016600005EB0615B2FBF0F6B2FBF0F0B0FBF1F0C3
:101670006FF01802504306EB800003EB0010B0FB44
:10168000F1F0216800F00F002844886070BD000070
:101690000038014038B58162044682850020134637
:1016A0006064222284F84220E56B1B4AAA62E56B43
:1016B0001A4AEA62E56B1A4A2A63E26B50630A46E9
:1016C0002168E06B091DFEF7CFFE206801684068C5
:1016D0000090206948B120680C3050E8001F41F4A8
:1016E000807140E80012002AF5D12068143050E8DB
:1016F000001F41F0010140E80012002AF5D12068E6
:10170000143050E8001F41F0400140E80012002A68
:10171000F5D1002038BD0000BF13000845140008B3
:10172000751300080148FFF75DBB00001C00002096
:10173000FEE70907090E002804DB00F1E02080F82D
:101740000014704700F00F0000F1E02080F8141D35
:10175000704702E008C8121F08C1002AFAD170477A
:101760007047002001E001C1121F002AFBD1704721
:10177000FEF7B6FFFFF7C6FDFFF76AFDFFF74AFD6C
:10178000FFF79EFD0A2202490248FFF7B9FAFEE779
:10179000100000201C0000200102020304050607BF
:1017A00008090A0B0C0D0E0F1010000000000000BD
:1017B00000000102030406070809000000000102FE
:1017C00003040000E41700080000002010000000DF
:1017D00052170008F417000810000020E004000071
:1017E0006217000801000000100000000000000067
:0417F00000127A0069
:04000005080000ED02
:00000001FF
