:020000040800F2
:10000000F8210020990100082B2B00088B1F000805
:10001000292B0008350F00085131000800000000AE
:1000200000000000000000000000000001010008C6
:10003000370F00080000000045010008E92D000806
:10004000B3010008B3010008B3010008B3010008C0
:10005000B3010008B3010008B3010008B3010008B0
:10006000B3010008B3010008B3010008B3010008A0
:10007000B3010008B3010008B3010008B301000890
:10008000B3010008B3010008B3010008B301000880
:10009000B3010008B3010008B3010008B301000870
:1000A000B3010008B3010008B3010008B301000860
:1000B000B3010008B3010008C92F0008B30100080C
:1000C000B3010008B3010008B3010008B301000840
:1000D000B3010008B3010008B3010008B301000830
:1000E000B3010008B3010008B3010008DFF80CD029
:1000F00000F002FC004800478D3E0008F821002077
:10010000224B19680868B0E8F00F80F30988BFF344
:100110006F8F4FF0000080F311884EF00D0E704786
:100120000000000006480068006880F3088862B696
:1001300061B6BFF34F8FBFF36F8F00DF00BF00BF0B
:1001400008ED00E0EFF30980BFF36F8F0F4B1A68E3
:1001500020E9F00F106008B54FF0500080F31188CF
:10016000BFF34F8FBFF36F8F04F06AFD4FF00000B5
:1001700080F31188BDE8084019680868B0E8F00FFE
:1001800080F30988BFF36F8F704700BF1C00002009
:10019000EFF3058070470000064880470648004797
:1001A000FEE7FEE7FEE7FEE7FEE7FEE7FEE7FEE727
:1001B000FEE7FEE7612E0008ED000008202A04DBC0
:1001C000203A21FA02F00021704721FA02F3D040D0
:1001D000C2F12002914008431946704740EA0103EA
:1001E0009B0703D009E008C9121F08C0042AFAD2ED
:1001F00003E011F8013B00F8013B521EF9D27047B1
:10020000D2B201E000F8012B491EFBD27047002258
:10021000F6E710B513460A4604461946FFF7F0FF05
:10022000204610BDF0B480EA0102D40F4200B2EBC8
:10023000410F02D20246084611464A0042D0C30D81
:10024000DDB2C1F3C752AD1A202D35DAC1F3160164
:1002500041F4000204B15242C5F1200602FA06F14F
:100260002A411044B3EBD05F23D0C4B1012DA0EBE1
:10027000C35009DCF0BC4FF0004202EAC352DBB2CB
:1002800000F5000000F022B9400000F1807000EBA2
:10029000C350A0F1807040EAD170490009E04908DC
:1002A00041EAC071A0EBC35000F50000400800EB2C
:1002B000C350F0BC00F001B96142012202EB4101E0
:1002C000001BF6E7F0BC704781F00041AAE780F020
:1002D0000040A7E780EA010210B502F000434000A9
:1002E00022D04A001FD0010E01EB1261C0F356006C
:1002F000C2F3560240F4000042F40002A0FB0220C8
:1003000000047F39140400D0401C50EA124001D48C
:100310004000491EC2B20C0604EBD010401C40083D
:10032000802A02D003E0002010BD20F00100002947
:1003300000DA0020184310BD30B480EA010202F058
:10034000004530F0004221F0004013D090B1C30DC1
:10035000D40DC2F31601C0F31600E41A41F40001F3
:1003600040F400027D34914201D3641C00E0490056
:10037000002C02DA30BC002070474FF4000000234C
:10038000914201D3891A034340084FEA4101F7D152
:1003900051B1914202D14FF0004105E002D24FF03D
:1003A000010101E06FF0010103EBC450284430BCAF
:1003B00000F083B8420005D0C0F3C75252429142C8
:1003C00001DC0020704700EBC1507047C10F80EA8C
:1003D000E0700844CA079623002100F077B800F0C7
:1003E000004230F000400AD0C10D01F56071C0F349
:1003F000160042EA0151C20840071143704700202D
:1004000001467047002801DBC0F10040002901DBF4
:10041000C1F1004181427047002801DBC0F100407A
:10042000002901DBC1F100418842704730B50B461D
:10043000014600202022012409E021FA02F59D4214
:1004400005D303FA02F5491B04FA02F52844151EE8
:10045000A2F10102F1DC30BD2DE9F05F054600207C
:1004600092469B4688460646814640241BE0284625
:10047000414647462246FFF7A1FE53465A46C01A58
:10048000914110D311461846224600F047FA2D1A22
:1004900067EB01084F4622460120002100F03EFA9A
:1004A00017EB00094E41201EA4F10104DFDC484691
:1004B00031462A464346BDE8F09F0029A8BF704751
:1004C000401C490008BF20F00100704710B4B0FA8A
:1004D00080FC00FA0CF050EA010404BF10BC704725
:1004E00049B1CCF1200421FA04F411FA0CF118BF3F
:1004F000012121430843A3EB0C01CB1D4FEA00610E
:100500004FEA102042BF002010BC704700EBC350E0
:1005100010440029A4BF10BC7047401C490008BF0C
:1005200020F0010010BC7047F0B4002802DCF0BCE1
:1005300000207047C0F3C751C0F3160040F400001C
:10054000CA0701D14000491E3F2202EB610500228B
:1005500011464FF4000626FA01F31344D4188442DE
:1005600001D8001B1A464000491C1729F3DD510031
:10057000814202D24FF0FF3100E0002102EBC55072
:10058000F0BCFFF79ABF2DE9FE4F804681EA0300D9
:10059000C00F0C46009021F0004123F00045B8EB5D
:1005A0000200A94105D24046214690461C460B4612
:1005B000024623F00040104347D0270DC7F30A003E
:1005C000C3F30A510290401A019040286BDAC3F33A
:1005D000130040F4801B0098924620B10023D2EB18
:1005E000030A63EB0B0B01985946C0F140025046D9
:1005F00000F094F906460D4650465946019A00F01F
:100600009CF910EB08006141002487EA115284EA4A
:10061000E7731A4340D0009A62B3019A012A4FEA65
:10062000075215DC001B61EB02014FF0004202EAA9
:100630000752CDE90042001C41F5801132462B469D
:1006400000F09CF903B0BDE8F08F40462146F9E781
:10065000001B61EB0201001C41F5801300185B4197
:100660002018A2F5001747EB030140EAD570B61930
:100670006D4111E06D084FEA360645EAC0754FEA54
:100680000752001B61EB0201001C41F58011490873
:100690004FEA30000019514132462B4603B0BDE805
:1006A000F04F00F05CB90098012240000023D0EB2D
:1006B000020263EBE073009821464FEAE074B8EB66
:1006C000000061EB0401E9E783F000435BE781F0A0
:1006D000004158E72DE9FE4F81EA030404F000448D
:1006E00021F0004100944FF0000B23F0004350EA4A
:1006F00001045ED052EA03045BD0C3F30A54C1F391
:100700000A552C44A4F2F3340194A0FB0254C1F323
:10071000130141F48011C3F3130343F4801301FB6D
:10072000024400FB034E840A970A44EA815447EAD4
:100730008357A4FB076802958D0A05FB07854FEADE
:10074000932C04FB0C542705029D4FEA065847EAF8
:100750001637B5EB08056EEB070C870E920E47EACD
:10076000811742EA8312A7FB0201B6EB0B0164EB8F
:1007700000042B0D43EA0C335E1844EB1C50DA46A0
:100780005146E7FB0201C5F313044FEA0B3343EA7A
:1007900014534FEA0432019C43EA0603A4F10C040B
:1007A0000294009CCDE900B400F0E8F803B0BDE885
:1007B000F08F00200146F9E72DE9F04D81EA0304AE
:1007C00004F0004B21F0004514464FF0000A23F0DE
:1007D000004150EA050220D054EA01021DD0C5F3C1
:1007E0000A570246C5F31303C1F31300C1F30A56B7
:1007F00040F4801543F48013A7EB0608101BD6467F
:1008000008F2FD3873EB050002D308F1010801E09E
:1008100092185B41B8F1000F03DA00200146BDE8F1
:10082000F08D00204FF48011064684460EE0171B21
:1008300073EB050705D3121B63EB050306434CEA74
:10084000010C49084FEA300092185B4150EA010759
:10085000EDD152EA030012D082EA040083EA0501D6
:10086000084305D0101BAB4106D20122002306E04D
:1008700000224FF0004302E06FF0010253101AEB28
:1008800006004CEB085110EB0A0041EB0B01BDE8F0
:10089000F04D00F064B8C1F30A52C1F3130140F205
:1008A000FF3341F480119A4202DA0020014670477A
:1008B00040F233439A42A2F2334202DC5242FFF743
:1008C0007DBC00F02BB8000030B5041E71F10004AF
:1008D00004DB4FF00044404264EB0101141E73F14D
:1008E000000405DB1C464FF00043524263EB040357
:1008F000994208BF904230BD064C074D06E0E068C3
:1009000040F0010394E8070098471034AC42F6D356
:10091000FFF7F0FBFC5C00081C5D0008202A04DBEC
:10092000203A00FA02F1002070479140C2F1200302
:1009300020FA03F3194390407047202A06DBCB17B7
:10094000203A41FA02F043EAE07306E041FA02F38A
:10095000D040C2F12002914008431946704710B5BB
:10096000141E73F1000408DA401C41F100019218D2
:100970005B411A4301D120F0010010BD2DE9F04D7B
:1009800092469B4611B1B1FA81F202E0B0FA80F2D0
:1009900020329046FFF7C2FF04460F4640EA0A00A5
:1009A00041EA0B0153465A46084313D0114653EA15
:1009B000010019D0C8F140025046FFF7FFFB054681
:1009C0000E46504659464246FFF7A8FF084305D059
:1009D000012004E020463946BDE8F08D00200543A3
:1009E00046EAE0762C4337430A986305E40AA0EB15
:1009F00008000022FD0A44EA47540A3002D50020CC
:100A00000146E9E7010510196941DDE908450019CA
:100A10006941BDE8F04DA2E70F4B1878002819D1C5
:100A20000E494FF07E500022C1E900028A60C1E900
:100A300003200B4848610B48C1E906020A62C1E97C
:100A400009204FF07C50C1E90B0281F834200120CD
:100A50008A63187070470000F8000020BC1D002059
:100A60000000C8420AD7233C2DE9FF4F83468DB0D2
:100A7000F948DDE91A6800781D46924608B9FFF783
:100A8000CBFFF64C94F8340000287DD02846E1696D
:100A9000FFF71AFCF24D2946FFF71CFC1090304678
:100AA000216AFFF711FC2946FFF714FC1A90404613
:100AB000616AFFF709FC2946FFF70CFC25461B90ED
:100AC00028680390D5E901600190E86800904FF034
:100AD000FF31A069FFF76EFC514605900846FFF70D
:100AE000F9FB0E9981460846FFF7F4FB804659460C
:100AF0000846FFF7EFFB4146FFF794FB4946FFF737
:100B000091FB03F09FFE01464FF07E50FFF714FC6F
:100B1000074601465846FFF7DDFB0D9039460E9813
:100B2000FFF7D8FB0E9039465046FFF7D3FB8246BD
:100B300001990398FFF7CEFB074630460099FFF76F
:100B4000C9FB3946FFF7C0FB0121FFF733FC8146A3
:100B5000DDE90010FFF7BEFB074631460398FFF7BB
:100B6000B9FB3946FFF75EFB0121FFF723FC009933
:100B700080460846FFF7AEFB019908900846FFF74C
:100B8000A9FB8346314600E095E00846FFF7A2FB4B
:100B9000039907460846FFF79DFB3946FFF794FB8C
:100BA0005946FFF791FB0899FFF73CFB0746414682
:100BB0005046FFF78FFB834639460E98FFF78AFBB6
:100BC0005946FFF781FB834639460D98FFF782FBB4
:100BD000074649465046FFF77DFB3946FFF774FB51
:100BE000824649460E98FFF775FB074641460D9829
:100BF000FFF770FB3946FFF767FB276980463946E8
:100C00005846FFF767FB814639465046FFF762FBBF
:100C1000834639464046FFF75DFB924F8246394690
:100C20001098FFF757FB20F00040E16AFFF7EAFB5E
:100C300056D239461A98FFF74DFB20F00040E16A82
:100C4000FFF7E0FB4CD2B84639461B98FFF742FB52
:100C500020F00040E16AFFF7D5FB41D2A76A494680
:100C60003846FFF737FB4146FFF734FBE169FFF7F2
:100C7000D9FAE06159463846FFF72CFB4146FFF7A9
:100C800029FB216AFFF7CEFA206251463846FFF76A
:100C900021FB4146FFF71EFB616AFFF7C3FA606262
:100CA0007149724B002000BF04EB8002D7698F426C
:100CB00010DDD16111E042463146284600F0D8F8F7
:100CC0001E98002101601D9801601C98016011B000
:100CD000BDE8F08F9F4200D9D361401C0328E3DBBD
:100CE00049461098FFF79EFA814659461A98FFF731
:100CF00099FA834651461B98FFF794FA01461B90D8
:100D00000098FFF7E7FA804659460198FFF7E2FAA4
:100D1000074686F000404946FFF7DCFA3946FFF700
:100D2000D3FA4146FFF7D0FA0599FFF7D3FA0399B2
:100D3000FFF778FA824659460098FFF7CBFA8046CB
:100D40001B990198FFF7C6FA074649465046FFF738
:100D5000C1FA3946FFF766FA4146FFF7B5FA059939
:100D6000FFF7B8FA3146FFF75DFA064649460098A4
:100D7000FFF7B0FA804630461B99FFF7ABFA0746FB
:100D800059465046FFF7A6FA3946FFF79DFA414605
:100D9000FFF748FA0599FFF79DFA0199FFF742FA24
:100DA00007464946FFF796FA804659463046FFF710
:100DB00091FA814650461B99FFF78CFA4946FFF796
:100DC00031FA4146FFF780FA0599FFF783FA009957
:100DD000FFF728FA80460146FFF77CFA814639463C
:100DE0000846FFF777FA314606900846FFF772FA91
:100DF000834651460846FFF76DFA5946FFF712FA47
:100E00000699FFF70FFA4946FFF70CFA03F01AFDAF
:100E100001464FF07E50FFF78FFA8146014650465B
:100E2000FFF758FA286049463046FFF753FA6860E2
:100E300049463846FFF74EFAA86049464046FFF754
:100E400049FAE8601CAF284697E80E0001F044FF1D
:100E5000A06B401CA0633AE7F8000020BC1D0020F6
:100E600035FA8E3CE12E65420000A0400000A0C093
:100E70002DE9F05F2B4C4FF4FA689146276B8A46B8
:100E80008346474548D2284DA968FFF71DFA274EEB
:100E900020F00040B04241DA5046E968FFF714FA0A
:100EA00020F00040B04239DA48462969FFF70CFAD1
:100EB00020F00040B04231DA6868401C6860642865
:100EC00010D95846E169FFF7ADF9E0615146206A53
:100ED000FFF7A8F920624946606AFFF7A3F97F1C73
:100EE00027636062C5F808B0C5E903A9206B4045D7
:100EF00012D10F4DE0692946FFF71EFAE06129463D
:100F0000206AFFF719FA20622946606AFFF714FA8F
:100F10006062012084F83400BDE8F09F0020686022
:100F2000E0E70000BC1D0020F8000020CDCCCC3D47
:100F30000000FA44FEE7704772B6FEE770B504465B
:100F400000F0FEF80546601C02D004480078044416
:100F500000F0F6F8401BA042FAD370BD0C00002050
:100F60002DE9F84FDFF8B8910024A9F1040B2346CE
:100F70000F2709F1040AABF1040EC9E00125A540D1
:100F80002A40AA427DD1674ED1F804C0ACEB0608D6
:100F9000B44532D014DCBCF1030F3AD009DCBCF10B
:100FA000000F2AD0BCF1010F1CD0BCF1020F31D1CF
:100FB0001DE0BCF1110F17D0BCF1120F2AD119E0BE
:100FC000B8F5881F19D006DCB8F5803F15D0B8F504
:100FD000801F1FD111E0B8F5001F0ED0B8F5041F17
:100FE00018D10AE0CB6815E0CB681B1D12E0CB6876
:100FF00008330FE0CB680C330CE08B682BB1012B6E
:101000004FF0080303D0456104E0042302E00561CA
:1010100000E00023FF2A01D8064601E000F10406A3
:101020004FEA840501D9A5F12005D6F8008007FA1A
:1010300005FC28EA0C0803FA05F548EA0508C6F895
:1010400000804D68ED0062D5374DAE6946F001066F
:10105000AE61AD6924F0030605F001050095334D3E
:1010600006EB050CDCF80850A607360F07FA06F861
:1010700025EA0805DFF8B880404503D14FF00008A5
:1010800017E044E0DFF8AC80404502D14FF00108A2
:101090000FE0DFF8A480404502D14FF0020808E0DD
:1010A000DFF89880404502D14FF0030801E04FF08F
:1010B000040808FA06F848EA0508CCF808804D68E4
:1010C000D9F80060ED024D4601D5164300E0964385
:1010D0002E604D68DAF80060AD02554601D5164322
:1010E00000E096432E604D68DBF80060AD035D467E
:1010F00001D5164300E096432E604D68DEF800608F
:10110000ED03754601D5164300E096432E60641C3E
:101110000D682A46E5407FF431AFBDE8F88F000046
:1011200008040140000011100010024000000140BE
:1011300000080140000C0140001001400014014073
:1011400001488068704700000C00002070B5040062
:1011500025D094F83D00002520B984F83C50204665
:1011600000F07EFA242084F83D002068016821F018
:10117000010101602068016841F4004101602068BC
:10118000016821F40041016000F036FC4D4A6168BD
:10119000914201D84C4900E04C49884201D20120DB
:1011A00070BD4B492368B0FBF1F15E6826F03F0645
:1011B0000E435E606368934206D94FF496735943B9
:1011C0004FF47A73B1FBF3F12368491C1E6A26F0D1
:1011D0003F06314319626168914210D84900401EB0
:1011E000B0FBF1F2521CC2F30B02042A01D204201C
:1011F00022E0B0FBF1F0401CC0F30B001CE0A26841
:10120000F2B301EBC10303EB0116431EB3FBF6F38C
:101210005B1C43F480431B0549D092B301EBC10230
:1012200002EB0111401EB0FBF1F0401CC0F30B00BB
:1012300040F4804040F400402168CA694CF6FF73D6
:101240009A431043C861D4E907100143206802683B
:1012500022F0C00211430160D4E903010143206878
:10126000826848F2FF339A4311438160D4E9050153
:1012700008432168CA6822F0FF021043C86001E0F9
:101280000EE016E02068016841F00101016025646C
:10129000202084F83D00256384F83E50002070BD76
:1012A00001EB4106431EB3FBF6F35B1CB3E70120E1
:1012B000C2E701EB4101401EB0FBF1F0401CC0F35E
:1012C0000B00B7E7A086010080841E0000093D00E6
:1012D00040420F002DE9FF4F83B00025DDE9107972
:1012E0009A4693460446DDF848800095FFF728FFAC
:1012F000064694F83D0020287CD119230122884914
:101300002046009600F058FF0028F5D194F83C00E4
:1013100001286FD0012084F83C0020680168C907CB
:1013200003D1016841F0010101602068016821F4E6
:1013300000610160222084F83D00402084F83E00D6
:1013400025646762A4F82A90608D20857548E06264
:10135000CDE9008653465A462046049900F02EFEF9
:1013600000287CD1208DDFF8C091202768B10128AA
:1013700014D00228206801681ED041F48061016009
:101380002068416980690090BCE0206841698169FA
:101390000091016841F400710160B3E020680168C8
:1013A00021F48061016072B6206841698169009111
:1013B000016841F400710AE041F40061016072B615
:1013C0002068416981690091016821F480610160B0
:1013D00062B697E0032865D801280CD0022843465E
:1013E0004FF000024946204600960BD000F0E4FE84
:1013F000A8BB0CE091E032464146204600F082FF57
:1014000068BB72E000F0D8FE48BB72B633E02068DB
:10141000016821F48061016072B620680069616A28
:101420000870606A401C6062208D401E2085608DBF
:10143000401E60853D4846F2A8110068B0FBF1F0FF
:10144000C0EBC00000EB80000090401E009007D071
:1014500020684069C04340070DD50098F5E727E0B4
:1014600044F8305F6773A573206940F02000206165
:1014700062B625731CE02068016841F400710160C8
:1014800020680069616A0870606A401C6062218D92
:10149000491E2185618D491E618562B621680969F1
:1014A000017026E032464146204600F02BFF18B17D
:1014B000012007B0BDE8F08F20680069616A0870FC
:1014C000606A401C6062208D401E81B22185608D63
:1014D000401E608520684269D243520712D4032916
:1014E00003D1016821F48061016020680069616AAC
:1014F0000870606A401C6062208D401E2085608DEF
:10150000401E6085208D00287FF464AF84F83D7014
:1015100084F83E5084F83C50CBE70220C9E7000035
:10152000020010000000FFFF04000100180000206E
:101530002DE9FF4F83B09A46DDE9119793460446A3
:10154000DDF84080FFF7FCFD054694F83D002028BB
:101550007FD11923012240492046009500F02CFE3E
:10156000002876D194F83C00012872D0012084F83C
:101570003C0020680168C90703D1016841F00101FE
:1015800001602068016821F400610160212084F875
:101590003D00402084F83E0000262664C4F82480E4
:1015A000A4F82A90608D20852C48E062CDE9007572
:1015B00053465A462046049900F07EFD70B930E04B
:1015C0002A463946204600F0D5FE58B1206C042842
:1015D00004D12068016841F400710160012007B066
:1015E000BDE8F08F606A216800780861606A401C7D
:1015F0006062218D491E89B22185628D521E6285ED
:1016000022685369DB435B070BD469B10078106132
:10161000606A401C6062208D401E2085608D401EE7
:101620006085208D0028CBD12A463946204600F01F
:1016300097FD0028CAD154F83D0B016841F40071B0
:101640000160202004F81E09E67766770020C6E7CF
:10165000FFE70220C3E70000020010000000FFFFC8
:1016600030B585B0002100910191029103911E4D8A
:1016700003681E4C122103221D48AB4216D1A369F8
:1016800043F00803A361A369039203F008030493E2
:10169000C023CDE900316946FFF762FCE06940F400
:1016A0000010E061E06900F4001019E0114DAB4258
:1016B00017D1A36943F00803A361A369039203F060
:1016C000080304934FF44063CDE900316946FFF706
:1016D00047FCE06940F48000E061E06900F48000CC
:1016E000049005B030BD00000054004000100240DE
:1016F000000C014000580040024881680278114403
:10170000816070470C000020074810B5016841F067
:1017100010010160032000F0A7F80F2000F006F888
:1017200000F050F8002010BD0020024030B5054602
:101730001F4887B0C16941F00401C161C06906A9B1
:1017400000F00400009001A800F036F90498B0B150
:1017500000F052F940001749174AB0FBF1F1174861
:10176000491E0260416040F2E7320021C0E90321D6
:101770008160816100F008FB040003D015E000F0F7
:101780003BF9E8E70D4800F02DFB04000DD11E20C9
:1017900000F03CF8102D07D2002229461E2000F050
:1017A00043F80748056000E0012407B0204630BD3B
:1017B0000010024040420F0000080040B801002025
:1017C000100000200F4808B5816941F001018161D6
:1017D000816901F001010091C16941F08051C1614D
:1017E000C069002200F0805000900F21901E00F090
:1017F0001BF80548416821F0E06141F0007141604B
:1018000008BD00000010024000000140002809DB74
:1018100000F01F02012191404009800000F1E0200A
:10182000C0F8001170470000F0B40E4B1B680C4666
:10183000C3F30223C3F10705042D00D90425191DA4
:10184000072901D2002300E0DB1E012606FA05F17C
:10185000491E214099409E40761E16403143F0BCFF
:1018600001F0C3BC0CED00E0064900F00702086877
:101870004FF6FF03184040EA0220034A1043086075
:10188000704700000CED00E00000FA052DE9F0477C
:101890000F46050061D0434E306800F00700B842A3
:1018A00009D2306820F0070038433060306800F01B
:1018B0000700B84251D128683B4C810712D5400738
:1018C00003D5606840F4E06060602878000703D5C5
:1018D000606840F4605060606068A96820F0F000C3
:1018E000084360602878C00728D06868012810D0B5
:1018F0002168022810D0890700292EDA616821F0BA
:10190000030101436160FFF71BFC804641F2883907
:101910000DE021688903EFE78901EDE7FFF710FC8F
:10192000A0EB0801494502D90320BDE8F0876068B3
:10193000696800F00C00B0EB810FEFD1306800F067
:101940000700B8420BD9306820F0070038433060F8
:10195000306800F00700B84201D00120E5E72878A0
:10196000400705D56068E96820F4E06008436060DE
:101970002878000706D56068296920F4605040EA9D
:10198000C100606000F048F86168084AC1F30311C3
:10199000515CC8400649086006480068FFF7C6FE6B
:1019A0000020C2E70020024000100240CE5600088E
:1019B00018000020100000200F2202600C4A53681B
:1019C00003F003034360536803F0F003836053683C
:1019D00003F4E063C36052684FF4E06303EAD202A9
:1019E00002610448006800F00700086070470000CA
:1019F0000010024000200240044805490068496880
:101A0000044AC1F30221515CC8407047180000200D
:101A100000100240DE5600080E4A51680E4801F0E0
:101A20000C03042B11D0082B0FD10C48C1F38343B6
:101A3000C903C05C0AD55168084AC1F34041921EEF
:101A4000515C054A5043B0FBF1F0704704494843EC
:101A5000704700000010024000127A00BE560008D5
:101A600000093D002DE9F84F040070D02078C04DEA
:101A7000C00749D06868C0F38100012807D06868B2
:101A8000C0F38100022809D16868C00306D5286820
:101A9000800339D560680028E7D035E06068B0F58C
:101AA000803F0BD010B1B0F5A02F11D0286820F4E2
:101AB00080302860286820F4802002E0286840F404
:101AC00080302860606890B1FFF73AFB06460AE074
:101AD000286840F480202860F0E700BFFFF730FB63
:101AE000801B642873D828688003F7D50CE0FFF7C3
:101AF00027FB064605E000BFFFF722FB801B64289A
:101B0000F0D828688003F7D420789A4E80074FF0E9
:101B100001094FF0000839D5686810F00C0F07D0A4
:101B20006868C0F38100022809D16868C00306D440
:101B30002868800714D52069012808D110E02069A1
:101B4000B0B1C6F80090FFF7FBFA074605E00AE1DE
:101B5000FFF7F6FAC01B0228C4D828688007F7D51B
:101B60002868616920F0F80040EAC10028600DE0B3
:101B7000C6F80080FFF7E4FA074604E0FFF7E0FA52
:101B8000C01B022823D828688007F7D420780007D4
:101B90002CD57948A169D9B1C0F80090FFF7D0FAE7
:101BA000074604E0FFF7CCFAC01B02280FD8686A8A
:101BB0008007F7D571484FF4FA510068B0FBF1F097
:101BC000009000BF0098411E0091FAD20EE080E024
:101BD000C0F80080FFF7B4FA074604E0FFF7B0FA58
:101BE000C01B022875D8686A8007F7D420784007A0
:101BF00060D5E8690027C00008D4E86940F080504B
:101C0000E861E869012700F0805000905C480168B5
:101C1000C90513D40168834641F480710160FFF760
:101C20008FFA824606E000BFFFF78AFAA0EB0A00AF
:101C300064284ED8DBF80000C005F5D5E06801281F
:101C40000AD008B1052813D0286A20F001002862C4
:101C5000286A20F0040002E0286A40F001002862AF
:101C6000E06841F2883B98B1FFF76AFA82460BE0E0
:101C7000286A40F004002862EEE700BFFFF760FA30
:101C8000A0EB0A0159455AD8286A8007F6D50CE01E
:101C9000FFF756FA824605E0FFF752FAA0EB0A0179
:101CA00059454CD8286A8007F6D41FB1E86920F05E
:101CB0008050E861E06988B36968C1F38101022955
:101CC00044D00228C6F8608004D0FFF739FA0446F1
:101CD00038E034E0FFF734FA074604E0FFF730FA63
:101CE000C01B02282BD828688001F7D4206AB0F5E1
:101CF000803F05D16868A16820F40030084368601F
:101D0000D4E908010843696821F474110843686044
:101D1000C6F86090FFF714FA044606E025E000BF1D
:101D2000FFF70EFA001B022809D828688001F7D5B2
:101D30001BE000BFFFF704FA001B022802D90320B2
:101D4000BDE8F88F28688001F4D40EE00128F7D0B0
:101D50006868226A00F48031914204D1616A00F41B
:101D60007010884201D00120EAE70020E8E7000077
:101D7000001002400000424280044242180000204D
:101D8000007000407047704710B5040003D094F80D
:101D90003D0010B107E0012010BD002084F83C0098
:101DA000204600F01EF8022084F83D00211D206826
:101DB00001F010F9012084F8460084F83E0084F810
:101DC0003F0084F8400084F8410084F8420084F821
:101DD000430084F8440084F8450084F83D00002066
:101DE00010BD704790F83D10012901D001207047C7
:101DF000022180F83D100168CA6842F00102CA6001
:101E000000680B49884208D0B0F1804F05D00949DD
:101E1000884202D00849884204D1816801F0070154
:101E2000062903D0016841F00101016000207047DC
:101E3000002C0140000400400008004070472DE9DC
:101E4000F04104460068C66805694FF00007A9071D
:101E500013D5B10711D5F91E016101202077206843
:101E600080698007204602D0FFF7E8FF04E000F019
:101E70007EF8204600F07CF82777680716D57007B3
:101E800014D521686FF004000861022020772068D3
:101E9000806910F4407F204602D0FFF7CFFF04E0B6
:101EA00000F065F8204600F063F82777280715D57D
:101EB000300713D521686FF00800086104202077EF
:101EC0002068C0698007204602D0FFF7B7FF04E012
:101ED00000F04DF8204600F04BF82777E80616D5BD
:101EE000F00614D521686FF01000086108202077F3
:101EF0002068C06910F4407F204602D0FFF79EFFA3
:101F000004E000F034F8204600F032F82777E807C4
:101F100008D0F00706D021686FF001000861204664
:101F200000F028F8280608D5300606D521686FF09D
:101F3000800008612046FFF725FF680608D5700677
:101F400006D521686FF040000861204600F01CF8BB
:101F5000A8060AD5B00608D521686FF020000861F0
:101F60002046BDE8F041FFF70EBFBDE8F0817047A5
:101F70007047000000680349884201D1FFF7BCBBED
:101F800070470000000800407047FEE701684A699A
:101F9000D24352050FD46FF480624A61002140F8A9
:101FA000301F202242738173026942F004020261F1
:101FB0000173012070470020704700002DE9F84FA1
:101FC0000446006889460B9D01689846174641F40F
:101FD000806101602068016841F4807101600095B2
:101FE0004FF0011B0022594620460A9B00F0E4F8FE
:101FF0004FF4007A40B120680068C00501D5C4F8EC
:1020000040A00320BDE8F88F216809F0FE000861B8
:102010002B46284920460A9A00F016F9F0BB2068A2
:102020004169806900902A4620460A9900F0A2F989
:1020300040B1206C04283AD12068016841F4007155
:10204000016034E0FEB2B8F1010F09D02168380A0E
:1020500008612A4620460A9900F08CF90028E8D148
:10206000206806612A4620460A9900F083F9002874
:10207000DFD12068016841F4807101600095002281
:10208000594620460A9B00F097F80028B3D12168F2
:1020900009F0FF0040F00100086100E007E02B4676
:1020A000044920460A9A00F0CFF80028AAD001205F
:1020B000A8E70000020001002DE9F843044600688B
:1020C0000D46DDE9089701689846164641F480718F
:1020D00001604B4600224FF001112046009700F0AE
:1020E0006BF848B120680068C00502D54FF4007055
:1020F00020640320BDE8F883216805F0FE00086134
:102100003B464A461549204600F09EF888B92068AB
:102110004169806900903A464946204600F02AF914
:1021200048B1206C042804D12068016841F4007192
:1021300001600120DEE7F5B2B8F1010F09D0216896
:10214000300A08613A464946204600F013F9002853
:10215000E7D1206805610020CCE700000200010003
:1021600070B516460D4604461EE02046FFF70EFFEA
:1021700008B1012070BD681C16D0FEF7E1FF801B7E
:10218000A84200D885B920684069C04340070BD5F4
:10219000002044F8300F20216173A073216941F0C1
:1021A000200121612073E4E720684069C0434007B3
:1021B000DBD4002070BD00002DE9F047984617469B
:1021C0000D460446C1F30746DDF820902AE000BF23
:1021D000B8F1FF3F26D0FEF7B3FFA0EB0901414560
:1021E00002D8B8F1000F1DD12068012E16D08069E9
:1021F00025EA00000004000C12D00020B84211D1E2
:10220000002044F8300F20216173A073216941F050
:102210002001216120730120BDE8F0874069E7E7D4
:102220000120EBE72068012E0AD0806925EA000032
:102230000004000C06D00020B842C9D00020EBE713
:102240004069F3E70120F7E72DE9F0479846164685
:102250000D4604464FF000094FF0200AC1F307472E
:1022600023E020684069C043400515D42068016818
:1022700041F40071016021686FF480604861C4F826
:10228000309084F83DA084F83E90216C41F0040128
:10229000216484F83C9021E0701C06D0FEF750FFCA
:1022A000A0EB0800B04203D816B1012F1FD021E0E7
:1022B0002068012F15D0806925EA00000004000C79
:1022C00018D000BF44F8309F84F80DA084F80E9019
:1022D000216941F02001216184F80C900120BDE8C2
:1022E000F087406925EA00000004000CEAD120686C
:1022F000406901E02068806925EA00000004000CC4
:10230000AFD1ECE72DE9F041002590460E4604469A
:10231000202728E04069C043C0060CD454F8301B85
:102320006FF01000486144F810596777A577206A6C
:102330002062257714E0FEF703FFA0EB0800B0420F
:1023400000D886B920684069C04340060BD544F8E0
:10235000305F6773A573206940F02000206125730A
:102360000120BDE8F08120684169C9434906D1D404
:102370000020F6E770B516460D4604461EE02046DE
:10238000FFF704FE08B1012070BD681C16D0FEF7EF
:10239000D7FE801BA84200D885B920684069C04399
:1023A00000060BD5002044F8300F20216173A07384
:1023B000216941F0200121612073E4E72068406930
:1023C000C0430006DBD4002070BD000070B51A4C7D
:1023D000207800282ED1194D194E00232A46314667
:1023E000184800F0CDF8174800232A4631464030FF
:1023F00000F0C6F813484FF07E532A46314680302D
:1024000000F0BEF8104D114E0E4800232A4631460A
:10241000C03000F0B5F800232A4631460C4800F0E1
:10242000AFF80B4800232A463146403000F0A8F8A8
:102430000120207070BD0000E8000020CDCCCC3D14
:102440000AD7233C3C1C00200AD7A33B17B7D1383E
:102450003C1D00202DE9FF4F81B083464348DDE954
:102460001454DDE91276DDE910980078924608B937
:10247000FFF7ACFF002259463D4800F097F8C9F835
:1024800000003B4800224030029900F08FF8C8F865
:102490000000374800225146803000F087F838604D
:1024A00033480122C030049900F080F800900122E6
:1024B00030480E9900F07AF883462E4801224030C9
:1024C0000F9900F073F882460021009800F0BEFDDD
:1024D00030600121584600F0B9FD286002215046C5
:1024E00000F0B4FD20604FF04042D9F80010504297
:1024F000914201D9114602E0814200DD0146C9F84E
:102500000010D8F80010914201D9114602E0814232
:1025100000DD0146C8F800103968914201D9104623
:1025200002E0814200DC08463860134A31681348F3
:10253000914201D9114602E0814200DD014631603D
:102540002968914201D9114602E0814200DD01462D
:1025500029602168914201D9104602E0814200DCE5
:102560000846206005B0BDE8F08F0000E8000020BC
:102570003C1C00203C1D002000007AC300007A4370
:1025800080E80E004FF07E5200214361C0E9032134
:1025900080F82C100163C0E90D12C16300EB8102C9
:1025A000491C93610529F9DB704700002DE9F04FC4
:1025B000884690F82C108BB000EB81010446C1F8DE
:1025C000188090F82C0015460521401CB0FBF1F254
:1025D00001FB120084F82C0040466169FDF774FE8F
:1025E00020F00040DFF8F4B17D4FDFF8F8A14FF0A4
:1025F0007E590590002D7DD00020054604EB850115
:102600008969FDF70FFE6D1C052DF7DB3946FDF7D7
:1026100093FE00263546009004EB85000099806902
:10262000FDF752FE0146FDF755FE3146FDF7FAFD76
:102630006D1C0646052DEFDB6949FDF77DFE02F0B6
:1026400001F90890142204F118016846FDF7C6FD4F
:10265000002501266F4601E06E1C0FE057F826109A
:1026600057F82500FDF7D8FE07D257F8250057F890
:10267000261047F8251047F82600761C052EEDDBBE
:1026800000266D1C042DE7DB029D40462946FDF720
:102690001BFE20F0004002904FF082400190504914
:1026A0000898FDF717FE009000274F490598FDF7A1
:1026B000B3FE01D2012709E001990598FDF7ACFEB0
:1026C00004D300990298FDF7A7FE16D2616B012092
:1026D000491CE6636163AFB1C4F838A0206B401CAD
:1026E00020632168E068FDF79DFD6561E060A068FA
:1026F0000BB000E02AE0BDE8F08F6663E06B401CA1
:10270000E06315E000B991B13848A063206B5946E9
:10271000401C20634046FDF7DDFD0646344928464F
:10272000FDF7D8FD3146FDF77DFD804620E03046BF
:10273000142807D92F49A06BFDF7CCFD2E49FDF7D2
:1027400071FDA063A16B494510DB11E05946FDF70F
:1027500063FE01D2A7630BE02849A06BFDF7BAFD29
:102760002749FDF75FFDA063484501DAC4F83890BA
:10277000C4F81480A16B514502DDC4F838A003E011
:10278000494501DAC4F838902168E068FDF74AFD50
:102790000746A16B6068FDF79DFD01463846FDF7D1
:1027A00041FD01463846FDF7C7FD2061A568064694
:1027B00029464046FDF788FD3146FDF78BFD294649
:1027C000FDF730FD0546A06031464846FDF77CFD2B
:1027D0003946FDF77FFDE060284689E7CDCC4C3EC9
:1027E0000000A040005043470000A0410000FA4410
:1027F000CDCC4C3F3333333F9A99993E6666663F62
:10280000CDCCCC3DF0B585B0012504A8CDE90005BF
:1028100064242B467522D02102942548FEF75AFDE8
:1028200018B99DF81000682802D0012005B0F0BD4D
:10283000002703AE8DF80C700096CDE901540123FA
:102840006B22D0211A48FEF773FE0A20FEF776FBB2
:1028500007208DF80C000096CDE9015401231922C0
:10286000D0211348FEF764FE03208DF80C0000967B
:10287000CDE9015401231A22D0210D48FEF758FE5C
:102880008DF80C700096CDE9015401231B22D02154
:102890000748FEF74DFE8DF80C700096CDE9015407
:1028A00001231C22D0210248FEF742FE0020BDE792
:1028B000100100202DE9F04385B003AE6424062505
:1028C0000096CDE9015401233B22D0213448FEF784
:1028D00001FDBDF80C00334F40BADFF8CC803880E2
:1028E000BDF80E00DFF8C49040BAA8F80000BDF8AB
:1028F0001000012340BAA9F800000096CDE9015468
:102900004322D0212648FEF7E5FCBDF80C0040BA72
:1029100006B227480680BDF80E0040BA05B2254829
:102920000580BDF8100040BA04B223480480B7F90E
:102930000000FDF74BFD6FF00D073946FDF73AFD3E
:102940001E490860B8F90000FDF740FD3946FDF763
:1029500031FD1B490860B9F90000FDF737FD394624
:10296000FDF728FD174908603046FDF72FFD164E8C
:102970003146FDF7E1FC154908602846FDF726FDC4
:102980003146FDF7D9FC124908602046FDF71EFDCF
:102990003146FDF7D1FC0F49086005B0BDE8F08372
:1029A000100100209E000020A0000020A2000020B6
:1029B000A4000020A6000020A8000020AC000020F9
:1029C000B0000020B400002000000343B800002045
:1029D000BC000020C000002010B592B0FFF712FF2D
:1029E000FFF7F4FCFEF718F800F0C0F800F018F953
:1029F00000F09CF8144A0021144801F093FA144C9A
:102A00002421A0606846FDF702FC0F4924222431EE
:102A10006846FDF7E3FB6A4600210E4801F082FAA2
:102A20002060242109A8FDF7F2FB07492422483140
:102A300009A8FDF7D3FB09AA0021074801F072FAA3
:102A4000606012B010BD000050560008E12D000873
:102A500000000020652E0008192F0008114808B555
:102A6000816941F010018161816901F010010091DB
:102A7000816941F020018161816901F020010091AB
:102A8000816941F008018161816901F008010091CB
:102A9000816941F004018161806900F004000090C7
:102AA00008BD0000001002400D4810B50B49016040
:102AB0000C49416000214FF480428160C0E903125B
:102AC00041618161C1610162FEF740FB002803D0D2
:102AD000BDE81040FEF730BA10BD000000540040C1
:102AE00010010020801A06000D4810B50B49016046
:102AF0000C49416000214FF480428160C0E903121B
:102B000041618161C1610162FEF720FB002803D0B1
:102B1000BDE81040FEF710BA10BD0000005800409C
:102B200064010020801A0600FEE7FEE7002000F0A6
:102B300001B8000070B506465FF0000404F1B00073
:102B4000C0B200F007FB002000F004FB102000F0F2
:102B500001FB0025304600F00FFB6D1CEDB2802D0F
:102B6000F8D3641CE4B2082CE8D370BD10B564201F
:102B7000FEF7E4F9AE2000F0EDFA202000F0EAFACA
:102B8000102000F0E7FAB02000F0E4FAC82000F0CE
:102B9000E1FA002000F0DEFA102000F0DBFA40201D
:102BA00000F0D8FA812000F0D5FAFF2000F0D2FA28
:102BB000A12000F0CFFAA62000F0CCFAA82000F067
:102BC000C9FA3F2000F0C6FAA42000F0C3FAD320CF
:102BD00000F0C0FA002000F0BDFAD52000F0BAFAEB
:102BE000F02000F0B7FAD92000F0B4FA222000F06B
:102BF000B1FADA2000F0AEFA122000F0ABFADB20D6
:102C000000F0A8FA202000F0A5FA8D2000F0A2FA2A
:102C1000142000F09FFABDE81040AF2000F09ABAEF
:102C200010B58D2000F096FA142000F093FABDE85C
:102C30001040AF2000F08EBA10B50446B031C8B2D3
:102C400000F088FA102040EA141000F083FA04F033
:102C50000F00BDE8104040F0010000F07BBA00001A
:102C60002DE9F041203A0024D5B20E4607465F2DEB
:102C700018D2FFF7E1FF0C4800EB0515285D00F0C6
:102C80007BFA641CE4B2082CF8D3761CF1B2384607
:102C9000FFF7D2FF04E0285D00F06EFA641CE4B296
:102CA000102CF8D3BDE8F081E65600082DE9F0417C
:102CB00016460F460546002409E0772D07D8394609
:102CC0002846FFF7CDFF0835641CEDB2E4B2325D53
:102CD000002AF2D1BDE8F0812DE9FF4F83B08B4689
:102CE00001680091D0E90161D0F80C8015468A4650
:102CF0000846FDF7EFFA0446314601900846FDF715
:102D0000E9FA2146FDF78EFA0121FDF753FB4FF05A
:102D10007E573946FDF7DBFA044641465046FDF73B
:102D2000D9FA814631460098FDF7D4FA4946FDF7B5
:102D300079FA0121FDF73EFB214600F079FFDFF82B
:102D400098904946FDF7C6FACBF800003146404658
:102D5000FDF7C0FA044651460098FDF7BBFA21463C
:102D6000FDF7B2FA0121FDF725FB20F00041B94241
:102D700003DB1A4961F31E0004E000F0C7FE494678
:102D8000FDF7A8FA414628600846FDF7A3FA014678
:102D90000198FDF747FA0121FDF70CFB3946FDF7D5
:102DA00096FA044651463046FDF794FA05464146E8
:102DB0000098FDF78FFA2946FDF734FA0121FDF757
:102DC000F9FA214600F034FF4946FDF783FA0699E7
:102DD000086007B0BDE8F08FE12E65420000B44204
:102DE000012001F064F8FBE710B54FF0E020006926
:102DF00002F078FA012803D0BDE8104001F0A6BF28
:102E000010BD30B58FB028216846FDF700FA1421B7
:102E10000AA8FDF7FCF901210804CDE900100024FF
:102E2000029402250491CDE907504FF4E010099077
:102E30006846FEF717FE08B172B6FEE70F20CDE92F
:102E40000A054FF48060CDE90C4002210AA80E94D7
:102E5000FEF71CFD002801D072B6FEE70FB030BDB2
:102E6000704700001D4C1E4D1E4EDFF87C901F4F1A
:102E7000DFF87C80DFF87CA0DFF87CB088B000BF92
:102E8000FFF718FDCDE90654CDE90496DAF80020E5
:102E9000DBF80010039719488DE80601036818480D
:102EA00002681848016818480068FFF7D3FA0DF166
:102EB000040C2068154B164A16498CE80F00286848
:102EC00000903368D9F800203968D8F80000FDF781
:102ED000CBFD0A2000F0EBFFD2E70000D800002075
:102EE000D4000020D0000020CC000020C80000202A
:102EF000C4000020C0000020BC000020B80000205A
:102F0000B4000020B0000020AC000020E40000204D
:102F1000E0000020DC0000201FB51E4C1E4D1F4E9F
:102F20001F4F2078401CC0B22070322803D3FFF717
:102F3000FDFD002020702868FDF751FA02460B467F
:102F400018A1684600F02AF900216A460846FFF7F2
:102F5000ADFE3068FDF743FA02460B4614A1684601
:102F600000F01CF96A4602210020FFF79FFE386836
:102F7000FDF735FA02460B4610A1684600F00EF93F
:102F80006A4604210020FFF791FE0A2000F08FFF1F
:102F9000C7E700009C000020DC000020E0000020CB
:102FA000E4000020726F6C6C3A252E316600000040
:102FB00070697463683A252E316600007961773A4A
:102FC000252E3166000000000148FEF738BF0000E2
:102FD000B8010020F0B50268194B1A4C1A4D4FF099
:102FE0008047984205D0B84203D0A04201D0A84201
:102FF00003D122F070064A683243984205D0B842A5
:1030000003D0A04201D0A84203D122F44074CA6880
:1030100022434C6922F08002224302608A68C26225
:103020000A688262984201D1096901630121416104
:103030000169C90703D0016921F001010161F0BDF7
:10304000002C014000040040000800402DE9FE4F24
:103050003A4AC1EB011302EB830B394B5A5C4BF834
:1030600022000F20521CB2FBF0F400FB1420585435
:103070008246981D425C0F2A01D2521C42544FF0E6
:103080000009CDF80890CDF80490C8464E464D464C
:103090004C46475C23E000BFAAEB04000F210E3032
:1030A00090FBF1F201FB1200052C5BF82000009070
:1030B00006DA01464846FDF7B5F8814608F10108F1
:1030C0000A2C05DA00990298FDF7ACF8761C0290FC
:1030D000DDE90010FDF7A6F8641C6D1C0190A74205
:1030E000DADC4046FDF772F901464846FDF724F95F
:1030F00007463046FDF76AF901460298FDF71CF9CC
:1031000006462846FDF762F901460198FDF714F9D5
:103110000C49FDF7DFF804460B493046FDF7DAF8B5
:1031200005460A493846FDF7D5F82946FDF77AF8ED
:1031300003B02146BDE8F04FFDF774B8D41A002063
:10314000E9000020CDCCCC3D9A99993E9A99193F3F
:10315000FEE7000001B584B001214FF47A7204A8A3
:103160008DE807000B46002278210248FEF7E0F9BF
:1031700005B000BD6401002001B584B001216422C6
:1031800004A88DE807000B46402278210248FEF78C
:10319000CFF905B000BD0000640100200FB4084B5A
:1031A00010B504A902AA039800F014F9044602A974
:1031B000002000F0A6FC204610BC5DF814FB0000C7
:1031C000033B00084100080218BF04200A0E18BF84
:1031D00040F001004FF07F4232EA010108BF40F0A9
:1031E0000200012808BF052070470907090E0028C2
:1031F00004DB00F1E02080F80014704700F00F00BD
:1032000000F1E02080F8141D70470121FDF7D2B8CD
:10321000FDF708B800210846FDF78EB86FF05E0193
:103220000807FDF7C7B802E008C8121F08C1002A46
:10323000FAD170477047002001E001C1121F002A37
:10324000FBD1704701490860704700000C01002065
:103250002DE9FF5F82B00021DDE90430020DDDF8C9
:1032600040B0034318D044F61050A2F2FF3242435C
:103270001514119801281FD0A5EB0B00401C5FEA24
:10328000000A4FF000064E4FDFF83891B046504626
:1032900015D5CAF1000413E0119801244AA30128AE
:1032A00001D16FEA0B010298119AC0E90031C0E91F
:1032B000024206B0BDE8F09FCBF10000DFE7044614
:1032C0000021404A491842EB0450CDE9001012E0B9
:1032D000E00707D032463B4640464946FDF7FAF93B
:1032E0008046894632463B4610461946FDF7F2F9BC
:1032F00006460F466410002CEAD1DDE90401DDE941
:103300000023BAF1000F06DAFDF7E4F942464B4616
:10331000FDF7E0F905E0FDF74FFA42464B46FDF7B1
:103320004BFA04460E460022284BFDF7CDFA03D88F
:103330004FF0FF30014607E00022254B2046314682
:10334000FDF721F9FDF7A7FA102409E0002C0ADBAC
:103350000A220023FDF780F8039B30321A55641EC1
:1033600050EA0102F2D1641C039AC4F1110314441F
:10337000119A012A03D0012208430DD10AE0084323
:1033800004D000204FF0110B119072E7A3EB0B0556
:103390006D1E0DE05B4504DD4FF0000205F10105F7
:1033A00004E003DA4FF00002A5F10105002AECD099
:1033B00002981199C0E90231C0E9004579E700009F
:1033C000000014400000F03F300000000000F04317
:1033D0000000E03F2DE9FF4F95B09B468946064629
:1033E00000250FE2252877D100242746F84A01213D
:1033F000059400E0044316F8013F203B01FA03F076
:103400001042F7D130782A2811D06FF02F0330788E
:10341000A0F13002092A16D8059A44F0020402EB02
:10342000820203EB42021044761C0590EFE759F844
:10343000042B0592002A03DA504244F4005405900C
:1034400044F00204761C30782E2816D116F8010FAD
:1034500044F004042A280DD06FF02F023078A0F138
:103460003003092B09D807EB870302EB4303C71886
:10347000761CF3E759F8047B761C30786C280FD063
:1034800006DC4C2817D068280DD06A2814D104E037
:10349000742810D07A280FD10DE044F400140AE00B
:1034A00044F4801401E044F440147278824202D162
:1034B00004F58014761C761C307866280BD013DC5B
:1034C000582877D009DC002875D04528F6D0462842
:1034D000F4D047281AD19DE118E0632835D064283C
:1034E00079D0652812D195E1702873D008DC67285F
:1034F000F1D069286FD06E280DD06F2806D1B5E0C5
:1035000073282CD0752875D0782874D05A4617990E
:1035100090476D1C75E1C4F30250022809D00328BE
:103520000DD0D9F8001004280DD00D6009F1040960
:1035300067E1D9F80010EA17C1E90052F6E7D9F8B7
:1035400000100D80F2E70D70F0E719F8041B8DF8FC
:10355000001000208DF80100EA46012003E059F830
:1035600004AB4FF0FF3061074FF0000102D40DE0D3
:1035700008F101018846B9420FDA8045F8DB1AF8F4
:1035800008100029F4D108E008F1010188468142C1
:10359000FADB1AF808100029F6D105985B46A0EB73
:1035A000080721463846179A00F094FA284400EBA1
:1035B000080507E04DE029E10DE01AF8010B5A4635
:1035C00017999047B8F10108F7D25B462146384673
:1035D000179A13E142E00A220092C4F302524FF01C
:1035E000000A022A08D059F804CB032A4FEAEC71EA
:1035F0000AD00DE029E02AE009F1070121F00702D5
:10360000F2E802C1914609E00FFA8CFC4FEAEC7136
:10361000042A03D14FFA8CFC4FEAEC71002907DA37
:103620000A460021DCF1000C61EB02012D2202E0D0
:10363000220504D52B228DF80420012203E0E207A5
:1036400001D02022F7E7904659E00A2102E010223B
:103650000DE010214FF0000A00910BE010224FF016
:10366000000A44F004040827009203E008224FF007
:10367000000A0092C4F30252022A05D059F804CB82
:103680000021032A08D009E009F1070121F007020F
:10369000F2E802C1914605E01FFA8CFC042A01D130
:1036A0000CF0FF0C4FF00008220728D5702806D038
:1036B000009B83F0100353EA0A0305D00EE040227A
:1036C0008DF80420012208E05CEA010206D03022D5
:1036D0008DF804208DF8050002229046009B83F0AF
:1036E000080353EA0A030AD15CEA010201D1620726
:1036F00005D530228DF804204FF001087F1E582890
:1037000004D034A003900EA802900DE036A0F9E793
:1037100053466046009AFCF79FFE84460398825CFD
:103720000298401E029002705CEA0100F0D10298FB
:1037300006A9081A00F1200A600702D524F4803493
:1037400000E00127574502DDA7EB0A0000E000205A
:1037500000EB0A01009005984144401A0590E003EF
:1037600006D45B462146179A059800F0B3F9054444
:10377000002706E001A85A46C05D179990476D1CC6
:103780007F1C4745F6DBE0030CD55B462146179AC4
:10379000059800F09FF9054404E030205A46179937
:1037A00090476D1C0099481E00900029F5DC08E048
:1037B000029802995A460078491C0291179990473D
:1037C0006D1CBAF10001AAF1010AF1DC65E100000B
:1037D00009280100303132333435363738396162E7
:1037E00063646566000000003031323334353637AB
:1037F00038394142434445460000000000F058F982
:103800000544761C307800287FF4ECAD19B02846CA
:10381000BDE8F08F620700D4062709F1070222F005
:10382000070CFCE80223E14603F000485FEA080CBD
:1038300002D00FF2702C0DE05FEA045C02D50FF2AB
:10384000682C07E05FEAC47C02D00FF2602C01E034
:10385000AFF2700C4FF0FF3823F00043CDF850C0AA
:1038600065280CD006DC452809D046281DD04728FD
:103870003DD13DE0662818D067287ED138E0002190
:10388000112F01DB112000E0781CCDE9000106A911
:103890000EA8FFF7DDFCDDE90F010E9A0391002170
:1038A000009207F1010A04914DE04FF000400097AB
:1038B000CDE9011006A90EA8FFF7CAFCDDE90F0249
:1038C00003920E9B11990022DDF80CA00093049244
:1038D00011B9791C00EB010AB7EB0A0004D4C0F15E
:1038E000FF3007F1010A0490AAEB0700019044E0C1
:1038F000012F00DA01270021112F01DD112000E046
:103900003846CDE9000106A90EA8FFF7A1FCDDE9C4
:103910000F010E9A0391002104910092BA462107EB
:103920000CD40399514500DA8A46BAF1010F05DD3E
:10393000009AAAF10101515C302908D0B84202DA9C
:1039400010F1040F06DA0121CDE9011015E0AAF10A
:103950000101E9E7002805DC049901440491AAEB80
:10396000000102E0411C514500DD8A460499401ADD
:10397000401C01904FF000400290200704D40198B1
:10398000504501DBCDF8048000208DF84F000298EF
:103990000DF14F07B0F1004F25D02B200E9002986B
:1039A0004FF0020800280CDA404202902D200E90C1
:1039B00007E00A210298FCF739FD3031029007F840
:1039C000011DB8F10001A8F10108F2DC02980028FD
:1039D000EFD1791E0E980870307800F0200040F08A
:1039E000450007F8020D12A8C01B00F10708149843
:1039F000007800B1012000EB0A01019801EBE071B1
:103A000005984144401A401E0590E00306D45B46E9
:103A10002146179A059800F05DF80544149800783F
:103A200018B15A46179990476D1CE00324D55B46A0
:103A30002146179A059800F04DF805441CE00498BB
:103A4000002807DBDDE90301884203DD0098405CC4
:103A5000179901E0179930205A469047049805F1CC
:103A60000105401C04900198401E019004D12E20B5
:103A70005A46179990476D1CBAF10001AAF1010A44
:103A8000DDDC05E017F8010B5A46179990476D1CCD
:103A9000B8F10001A8F10108F4DC5B462146179A51
:103AA0000598ABE62D0000002B0000002000000070
:103AB0002DE9F041044600251E461746880404D42B
:103AC00005E039462020B0476D1C641EF9D5284614
:103AD000BDE8F0812DE9F041044600251E469046E0
:103AE000C80301D5302700E02027880404D505E06D
:103AF00041463846B0476D1C641EF9D52846BDE8DE
:103B0000F0810A68531C0B60107070472DE9F0417A
:103B100004464FF00E4000EB4400B0F1506F2046D9
:103B200055D84FF0FC41B1EB440F1CD224F00040BB
:103B30004FF07E51FCF7CBFB4FF0FF31FCF73AFC26
:103B4000054600F07FFE14F0004F1DBF2F4F304E92
:103B500080F000402F4F08BF2F4E4FF04041FCF740
:103B6000B9FB044605E000273E460146FCF7B2FBE0
:103B700005462A492846FCF7ADFB2949FCF752FBCC
:103B80002946FCF7A7FB2749FCF74CFB2946FCF725
:103B9000A1FB2549FCF746FB2946FCF79BFB234983
:103BA000FCF740FB804629462046FCF793FB414644
:103BB000FCF790FB054631462046FCF733FB2946CF
:103BC000FCF730FB3946BDE8F041FCF72BBB4FF06A
:103BD000E441B1EB440F08D9FFF7F4FA042808BF19
:103BE000FFF71CFB2046BDE8F0814FF07F41B1EBB1
:103BF000440F03D2BDE8F041FFF707BB0120FFF7F8
:103C000021FBBDE8F041FFF705BB00000000C9BF84
:103C100022AAFDB90000C93F22AAFD3924FE1C3D9D
:103C2000C78AD83C1E67383D1B93993DAFAA2A3EF0
:103C30002DE9F0474FF0684202EB40030C46054681
:103C4000B3F1654F3CBF02EB4102B2F1654F7CD24C
:103C5000C0F3C753C1F3C7529A1A1B2A06DD10F0EE
:103C6000004F14BF76487748BDE8F08712F11A0F6D
:103C700017DA11F0004F06D010F0004F0CBF724859
:103C80007248BDE8F08721462846FCF755FB0446FC
:103C9000FFF798FA042808BFFFF7C0FA2046BDE8EE
:103CA000F0874200B2EB410F25D910F0004F19BF49
:103CB000674F684E684F694E224685F000441546AE
:103CC0000A4680F0004110460A1A5200B2F1807F85
:103CD00040D248406249DFF88CA110F0004F18D064
:103CE0004FF03F483846FCF7EFFA0746514630465A
:103CF000FCF7EAFA17E011F0004F04BF0026374640
:103D0000E2D010F0004F19BF574F584E584F594E40
:103D1000DAE74FF07C583846FCF784FA07465146FC
:103D20003046FCF77FFA064641462846FCF7D2FAB1
:103D30002146FCF777FA824621464046FCF7CAFA4C
:103D40002946FCF7C4FA514600E037E0FCF7F4FAE4
:103D5000044604E021462846FCF7EEFA04460146F4
:103D6000FCF7B8FA80464449FCF7B4FA4349FCF73B
:103D700059FA4146FCF7AEFA4149FCF753FA41467D
:103D8000FCF7A8FA3F49FCF74DFA4146FCF7A2FAC6
:103D90003D49FCF747FA054641462046FCF79AFAAA
:103DA0002946FCF797FA3146FCF73CFA2146FCF726
:103DB00039FA3946BDE8F047FCF734BA4FF07F4294
:103DC000B2EB400F28BFB2EB410F03D2BDE8F04782
:103DD000FFF71EBA40EA01035B0008BF44F0FF4151
:103DE0000AD0B2EB400F08BFB2EB410F06D125F06D
:103DF000804024F0804105460C4629E7B2EB400F95
:103E000012BF5FEA410245F0FF4004F000413FF479
:103E10001FAF4A0092EA40033FF51AAF002AACBF39
:103E20004FF09F464FF03E563146FCF753FA054699
:103E300031462046FCF74EFA04462846214607E75D
:103E4000DB0FC9BFDB0FC93FDB0F4940DB0F49C0A8
:103E50000000C9BF22AAFDB90000C93F22AAFD394E
:103E60000060ED3EC30ACE37000049C022AA7DBAE9
:103E70000000494022AA7D3A2DAD65BD8FB8D53DE1
:103E80000FB511BE61C84C3EA8AAAABEFDF73CFC06
:103E9000FEF7B7FFFEF7E2FDFEF706FEFEF724FE93
:103EA00000F012F8FEF798FD00F020F8FEE710B5DC
:103EB000EFF3058111B16FF0050403E0002408B1B0
:103EC00000F00AFE204610BDEFF3058010B16FF040
:103ED000050070470448016811B14FF0FF3070478A
:103EE00001210160002070476C00002010B5EFF345
:103EF000058010B16FF0050010BD08480168012968
:103F000002D04FF0FF3010BD054A002182F8141D89
:103F10000221016000F048FE002010BD6C0000206E
:103F20000BE000E02DE9FF414FEA01034FF00005EF
:103F3000EFF30581039549BB40B380271821002486
:103F40004AB3166806B1344696691EB13146761EEC
:103F5000382E02D21679F60703D0002004B0BDE84F
:103F6000F081566906B1B708D2F808C0BCF1000F5D
:103F70000DD0D5685C2D18D312693AB136B18DE8F1
:103F800006103A46214601F082F903900DE0D6680A
:103F90005EB912694AB903AACDE90012BAB2214644
:103FA00001F048F9012800D003950398D6E70000F6
:103FB0002DE9F041134C0F460546E6682068001DC8
:103FC00000F056FC681C07D137B12168BDE8F0410C
:103FD0000D48091D00F09CBC20683544B542456081
:103FE000216805D2A06BBDE8F041091D00F078BC46
:103FF000606B091D00F074FCA06A854200D2A562C6
:10400000BDE8F0811C000020F00600202DE9F04101
:10401000054600F089FC2D4CA068401CA06020687B
:104020002B4F10B1606930B32BE02560A0680128E8
:1040300027D1002606EB860007EB800000F042FC4B
:10404000761C382EF6D3234800F03CFC214814306F
:1040500000F038FC1F48283000F034FC1D483C308C
:1040600000F030FC1B48503000F02CFC1948606315
:104070001430A06305E02068E96AC06A884200D86D
:104080002560606A401C60626864E86A2169884251
:1040900000D9206100EB800007EB8000291D00F0B3
:1040A00037FC00F061FC606900280CD02068E96AE8
:1040B000C06A884207D208494FF080500860BFF3B9
:1040C0004F8FBFF36F8FBDE8F08100001C00002010
:1040D00040020020A006002004ED00E038B500F00A
:1040E00023FC104C2068C8B90F4800F0EBFB0E48C9
:1040F000143000F0E7FB0C48E060143020610A4BFC
:104100000020F03B009003F1500210210A2000F043
:1041100033FE206010B105A100F0A8FCBDE83840D6
:1041200000F022BC58000020F4070020546D7251AA
:104130000000000030B4026C0B46002A0BD0C168AE
:104140001144C1608468A14201D30168C16030BCE0
:104150001846FCF743B830BC70472DE9F041856B39
:10416000174604460026026C82B1C7B1E068FCF72E
:1041700035F8E168206C091AE1602268914202D2A8
:10418000A168081AE060022F16D017E02068A8B9CD
:10419000A06801F01FF906460020A0600EE06068EC
:1041A000FCF71CF8216C606808446060A1688842D4
:1041B00004D32068606001E005B16D1E6D1CA5632D
:1041C0003046BDE8F08110B5044690F8590058B16A
:1041D00001280CD002280FD0502080F31188BFF3A3
:1041E0004F8FBFF36F8FFEE7206B00F0D1FB2046AF
:1041F000BDE8104000F0CCBB10BD000010484FF4EB
:104200004061420706D0C01D0D4920F00700411A49
:10421000C1F540610B4A00230144C2E9000308399B
:10422000183A21F0070111604B600B600B1AC0E9CE
:10423000001393604FF000405360506170470000DE
:10424000D40E002088000020144E154CA6F29C4786
:104250004FF08058DFF84C9012E000BF00F064FB94
:10426000F068C568281D00F003FBA068401EA06030
:104270006068401E606000F077FB2846FFF7A3FFF0
:1042800060680028EAD138680128F9D9C9F80080A7
:10429000BFF34F8FBFF36F8FF2E70000DC06002003
:1042A0001C00002004ED00E070B51D46049C51B1D7
:1042B000C4F80020C4E90F010121204600F090FD60
:1042C00084F84C5070BD2460F4E700002DE9F05FE5
:1042D0008846DDE90B941546834691009A460A9E6E
:1042E000A522206BFBF78CFF6FF00301206B01EB25
:1042F0008501084420F00707780707D0502080F395
:104300001188BFF34F8FBFF36F8FFEE70025B8F121
:10431000000F0FD05FF00000221818F8001082F88C
:10432000341018F8001011B1401C1028F4D384F890
:10433000435001E084F83450382E00D33726E6622B
:10434000C4E91365201D00F0C8FA04F1180000F05C
:10435000C4FA2461C6F138006462A061656584F81E
:10436000585052465946384600F05AFA2060B9F182
:10437000000F01D0C9F80040BDE8F09F30B51149E9
:1043800000E011460A688242FBD34B685C18844205
:1043900003D1406818444860084643681C1894429A
:1043A00009D1084C183C2468A24209D052681A442A
:1043B00042600A6812680260814200D0086030BD25
:1043C0000460F9E78800002070B5002441600B4DBF
:1043D0000061914206D8D11A8269914206D2011D2C
:1043E000286907E09A4203D2994201D3012403E0ED
:1043F000011DE86800F074FA204670BD58000020E6
:1044000010B5044600F090FAA06B28B15FF00004EC
:1044100000F0AAFA204610BD0124F9E730B589B0B2
:104420003C4D6EE00498002806DADDE90601059AA5
:1044300090470498002864DB069C606910B1201D39
:1044400000F016FA03A800F0D7F8024604980A28EC
:1044500057D2DFE800F00505052D334A05052D3359
:1044600094F8280040F0010084F828000599A0691C
:10447000059B01442046FFF7A7FF68B3216A204649
:10448000884794F8280040073BD500200090059805
:10449000A169002342181946204601F0A5F8D8B9B1
:1044A000502080F31188BFF34F8FBFF36F8FFEE76B
:1044B00014F8280F20F00100207022E094F8280062
:1044C00040F0010084F828000598A06128B1811807
:1044D00013462046FFF778FF13E0502080F3118841
:1044E000BFF34F8FBFF36F8FFEE794F8280081076B
:1044F00003D4204600F04CFA03E020F0010084F8D9
:104500002800002204A9286800F0BEFD002889D1F7
:1045100009B030BD580000202DE9FC410F4605468A
:1045200000F086FB01A800F067F80446019818B176
:1045300000F0C8FFBDE8FC81254EAFB130690068CE
:10454000D0B30027291B3A46306800F0A3FA00F0E8
:10455000B9FF0028EED11F494FF080500860BFF32B
:104560004F8FBFF36F8FE5E7A542EBD800F0AAFFAE
:10457000F0682746C068C468201D00F079F994F8F7
:104580002800410719D5A0692B4641193A46204613
:10459000FFF71AFFA8B100200346014600902A4603
:1045A000204601F021F860B9502080F31188BFF354
:1045B0004F8FBFF36F8FFEE707E020F0010084F814
:1045C0002800216A20468847B4E70127BAE700009F
:1045D0005800002004ED00E00648416B096829B14D
:1045E000416BC968C9684968816270474FF0FF3103
:1045F000FAE700001C00002070B5054600F080FEC0
:10460000064E0446B068844203D200F009F8012047
:1046100000E0002028602046B46070BD58000020F3
:10462000F8B5194D20E0C068C4680668201D00F088
:104630001FF9216A2046884794F82800400713D5BF
:10464000A0693044B04206D924616060211DE86849
:1046500000F046F908E0002003460146009032468B
:10466000204600F0C1FF38B1E86801680029DAD1BE
:104670002969C5E90310F8BD502080F31188BFF304
:104680004F8FBFF36F8FFEE7580000200848406847
:10469000401C4FF0500080F3118804D0BFF34F8FBF
:1046A000BFF36F8FFEE7BFF34F8FBFF36F8FFEE750
:1046B00090000020074CE068016841B1C06800210B
:1046C000D0F80000FFF728FFFFF7A8FEF3E701216D
:1046D0000020F7E7580000202DE9F041044600F0E3
:1046E00023F994F9455004F1240609E0606A48B1C1
:1046F000304600F0AFFE08B100F01CFA6D1E6DB23E
:10470000002DF3DC4FF0FF3684F8456000F02CF903
:1047100000F00AF994F9445004F1100709E0206907
:1047200048B1384600F096FE08B100F003FA6D1E5D
:104730006DB2002DF3DC84F84460BDE8F04100F078
:1047400013B900002DE9F0410546002700F070FA8A
:10475000324E306808B9FFF751FD706905424ED1FD
:10476000C5B3083568070ED005F00700C0F1080092
:104770000544680707D0502080F31188BFF34F8F9E
:10478000BFF36F8FFEE72DB37068854237D823489B
:10479000183001460C6801E020460C466168A942C9
:1047A00002D221680029F7D131688C4227D00768EE
:1047B0002168016060680837411B10290FD9601912
:1047C000420708D0502080F31188BFF34F8FBFF30A
:1047D0006F8FFEE713E041606560FFF7CFFD616812
:1047E0007068401A7060B268904200D2B060706920
:1047F00001430020C4E90001F068401CF06000F0B3
:1048000061FE780707D0502080F31188BFF34F8FE7
:10481000BFF36F8FFEE73846BDE8F08170000020DF
:1048200010B5031F4FF080741C601B1F21F00101A5
:104830001960191F024B0B60143940380A6010BD13
:104840008D46000870B50546FBF76EFE044620F065
:104850000040C0F1FF40C00F08D025F00040C0F17B
:10486000FF40C00F04BF0120FEF7ECFC204670BDE6
:10487000D0E9013201699A60D0E901235A604A689F
:10488000824201D182684A60002202610868401EAB
:104890000860086870470000034B036003F15C0088
:1048A00008608020106070471C080020044B0360E3
:1048B00003F15C0008604FF48070106070470000E6
:1048C000780A002000F108014FF0FF32C0E9011220
:1048D000C1600161002101607047002101617047E2
:1048E00030B50B685A1C02D000F1080202E00269E0
:1048F00004E02246546825689D42FAD953684B600B
:1049000099608A60516008610168491C016030BD8E
:1049100042684A6093688B6093685960916008614F
:104920000168491C01607047502080F31188BFF373
:104930004F8FBFF36F8F0A494868401C48600128B9
:104940000CD10848006810F0FF0F07D0502080F30A
:104950001188BFF34F8FBFF36F8FFEE770470000E2
:104960009000002004ED00E00849486828B1401E8E
:10497000486001D180F311887047502080F311887E
:10498000BFF34F8FBFF36F8FFEE700009000002052
:1049900070B500282AD0164DA0F108046068696936
:1049A000084207D1502080F31188BFF34F8FBFF327
:1049B0006F8FFEE722683AB1502080F31188BFF371
:1049C0004F8FBFF36F8FFEE78843606000F030F9D0
:1049D00060686968084468602046FFF7CFFC286972
:1049E000401C2861BDE8704000F06CBD70BD000047
:1049F000700000204FF0E020002101618161054935
:104A00004FF47A720968B1FBF2F1491E4161072146
:104A1000016170471800002010B5FBF7B9FB114980
:104A200010280ED300F1E02090F8F0030A789042AD
:104A300007D2502080F31188BFF34F8FBFF36F8FE1
:104A4000FEE709480068896800F4E060884207D9F9
:104A5000502080F31188BFF34F8FBFF36F8FFEE7B5
:104A600010BD0000900000200CED00E010B5084BD8
:104A7000002200BF53F832401CB1521C082AF9D35F
:104A800010BD43F8321003EBC201486010BD0000B6
:104A90000002002070B515460E460446FFF744FF9D
:104AA00094F944100020491C01D184F8440094F981
:104AB0004510491C01D184F84500FFF755FFA06B54
:104AC00028B92A46314604F1240000F051F8204666
:104AD000BDE87040FFF700BE10B5020014D00F48CB
:104AE000006B38B1502080F31188BFF34F8FBFF3B4
:104AF0006F8FFEE700F09CF800211046FFF758FA90
:104B000000F0E0FC002807D105494FF08050086014
:104B1000BFF34F8FBFF36F8F10BD00001C0000204C
:104B200004ED00E002490A6A0260C968416070470A
:104B30001C00002001490120C86170471C000020B2
:104B400010B50C4650B1094909681831FFF7C8FE85
:104B50002046BDE810400121FFF72ABA502080F31B
:104B60001188BFF34F8FBFF36F8FFEE71C0000204B
:104B700070B514460D4668B10A4909681831FFF747
:104B8000C7FE0CB14FF0FF3521462846BDE8704006
:104B9000FFF70EBA502080F31188BFF34F8FBFF399
:104BA0006F8FFEE71C00002030B587B0002403940F
:104BB00005AA04A903A80494FFF76EFEDDE903012A
:104BC0000094CDE90110002315A11748059A00F0C3
:104BD0005EFB164D0028E8621FD000F0D5FC0128CE
:104BE00009D0401C19D1502080F31188BFF34F8F9A
:104BF000BFF36F8FFEE7502080F31188BFF34F8F14
:104C0000BFF36F8F4FF0FF30A86201206861EC6046
:104C100007B0BDE8304000F045B807B030BD000037
:104C200049444C4500000000494200081C00002097
:104C30000248016B491C0163704700001C00002002
:104C4000164810B5016B11B10121C16110BD0021E1
:104C5000C1610169124A01E0B9B1491E01EB81034A
:104C600052F82330002BF7D001EB810302EB8302D3
:104C700002F1080453685B685360A34201D15B688A
:104C80005360DA680260016110BD502080F3118822
:104C9000BFF34F8FBFF36F8FFEE700001C000020B3
:104CA000400200201CB5264908780190FF200870BA
:104CB00008788DF800009DF800009DF8002000F0B5
:104CC000F000904207D0502080F31188BFF34F8F3F
:104CD000BFF36F8FFEE79DF800001A4C00F0500004
:104CE00020700720A06005E09DF8002052008DF89C
:104CF0000020401E9DF800201206F5D4A060032875
:104D000007D0502080F31188BFF34F8FBFF36F8F10
:104D1000FEE74FF44070A060019808700A480168EF
:104D200041F470010160016841F070410160FFF7DA
:104D300061FE00206060FBF7F5F900201CBD00005B
:104D400000E400E09000002020ED00E010B55020CD
:104D500080F31188BFF34F8FBFF36F8F00F0D6FA47
:104D600018B104494FF080500860002080F311888A
:104D700010BD000004ED00E038B5049D18B153B13A
:104D8000CAB181B120E0502080F31188BFF34F8F6A
:104D9000BFF36F8FFEE7502080F31188BFF34F8F72
:104DA000BFF36F8FFEE7502080F31188BFF34F8F62
:104DB000BFF36F8FFEE739B1502080F31188BFF346
:104DC0004F8FBFF36F8FFEE750241C46012384F8FA
:104DD00046302B460094FFF767FA204638BD0000A6
:104DE00070B50D46040025D0FFF79EFDD4E90F20D5
:104DF000216802FB0011A1600021A16321686160AC
:104E00000A46D4E90F01401E00FB0121E160214662
:104E10004FF0FF3001F8440F487004F110008DB1DD
:104E2000FFF750FD04F12400FFF74CFDFFF79CFD58
:104E3000012070BD502080F31188BFF34F8FBFF366
:104E40006F8FFEE721690029F0D000F003FB0028F6
:104E5000ECD004494FF080500860BFF34F8FBFF390
:104E60006F8FE3E704ED00E02DE9FF4782B01D46B8
:104E70008A464FF00008040003D0BAF1000F08D0B2
:104E800011E0502080F31188BFF34F8FBFF36F8F75
:104E9000FEE7206C38B1502080F31188BFF34F8FAC
:104EA000BFF36F8FFEE7022D0AD1E06B012807D018
:104EB000502080F31188BFF34F8FBFF36F8FFEE751
:104EC00000F010FA3F4F4FF000094FF0805648B9FC
:104ED000049838B1502080F31188BFF34F8FBFF38F
:104EE0006F8FFEE7FFF720FDA06BE16B884207D3D1
:104EF000022D05D00498D0B1B8F1000F1AD01EE0F1
:104F00002A4651462046FFF728F9616A19B104F193
:104F1000240000F09FFA20B13E60BFF34F8FBFF333
:104F20006F8FFFF721FD012006B0BDE8F087FFF786
:104F30001BFD22E06846FFF7F5FD4FF00108FFF783
:104F400013FDFFF775FEFFF7EFFC94F94400401CDA
:104F500001D184F8449094F94500401C01D184F8B3
:104F60004590FFF701FD04A9684600F029F930B12A
:104F70002046FFF7B1FB00F0A5FA0020D4E7FFF7C9
:104F8000D3FCA06BE16B884213D1FFF7EDFC04F179
:104F900010000499FFF7D4FD2046FFF79DFB00F0B9
:104FA00091FA00289ED13E60BFF34F8FBFF36F8F01
:104FB00098E7FFF7D9FC2046FFF78EFB00F082FA56
:104FC00090E7000004ED00E02DE9F0471F46904611
:104FD0008946040003D0B9F1000F08D011E0502039
:104FE00080F31188BFF34F8FBFF36F8FFEE7206C04
:104FF00038B1502080F31188BFF34F8FBFF36F8F0C
:10500000FEE7022F0AD1E06B012807D0502080F381
:105010001188BFF34F8FBFF36F8FFEE7FFF7FCFCE4
:105020005020EFF3118680F31188BFF34F8FBFF349
:105030006F8FA06BE16B884206D3022F04D0002053
:1050400086F31188BDE8F08794F94550A06B3A4685
:1050500049462046FFF781F8681C04D06D1C84F88F
:1050600045500120ECE7606A0028FAD004F12400E2
:1050700000F0F0F90028F4D0B8F1000FF1D00121D0
:10508000C8F80010EDE700002DE9F747002683B0CF
:105090008A46040003D0BAF1000F08D011E0502076
:1050A00080F31188BFF34F8FBFF36F8FFEE7206C43
:1050B00038B1502080F31188BFF34F8FBFF36F8F4B
:1050C000FEE700F00FF9DFF8F4804FF000094FF031
:1050D000805748B9059838B1502080F31188BFF344
:1050E0004F8FBFF36F8FFEE7FFF71EFCA56BC5B1B7
:1050F00051462046FFF71EF86D1EA563206950B18A
:1051000004F1100000F0A6F928B1C8F80070BFF350
:105110004F8FBFF36F8FFFF727FC012006B0BDE86C
:10512000F087059808B11EB106E0FFF71DFC27E0E7
:105130006846FFF7F7FC0126FFF716FCFFF778FD3E
:10514000FFF7F2FB94F94400401C01D184F844902D
:1051500094F94500401C01D184F84590FFF704FC08
:1051600005A9684600F02CF8002820460AD0FFF771
:10517000B3FA00F0A7F92046FFF742F90028B3D0B0
:105180000020CBE7FFF73CF990B104F1240005992A
:10519000FFF7D6FC2046FFF79FFA00F093F90028AE
:1051A000A2D1C8F80070BFF34F8FBFF36F8F9BE79A
:1051B0002046FFF791FA00F085F995E704ED00E04D
:1051C0002DE9F0410C46050011D0C4B1FFF7ACFB4E
:1051D000174BDA686E682068911B471C17D02F6840
:1051E0001B6A9F4219D0964217D8012410E0502024
:1051F00080F31188BFF34F8FBFF36F8FFEE750200E
:1052000080F31188BFF34F8FBFF36F8FFEE7002449
:10521000FFF7AAFB2046BDE8F081884205D9401A75
:1052200020602846FFF77EFCF1E700202060DCE7E5
:105230001C0000202DE9FF5F8346DDE90E879946BB
:1052400016468A469000FFF77DFA05001CD05C20C8
:10525000FFF778FA040014D00020256384F8590081
:10526000CDE90240CDE900874B46324651465846CB
:10527000FFF72CF82046FEF7C9FE012004B0BDE878
:10528000F09F2846FFF784FB4FF0FF30F6E7F0B5BC
:1052900085B0DDE90B640A9DA6B1DCB15C270097FF
:1052A0002663022684F85960002604AFCDE9024641
:1052B000CDE90057FFF70AF82046FEF7A7FE04984D
:1052C00005B0F0BD502080F31188BFF34F8FBFF3BE
:1052D0006F8FFEE7502080F31188BFF34F8FBFF32D
:1052E0006F8FFEE70548416919B1006B18B10020C6
:1052F0007047012070470220704700001C0000200A
:105300000148C068704700001C0000202DE9F041F2
:105310002E4C0027206B28B1A069401CA0613846A4
:10532000BDE8F081E668761CE66013D1606B00682A
:1053300038B1502080F31188BFF34F8FBFF36F8FC8
:10534000FEE7606BA16B6163A063206A401C206272
:10535000FFF742F9A06ADFF87880864209D3606BD4
:105360000068A0B1606BC068C5686868864211D2E9
:10537000A0622068C06A00EB800158F82100012873
:1053800000D90127E0690028C9D00127C7E74FF0FD
:10539000FF30EDE7281DFFF76BFAA86A18B105F199
:1053A0001800FFF765FAE86A2169884200D9206190
:1053B00000EB800108EB8100291DFFF7A9FAE86ADC
:1053C0002168C96A8842CAD30127C8E71C000020A7
:1053D0004002002070B504004FF0000133D01B4D97
:1053E0002868844207D0502080F31188BFF34F8F84
:1053F000BFF36F8FFEE7206D38B1401E2065E36C70
:10540000E26A9A421FD040B11DE0502080F311881B
:10541000BFF34F8FBFF36F8FFEE7201DFFF728FA12
:10542000E06CE062C0F13800A061E06A296988425E
:1054300000D92861064900EB800001EB8000211DA6
:10544000FFF766FA0121084670BD00001C0000202D
:105450004002002070B5C068C46854B104F118005F
:105460000646FFF705FA144D286B50B13146134834
:1054700015E0502080F31188BFF34F8FBFF36F8F7B
:10548000FEE7201DFFF7F4F9E06A2969884200D998
:1054900028610B4900EB800001EB8000211DFFF724
:1054A00037FAE06A2968C96A884202D90120E861AE
:1054B00070BD002070BD00001C000020C806002048
:1054C000400200202DE9F0472C4D00242746286B90
:1054D00038B1FFF729FA286B401E2863286B40B1CA
:1054E00046E0502080F31188BFF34F8FBFF36F8FDA
:1054F000FEE7A968224E0120D1B3A6F59169804646
:105500003068E0B1F068C46804F11800FFF7B0F942
:10551000201DFFF7ADF9E06A2969884200D92861AA
:1055200000EB800109EB8100211DFFF7F1F9E06A32
:105530002968C96A8842E3D3C5F81C80E0E70CB14A
:10554000FFF74AF8AC694CB14FEA0806FFF7DEFEF8
:1055500000B1EE61641EF9D10020A861E86938B19C
:105560000849012738070860BFF34F8FBFF36F8FDB
:10557000FFF7FAF93846BDE8F08700001C0000206C
:10558000C806002004ED00E010B586B0FEF7A6FDC9
:10559000114C2068B8B100200390049005AA04A91A
:1055A00003A8FFF783F9DDE9032102208DE8070056
:1055B00000230AA10B48059AFFF769FE606010B14D
:1055C00006B0012010BD502080F31188BFF34F8F2B
:1055D000BFF36F8FFEE7000058000020546D72206B
:1055E00053766300B54600082DE9FF411E46134679
:1055F00002000A9D4FF0000016D0144C2768002FBF
:105600000FD0CDE900130292062917DAFFF76AFEE0
:1056100002284FF000030FD0002269462068FFF7F0
:1056200023FC04B0BDE8F081502080F31188BFF363
:105630004F8FBFF36F8FFEE72A46EEE70023324617
:1056400069463846FFF7C0FCEBE700005800002031
:10565000F05C0008000000000000000000000000F6
:105660000000000000020000180000000000000020
:1056700000000000E45C00080000000000000000E2
:1056800000000000000000000004000018000000FE
:105690000000000000000000D85C000800000000CE
:1056A00000000000000000000000000000020000F8
:1056B00018000000000000000000000001020203CA
:1056C0000405060708090A0B0C0D0E0F1010000048
:1056D00000000000000001020304060708090000A2
:1056E00000000102030400000000000000000000B0
:1056F000000000000000000000F8000000000000B2
:1057000000333000000000100C06100C06000000F2
:1057100000000000000040C07840C0784000043F16
:1057200004043F040400007088FC083000000018E6
:1057300020FF211E0000F008F000E018000000210A
:105740001C031E211E0000F00888700000001E21AE
:1057500023241927211010160E000000000000005D
:10576000000000000000000000E01804020000003B
:1057700000071820400000020418E000000000406C
:10578000201807000000404080F0804040000202E6
:10579000010F01020200000000F000000000010102
:1057A000011F01010100000000000000000080B0A6
:1057B0007000000000000000000000000000000178
:1057C00001010101010100000000000000000030A3
:1057D000300000000000000000008060180400603D
:1057E00018060100000000E010080810E000000F9B
:1057F000102020100F00001010F800000000002002
:10580000203F202000000070080808887000003049
:1058100028242221300000300888884830000018F1
:10582000202020110E000000C02010F8000000070A
:105830000424243F240000F8088888080800001980
:10584000212020110E0000E0108888180000000FB1
:10585000112020110E0000380808C8380800000088
:10586000003F000000000070880808887000001CDD
:10587000222121221C0000E010080810E000000096
:10588000312222110F00000000C0C0000000000003
:105890000030300000000000008000000000000028
:1058A000806000000000000080402010080000011F
:1058B00002040810200040404040404040000404E2
:1058C00004040404040000081020408000000020AC
:1058D000100804020100007048080808F0000000E9
:1058E000003036010000C030C828E810E00007187A
:1058F000272423140B000000C038E0000000203CE7
:1059000023020227382008F8888888700000203F8A
:10591000202020110E00C0300808080838000718A1
:1059200020202010080008F808080810E000203F98
:10593000202020100F0008F88888E8081000203F79
:1059400020202320180008F88888E8081000203F4D
:10595000200003000000C0300808083800000718C5
:105960002020221E020008F808000008F808203F46
:10597000210101213F20000808F80808000000204C
:10598000203F2020000000000808F8080800C08020
:1059900080807F00000008F888C028180800203F99
:1059A00020012638200008F8080000000000203FF1
:1059B00020202020300008F8F800F8F80800203FE8
:1059C000003F003F200008F830C00008F808203FE2
:1059D000200007183F00E01008080810E0000F1032
:1059E000202020100F0008F808080808F000203FC9
:1059F000210101010000E01008080810E0000F1864
:105A0000242438504F0008F8888888887000203F88
:105A10002000030C30200070880808083800003887
:105A2000202121221C00180808F80808180000008E
:105A3000203F2000000008F808000008F808001FB8
:105A4000202020201F000878880000C838080000A7
:105A500007380E010000F80800F80008F800033CC1
:105A60000700073C03000818688080681808203089
:105A70002C03032C30200838C800C8380800000068
:105A8000203F2000000010080808C838080020380F
:105A9000262120201800000000FE02020200000063
:105AA000007F40404000000C30C0000000000000BB
:105AB00000010638C00000020202FE0000000040A3
:105AC00040407F00000000000402020204000000C9
:105AD00000000000000000000000000000008080C6
