:020000040800F2
:10000000781F0020990100089F2100088F1A00081E
:100010009D21000855020008CD25000800000000C1
:1000200000000000000000000000000001010008C6
:10003000B30200080000000045010008A9210008E3
:10004000B3010008B3010008B3010008B3010008C0
:10005000B3010008B3010008B3010008B3010008B0
:10006000B3010008B3010008B3010008B3010008A0
:10007000B3010008B3010008590200086502000836
:10008000710200087D020008B3010008B3010008F6
:10009000B3010008B3010008B3010008B301000870
:1000A000B3010008B3010008B3010008B301000860
:1000B000B3010008B3010008B1220008B301000831
:1000C000B3010008B3010008B3010008B301000840
:1000D000B3010008C1250008B3010008B3010008FE
:1000E000B3010008B3010008B3010008DFF80CD029
:1000F00000F09EF80048004785290008781F00207E
:10010000224B19680868B0E8F00F80F30988BFF344
:100110006F8F4FF0000080F311884EF00D0E704786
:100120000000000006480068006880F3088862B696
:1001300061B6BFF34F8FBFF36F8F00DF00BF00BF0B
:1001400008ED00E0EFF30980BFF36F8F0F4B1A68E3
:1001500020E9F00F106008B54FF0500080F31188CF
:10016000BFF34F8FBFF36F8F03F0D2FA4FF0000051
:1001700080F31188BDE8084019680868B0E8F00FFE
:1001800080F30988BFF36F8F704700BF1C00002009
:10019000EFF3058070470000064880470648004797
:1001A000FEE7FEE7FEE7FEE7FEE7FEE7FEE7FEE727
:1001B000FEE7FEE721220008ED00000840EA010307
:1001C0009B0703D009E008C9121F08C0042AFAD20D
:1001D00003E011F8013B00F8013B521EF9D27047D1
:1001E000D2B201E000F8012B491EFBD27047002279
:1001F000F6E710B513460A4604461946FFF7F0FF26
:10020000204610BD30B50B460146002020220124B7
:1002100009E021FA02F59D4205D303FA02F5491BD4
:1002200004FA02F52844151EA2F10102F1DC30BDEA
:10023000064C074D06E0E06840F0010394E8070033
:1002400098471034AC42F6D3FFF754FF244200081D
:1002500044420008FEE70000014800F09DB800009D
:1002600014020020014800F097B80000D0010020DF
:10027000014800F091B8000044010020014800F05E
:100280008BB800000001002030B590F840500124E8
:10029000AC40C56B6C60046863604368102B0368F6
:1002A00003D099600068C26030BD9A600068C16088
:1002B00030BD704772B6FEE710B590F821100022ED
:1002C000022905D00421816380F82020012010BD7F
:1002D00001680B6823F00E030B6001680B6823F0C4
:1002E00001030B6090F84030C46B012101FA03F365
:1002F000636080F8211080F82020104610BD0000B7
:1003000010B590F821100024022903D00421816344
:1003100001243DE001680A6822F00E020A600168CB
:100320000A6822F001020A601A4A0168914201D16A
:10033000012121E0174A1432914201D110211BE022
:10034000144A2832914201D1891515E0114A3C32F4
:10035000914201D189140FE00E4A5032914202D1EC
:100360004FF4803108E00B4A6432914202D14FF4DD
:10037000801101E04FF08071064A083A5160012176
:1003800080F82110002180F82010416B01B18847CE
:10039000204610BD080002402DE9F05FC16B0C68DB
:1003A00001680B68D0F840C0042202FA0CF2494DF3
:1003B000DFF824A1494E4A4FDFF828B1DFF828E1E1
:1003C00022422CD05A072AD50A68920603D40A681A
:1003D00022F004020A600168A94201D1042219E056
:1003E000514501D1402215E0B14202D14FF4806263
:1003F00010E0B94202D14FF480420BE0594502D1DE
:100400004FF4802206E0714502D14FF4800201E0F2
:100410004FF080622F4908394A60C16A3BE04FF0D3
:10042000020808FA0CF818EA040F4FF000094FF020
:10043000010235D05FEA837832D50B689B0605D47C
:100440000B6823F00A030B6080F821200168A942A1
:1004500001D1022219E0514501D1202215E0B1421B
:1004600002D14FF4007210E0B94202D14FF40052B1
:100470000BE0594502D14FF4003206E0714502D13C
:100480004FF4001201E04FF00072124908394A603F
:1004900080F82090816A00291AD0BDE8F05F0847F3
:1004A000082505FA0CF5254212D01B0710D50B685C
:1004B00023F00E030B6090F84010C36B02FA01F1B9
:1004C0005960826380F8212080F82090016BE2E778
:1004D000BDE8F09F080002401C00024030000240CE
:1004E00044000240580002406C00024030B528B37E
:1004F00008C8134914221944B1FBF2F18900C16301
:1005000010498163022141771A6843F6F0718A43EA
:10051000D0E900142143D0E902452C43214304696A
:100520002143446921438469214311431960002117
:100530004163012242770177084630BD012030BD7A
:10054000F8FFFDBF0000024070B5044690F820009F
:10055000002501280CD0012084F8200094F82160A7
:100560000020012E06D084F820000225284670BD08
:10057000022070BD022684F82160A063206806680E
:1005800026F0010606602046FFF77EFEE06A00289E
:100590002068016802D041F00E0106E021F004015C
:1005A00001602068016841F00A010160206801686B
:1005B00041F001010160D9E770B5044600F0FEF892
:1005C0000546601C02D004480078044400F0F6F8A8
:1005D000401BA042FAD370BD0C0000202DE9F84F5B
:1005E000DFF8B8910024A9F1040B23460F2709F185
:1005F000040AABF1040EC9E00125A5402A40AA4235
:100600007DD1674ED1F804C0ACEB0608B44532D0BA
:1006100014DCBCF1030F3AD009DCBCF1000F2AD086
:10062000BCF1010F1CD0BCF1020F31D11DE0BCF1B7
:10063000110F17D0BCF1120F2AD119E0B8F5881F9D
:1006400019D006DCB8F5803F15D0B8F5801F1FD152
:1006500011E0B8F5001F0ED0B8F5041F18D10AE05C
:10066000CB6815E0CB681B1D12E0CB6808330FE0A8
:10067000CB680C330CE08B682BB1012B4FF00803D7
:1006800003D0456104E0042302E0056100E000239B
:10069000FF2A01D8064601E000F104064FEA84056E
:1006A00001D9A5F12005D6F8008007FA05FC28EA53
:1006B0000C0803FA05F548EA0508C6F800804D68FD
:1006C000ED0062D5374DAE6946F00106AE61AD6909
:1006D00024F0030605F001050095334D06EB050CEB
:1006E000DCF80850A607360F07FA06F825EA0805D1
:1006F000DFF8B880404503D14FF0000817E044E030
:10070000DFF8AC80404502D14FF001080FE0DFF880
:10071000A480404502D14FF0020808E0DFF898803D
:10072000404502D14FF0030801E04FF0040808FAF9
:1007300006F848EA0508CCF808804D68D9F800604A
:10074000ED024D4601D5164300E096432E604D68FC
:10075000DAF80060AD02554601D5164300E0964335
:100760002E604D68DBF80060AD035D4601D5164391
:1007700000E096432E604D68DEF80060ED0375469C
:1007800001D5164300E096432E60641C0D682A468E
:10079000E5407FF431AFBDE8F88F00000804014068
:1007A000000011100010024000000140000801404C
:1007B000000C014000100140001401400148806815
:1007C000704700000C00002070B5040025D094F89C
:1007D0003D00002520B984F83C50204600F07EFA08
:1007E000242084F83D002068016821F001010160A7
:1007F0002068016841F4004101602068016821F42B
:100800000041016000F046FC4D4A6168914201D808
:100810004C4900E04C49884201D2012070BD4B494F
:100820002368B0FBF1F15E6826F03F060E435E6080
:100830006368934206D94FF4967359434FF47A7321
:10084000B1FBF3F12368491C1E6A26F03F063143D1
:1008500019626168914210D84900401EB0FBF1F264
:10086000521CC2F30B02042A01D2042022E0B0FB86
:10087000F1F0401CC0F30B001CE0A268F2B301EBE6
:10088000C10303EB0116431EB3FBF6F35B1C43F4F9
:1008900080431B0549D092B301EBC10202EB011169
:1008A000401EB0FBF1F0401CC0F30B0040F4804050
:1008B00040F400402168CA694CF6FF739A43104324
:1008C000C861D4E9071001432068026822F0C00221
:1008D00011430160D4E9030101432068826848F2B2
:1008E000FF339A4311438160D4E90501084321682D
:1008F000CA6822F0FF021043C86001E00EE016E073
:100900002068016841F0010101602564202084F81D
:100910003D00256384F83E50002070BD01EB410688
:10092000431EB3FBF6F35B1CB3E70120C2E701EB08
:100930004101401EB0FBF1F0401CC0F30B00B7E7D3
:10094000A086010080841E0000093D0040420F0087
:100950002DE9FF4F83B00025DDE910799A469346D3
:100960000446DDF848800095FFF728FF064694F816
:100970003D0020287CD11923012288492046009679
:1009800001F09CF90028F5D194F83C0001286FD0C3
:10099000012084F83C0020680168C90703D1016880
:1009A00041F0010101602068016821F400610160EB
:1009B000222084F83D00402084F83E0025646762D0
:1009C000A4F82A90608D20857548E062CDE9008604
:1009D00053465A462046049901F072F800287CD10B
:1009E000208DDFF8C091202768B1012814D002289B
:1009F000206801681ED041F480610160206841696F
:100A000080690090BCE020684169816900910168BB
:100A100041F400710160B3E02068016821F4806155
:100A2000016072B62068416981690091016841F4F2
:100A300000710AE041F40061016072B6206841690A
:100A400081690091016821F48061016062B697E0DC
:100A5000032865D801280CD0022843464FF0000235
:100A60004946204600960BD001F028F9A8BB0CE0BF
:100A700091E032464146204601F0C6F968BB72E07B
:100A800001F01CF948BB72B633E02068016821F41C
:100A90008061016072B620680069616A0870606AEE
:100AA000401C6062208D401E2085608D401E608548
:100AB0003D4846F2A8110068B0FBF1F0C0EBC00061
:100AC00000EB80000090401E009007D02068406935
:100AD000C04340070DD50098F5E727E044F8305FA4
:100AE0006773A573206940F02000206162B625730A
:100AF0001CE02068016841F4007101602068006911
:100B0000616A0870606A401C6062218D491E2185FF
:100B1000618D491E618562B621680969017026E010
:100B200032464146204601F06FF918B1012007B066
:100B3000BDE8F08F20680069616A0870606A401C37
:100B40006062208D401E81B22185608D401E6085CF
:100B500020684269D243520712D4032903D10168A5
:100B600021F48061016020680069616A0870606A30
:100B7000401C6062208D401E2085608D401E608577
:100B8000208D00287FF464AF84F83D7084F83E50D7
:100B900084F83C50CBE70220C9E7000002001000B7
:100BA0000000FFFF04000100180000202DE9FF4FA6
:100BB00083B09A46DDE9119793460446DDF84080FC
:100BC000FFF7FCFD054694F83D0020287FD119234E
:100BD000012240492046009501F070F8002876D1A6
:100BE00094F83C00012872D0012084F83C00206871
:100BF0000168C90703D1016841F001010160206863
:100C0000016821F400610160212084F83D0040204A
:100C100084F83E0000262664C4F82480A4F82A90B4
:100C2000608D20852C48E062CDE9007553465A4618
:100C30002046049900F0C2FF70B930E02A463946D8
:100C4000204601F019F958B1206C042804D120681D
:100C5000016841F400710160012007B0BDE8F08F28
:100C6000606A216800780861606A401C6062218DBA
:100C7000491E89B22185628D521E628522685369A0
:100C8000DB435B070BD469B100781061606A401CDC
:100C90006062208D401E2085608D401E6085208D05
:100CA0000028CBD12A463946204600F0DBFF002839
:100CB000CAD154F83D0B016841F400710160202055
:100CC00004F81E09E67766770020C6E7FFE70220F2
:100CD000C3E70000020010000000FFFFF0B585B080
:100CE0000024064600940194029403940068244969
:100CF000884242D1234DA86940F00800A861A86944
:100D0000694600F008000490C02000901220019075
:100D1000032003901C48FFF761FCE86940F40010D1
:100D2000E861E8691A4D00F4001004901748C5E91D
:100D300000048027C5E902472C616C61AC6128463C
:100D4000EC61FFF7D3FB08B1FFF7B4FAB5636E624D
:100D50000F4D0E484435143801C5102091C50C487C
:100D600045F8104944306C61AC61EC61FFF7BEFBA3
:100D700008B1FFF79FFA75636E6205B0F0BD000021
:100D80000054004000100240000C0140800002406E
:100D90000001002002488168027811448160704798
:100DA0000C000020074810B5016841F010010160F7
:100DB000032000F0A7F80F2000F006F800F050F82C
:100DC000002010BD0020024030B505461F4887B006
:100DD000C16941F00401C161C06906A900F00400C5
:100DE000009001A800F036F90498B0B100F052F973
:100DF00040001749174AB0FBF1F11748491E02603D
:100E0000416040F2E7320021C0E903218160816145
:100E100000F018FB040003D015E000F03BF9E8E710
:100E20000D4800F03DFB04000DD11E2000F03CF801
:100E3000102D07D2002229461E2000F043F8074853
:100E4000056000E0012407B0204630BD00100240DC
:100E500040420F000008004058020020100000200F
:100E60000F4808B5816941F001018161816901F094
:100E700001010091C16941F08051C161C069002246
:100E800000F0805000900F21901E00F01BF80548E4
:100E9000416821F0E06141F00071416008BD00004F
:100EA0000010024000000140002809DB00F01F0292
:100EB000012191404009800000F1E020C0F80011BC
:100EC00070470000F0B40E4B1B680C46C3F30223BE
:100ED000C3F10705042D00D90425191D072901D2E6
:100EE000002300E0DB1E012606FA05F1491E214021
:100EF00099409E40761E16403143F0BC01F07CBB09
:100F00000CED00E0064900F0070208684FF6FF0309
:100F1000184040EA0220034A10430860704700006E
:100F20000CED00E00000FA052DE9F0470F46050042
:100F300061D0434E306800F00700B84209D23068F3
:100F400020F0070038433060306800F00700B842F6
:100F500051D128683B4C810712D5400703D5606802
:100F600040F4E06060602878000703D5606840F4D2
:100F7000605060606068A96820F0F000084360601D
:100F80002878C00728D06868012810D02168022876
:100F900010D0890700292EDA616821F0030101438E
:100FA0006160FFF70BFC804641F288390DE0216853
:100FB0008903EFE78901EDE7FFF700FCA0EB0801EB
:100FC000494502D90320BDE8F0876068696800F0F0
:100FD0000C00B0EB810FEFD1306800F00700B84291
:100FE0000BD9306820F0070038433060306800F0DB
:100FF0000700B84201D00120E5E72878400705D571
:101000006068E96820F4E0600843606028780007C1
:1010100006D56068296920F4605040EAC10060602C
:1010200000F058F86168084AC1F30311515CC840E8
:101030000649086006480068FFF7C6FE0020C2E7C0
:1010400000200240001002409E41000818000020CD
:10105000100000200F2202600C4A536803F00303C3
:101060004360536803F0F0038360536803F4E06364
:10107000C36052684FF4E06303EAD202026104489D
:10108000006800F007000860704700000010024090
:10109000002002400448054900684968044AC1F339
:1010A0000221515CC8407047180000200010024027
:1010B000AE4100080448054900684968044AC1F384
:1010C000C221515CC8407047180000200010024047
:1010D000AE4100080E4A51680E4801F00C03042B83
:1010E00011D0082B0FD10C48C1F38343C903C05C56
:1010F0000AD55168084AC1F34041921E515C054A25
:101100005043B0FBF1F0704704494843704700007A
:101110000010024000127A008E41000800093D00D4
:101120002DE9F84F040070D02078C04DC00749D099
:101130006868C0F38100012807D06868C0F38100A7
:10114000022809D16868C00306D52868800339D50C
:1011500060680028E7D035E06068B0F5803F0BD0CC
:1011600010B1B0F5A02F11D0286820F4803028608D
:10117000286820F4802002E0286840F4803028604D
:10118000606890B1FFF71AFB06460AE0286840F451
:1011900080202860F0E700BFFFF710FB801B642869
:1011A00073D828688003F7D50CE0FFF707FB0646E5
:1011B00005E000BFFFF702FB801B6428F0D8286819
:1011C0008003F7D420789A4E80074FF001094FF042
:1011D000000839D5686810F00C0F07D06868C0F3B4
:1011E0008100022809D16868C00306D428688007F6
:1011F00014D52069012808D110E02069B0B1C6F8E3
:101200000090FFF7DBFA074605E00AE1FFF7D6FAA0
:10121000C01B0228C4D828688007F7D528686169F0
:1012200020F0F80040EAC10028600DE0C6F8008018
:10123000FFF7C4FA074604E0FFF7C0FAC01B022814
:1012400023D828688007F7D4207800072CD5794860
:10125000A169D9B1C0F80090FFF7B0FA074604E0E1
:10126000FFF7ACFAC01B02280FD8686A8007F7D5D1
:1012700071484FF4FA510068B0FBF1F0009000BFE4
:101280000098411E0091FAD20EE080E0C0F8008084
:10129000FFF794FA074604E0FFF790FAC01B022814
:1012A00075D8686A8007F7D42078400760D5E86968
:1012B0000027C00008D4E86940F08050E861E86980
:1012C000012700F0805000905C480168C90513D4E4
:1012D0000168834641F480710160FFF76FFA82462E
:1012E00006E000BFFFF76AFAA0EB0A0064284ED8B8
:1012F000DBF80000C005F5D5E06801280AD008B188
:10130000052813D0286A20F001002862286A20F0FE
:10131000040002E0286A40F001002862E06841F21F
:10132000883B98B1FFF74AFA82460BE0286A40F002
:1013300004002862EEE700BFFFF740FAA0EB0A01C5
:1013400059455AD8286A8007F6D50CE0FFF736FAD7
:10135000824605E0FFF732FAA0EB0A0159454CD866
:10136000286A8007F6D41FB1E86920F08050E86150
:10137000E06988B36968C1F38101022944D0022879
:10138000C6F8608004D0FFF719FA044638E034E06C
:10139000FFF714FA074604E0FFF710FAC01B022813
:1013A0002BD828688001F7D4206AB0F5803F05D19A
:1013B0006868A16820F4003008436860D4E9080137
:1013C0000843696821F4741108436860C6F86090A6
:1013D000FFF7F4F9044606E025E000BFFFF7EEF959
:1013E000001B022809D828688001F7D51BE000BF40
:1013F000FFF7E4F9001B022802D90320BDE8F88FAB
:1014000028688001F4D40EE00128F7D06868226AC9
:1014100000F48031914204D1616A00F47010884276
:1014200001D00120EAE70020E8E7000000100240B8
:101430000000424280044242180000200070004038
:101440007047704710B5040003D094F83D0010B108
:1014500007E0012010BD002084F83C00204600F089
:101460001EF8022084F83D00211D206800F026FFB0
:10147000012084F8460084F83E0084F83F0084F898
:10148000400084F8410084F8420084F8430084F866
:10149000440084F8450084F83D00002010BD7047EA
:1014A00090F83D10012901D001207047022180F8F9
:1014B0003D100168CA6842F00102CA6000680B4929
:1014C000884208D0B0F1804F05D00949884202D047
:1014D0000849884204D1816801F00701062903D038
:1014E000016841F00101016000207047002C0140BB
:1014F000000400400008004070472DE9F041044618
:101500000068C66805694FF00007A90713D5B10741
:1015100011D5F91E016101202077206880698007BC
:10152000204602D0FFF7E8FF04E000F07EF82046F6
:1015300000F07CF82777680716D5700714D5216866
:101540006FF004000861022020772068806910F4A1
:10155000407F204602D0FFF7CFFF04E000F065F89F
:10156000204600F063F82777280715D5300713D5F4
:1015700021686FF008000861042020772068C069A6
:101580008007204602D0FFF7B7FF04E000F04DF8D7
:10159000204600F04BF82777E80616D5F00614D55C
:1015A00021686FF010000861082020772068C0696A
:1015B00010F4407F204602D0FFF79EFF04E000F0C9
:1015C00034F8204600F032F82777E80708D0F00713
:1015D00006D021686FF001000861204600F028F86D
:1015E000280608D5300606D521686FF0800008610E
:1015F0002046FFF725FF680608D5700606D5216846
:101600006FF040000861204600F01CF8A8060AD5DB
:10161000B00608D521686FF0200008612046BDE8BB
:10162000F041FFF70EBFBDE8F08170477047000042
:1016300000680349884201D1FFF7ACBB7047000046
:10164000000800407047704770470000F8B5016817
:1016500004460868CA684B6910F00F0F4FF0000588
:1016600059D003F0010602F49077374365D0C107E3
:1016700005D0D10503D5616C41F0010161644107DA
:1016800005D5D90703D0616C41F00201616481077F
:1016900005D5D90703D0616C41F0040161640107ED
:1016A00007D502F02001314303D0616C41F00801FD
:1016B0006164616C00293AD0800604D5900602D599
:1016C000204600F0BFFE20684069616CC0F38010C6
:1016D000090700D460B3204600F07FFE206840690F
:1016E000400621D52068143050E8001F21F0400149
:1016F00040E80012002AF5D1E06BA8B16D494163C2
:10170000E06BFEF7FDFD002811D0E06B416B01B0EE
:10171000BDE8F040084783060FD593060DD5204657
:10172000BDE8F84000F08EBE2046FFF78DFFF8BD03
:101730002046FFF789FF6564F8BD266B2023012E44
:101740007CD1C6067AD5D60678D508684868009058
:1017500048694FF00206400640D5E16B08684068D2
:101760000004000CE8D0A28D8242E5D9E0858869AA
:1017700020282DD020680C3050E8001F21F4807103
:1017800040E80012002AF5D12068143050E8001F0C
:1017900021F0010140E80012002AF5D12068143040
:1017A00050E8001F21F0400140E80012002AF5D166
:1017B00084F84230256320680C3050E8001F21F087
:1017C000100140E80012002AF5D1E06BFEF774FD2D
:1017D0006663A08DE18D401A81B22AE0A08DE18D73
:1017E000401A81B2E08D0028A6D00029A4D022683A
:1017F0000C3252E8000F20F4907042E80007002FEE
:10180000F5D12068143050E8002F22F0010240E8A2
:101810000027002FF5D184F84230256320680C3072
:1018200050E8002F22F0100240E80023002BF5D1F1
:1018300066632046FFF707FFF8BDFFE705062BD5D7
:10184000150629D594F841002128F5D1A068B0F5F6
:10185000805F01D12069B0B1206A411C21622168FA
:1018600000784860E08C401E0004000CE084E3D166
:101870002068C16821F08001C1602068C16841F022
:101880004001C160D8E7206A0088C0F308004860C2
:10189000206A801C2062E5E74006CDD55006CBD5F6
:1018A000CA68204622F04002CA6084F8413000F045
:1018B000E1F8C1E73523000870B5040004D094F8BE
:1018C0004100002510B106E0012070BD84F84050B1
:1018D000204600F023F8242084F841002068C168E5
:1018E00021F40051C160204600F00EFE206801691D
:1018F00021F4904101612068416921F02A01416190
:101900002068C16841F40051C1606564202084F8FA
:10191000410084F842006563002070BDF0B585B0D9
:1019200000240646009401940294039400682D4913
:10193000884254D12C48816941F480418161816998
:1019400001F480410491816941F004018161806961
:10195000264D00F0040004904FF400700090022027
:1019600001900320039069462846FEF737FE2815AC
:10197000CDE90004694628460294FEF72FFE1D4D6E
:101980001B488027C5E90004C5E902472C616C614A
:10199000AC612846EC61FEF7A9FD08B1FEF78AFCB0
:1019A000F5636E62134D12484435143801C510209A
:1019B00091C5104845F8104944306C61AC61EC6148
:1019C000FEF794FD08B1FEF775FCB5630022052112
:1019D00025206E62FFF776FA2520FFF765FA05B03D
:1019E000F0BD000000380140001002400008014036
:1019F00058000240D00100207047000070B5044636
:101A000090F84100202801D0022070BD49B342B3B4
:101A10002162A284E28400206064212384F84130A2
:101A2000A56B114BAB62A56B104BEB62A56B104B1A
:101A30002B63A36B5863256813462A1DA06BFEF722
:101A400083FD21686FF0400008602068143050E882
:101A5000001F41F0800140E80012002AF5D100206B
:101A600070BD012070BD00008F230008D123000845
:101A70004523000800680349884202D10249012039
:101A800008707047003801409C0000207047FEE756
:101A900001684A69D24352050FD46FF480624A61EB
:101AA000002140F8301F202242738173026942F006
:101AB000040202610173012070470020704700009A
:101AC0002DE9F84F0446006889460B9D0168984649
:101AD000174641F4806101602068016841F480711B
:101AE000016000954FF0011B0022594620460A9BD9
:101AF00000F0E4F84FF4007A40B120680068C005B7
:101B000001D5C4F840A00320BDE8F88F216809F092
:101B1000FE0008612B46284920460A9A00F016F973
:101B2000F0BB20684169806900902A4620460A99E6
:101B300000F0A2F940B1206C04283AD12068016875
:101B400041F40071016034E0FEB2B8F1010F09D038
:101B50002168380A08612A4620460A9900F08CF963
:101B60000028E8D1206806612A4620460A9900F03C
:101B700083F90028DFD12068016841F48071016099
:101B800000950022594620460A9B00F097F800284D
:101B9000B3D1216809F0FF0040F00100086100E0C6
:101BA00007E02B46044920460A9A00F0CFF80028A7
:101BB000AAD00120A8E70000020001002DE9F843A7
:101BC000044600680D46DDE9089701689846164608
:101BD00041F4807101604B4600224FF00111204614
:101BE000009700F06BF848B120680068C00502D586
:101BF0004FF4007020640320BDE8F883216805F0ED
:101C0000FE0008613B464A461549204600F09EF812
:101C100088B920684169806900903A464946204663
:101C200000F02AF948B1206C042804D1206801682A
:101C300041F4007101600120DEE7F5B2B8F1010F57
:101C400009D02168300A08613A464946204600F02A
:101C500013F90028E7D1206805610020CCE70000D7
:101C60000200010070B516460D4604461EE02046EF
:101C7000FFF70EFF08B1012070BD681C16D0FEF7FB
:101C80009DFD801BA84200D885B920684069C043EB
:101C900040070BD5002044F8300F20216173A0735A
:101CA000216941F0200121612073E4E72068406947
:101CB000C0434007DBD4002070BD00002DE9F04791
:101CC000984617460D460446C1F30746DDF82090B6
:101CD0002AE000BFB8F1FF3F26D0FEF76FFDA0EB72
:101CE0000901414502D8B8F1000F1DD12068012E2D
:101CF00016D0806925EA00000004000C12D00020F4
:101D0000B84211D1002044F8300F20216173A07334
:101D1000216941F02001216120730120BDE8F08795
:101D20004069E7E70120EBE72068012E0AD08069CF
:101D300025EA00000004000C06D00020B842C9D0FB
:101D40000020EBE74069F3E70120F7E72DE9F047D2
:101D5000984616460D4604464FF000094FF0200AFB
:101D6000C1F3074723E020684069C043400515D40C
:101D70002068016841F40071016021686FF480609F
:101D80004861C4F8309084F83DA084F83E90216CFE
:101D900041F00401216484F83C9021E0701C06D0DD
:101DA000FEF70CFDA0EB0800B04203D816B1012FDE
:101DB0001FD021E02068012F15D0806925EA00009E
:101DC0000004000C18D000BF44F8309F84F80DA028
:101DD00084F80E90216941F02001216184F80C9073
:101DE0000120BDE8F087406925EA00000004000CEE
:101DF000EAD12068406901E02068806925EA000096
:101E00000004000CAFD1ECE72DE9F041002590462D
:101E10000E460446202728E04069C043C0060CD483
:101E200054F8301B6FF01000486144F81059677780
:101E3000A577206A2062257714E0FEF7BFFCA0EBAF
:101E40000800B04200D886B920684069C043400607
:101E50000BD544F8305F6773A573206940F020000C
:101E6000206125730120BDE8F08120684169C943E4
:101E70004906D1D40020F6E770B516460D46044653
:101E80001EE02046FFF704FE08B1012070BD681C6B
:101E900016D0FEF793FC801BA84200D885B92068B5
:101EA0004069C04300060BD5002044F8300F2021C4
:101EB0006173A073216941F0200121612073E4E77F
:101EC00020684069C0430006DBD4002070BD0000DC
:101ED000F0B585B0012504A8CDE9000564242B46A2
:101EE0007522D02102942548FEF732FD18B99DF8DD
:101EF0001000682802D0012005B0F0BD002703AE15
:101F00008DF80C700096CDE9015401236B22D0218D
:101F10001A48FEF74BFE0A20FEF74EFB07208DF80D
:101F20000C000096CDE9015401231922D021134859
:101F3000FEF73CFE03208DF80C000096CDE901541D
:101F400001231A22D0210D48FEF730FE8DF80C70C7
:101F50000096CDE9015401231B22D0210748FEF74A
:101F600025FE8DF80C700096CDE9015401231C224A
:101F7000D0210248FEF71AFE0020BDE7AC00002089
:101F800070B586B0062403ADCDE900546426012364
:101F90003B22D02116480296FEF7DAFCBDF80C0071
:101FA000144940BA01230880BDF80E00124940BA16
:101FB00043220880BDF81000104940BA0880CDE9DE
:101FC0000054D0210A480296FEF7C2FCBDF80C006E
:101FD0000B4940BA0880BDF80E000A4940BA088093
:101FE000BDF81000084940BA088006B070BD000076
:101FF000AC0000209E000020A0000020A2000020D5
:10200000A4000020A6000020A8000020154808B564
:10201000416941F0010141614069002200F0010085
:10202000009005210E20FEF74DFF0E20FEF73CFF2D
:10203000002205210F20FEF745FF0F20FEF734FF99
:10204000002205211020FEF73DFF1020FEF72CFF97
:10205000002205211120FEF735FFBDE808401120C0
:10206000FEF722BF0010024010B592B0FFF730FF1C
:10207000144A0021144800F0D3FC144C2421A06021
:102080006846FEF7B4F80F49242224316846FEF76B
:1020900095F86A4600210E4800F0C2FC2060242119
:1020A00009A8FEF7A4F807492422483109A8FEF739
:1020B00085F809AA0021074800F0B2FC606012B060
:1020C00010BD000020410008A121000800000020F0
:1020D0002322000835220008114808B5816941F023
:1020E00010018161816901F010010091816941F065
:1020F00020018161816901F020010091816941F035
:1021000004018161816901F004010091816941F05C
:1021100008018161806900F00800009008BD00009E
:10212000001002400D4810B50B4901600C49416098
:1021300000214FF480428160C0E903124161816156
:10214000C1610162FEF740FB002803D0BDE81040EA
:10215000FEF7B0B810BD000000540040AC000020F5
:10216000A08601000C4810B50A4901604FF4E13126
:102170004160002181600C22C160C0E904128161CC
:10218000C161FFF799FB002803D0BDE81040FEF7BE
:1021900091B810BD0038014088010020FEE7FEE73D
:1021A000012000F002FCFBE710B54FF0E0200069D1
:1021B00001F000FE012803D0BDE8104001F02EBB65
:1021C00010BD30B58FB028216846FEF710F81421F5
:1021D0000AA8FEF70CF801210804CDE9001000243C
:1021E000029402250491CDE907504FF4E0100990C4
:1021F0006846FEF795FF08B172B6FEE70F20CDE9FD
:102200000A054FF48060CDE90C4002210AA80E9423
:10221000FEF78AFE002801D072B6FEE70FB030BD8F
:1022200070474FF47A74FFF7ABFE204600F0BDFB19
:10223000F9E70000C4B0154C154E164FDFF8588072
:10224000DFF85890DFF858A0DFF858B00025207864
:10225000B8B12570B9F90000B6F90030B7F900201F
:10226000B8F900108DE80F00BAF90030BBF9002072
:102270000D4904A800F0ACF982B204A90B48FFF79D
:10228000BDFB4FF47A7000F090FBE0E79C0000206B
:10229000A8000020A6000020A4000020A20000202A
:1022A000A00000209E000020B84100088801002006
:1022B0000148FFF722B9000058020020F0B502687B
:1022C000194B1A4C1A4D4FF08047984205D0B8422E
:1022D00003D0A04201D0A84203D122F070064A6880
:1022E0003243984205D0B84203D0A04201D0A84260
:1022F00003D122F44074CA6822434C6922F0800260
:10230000224302608A68C2620A688262984201D1EE
:1023100009690163012141610169C90703D00169AC
:1023200021F001010161F0BD002C014000040040DA
:102330000008004010B5406A0021C185C184FFF744
:1023400083F910BD70B5446A2068406994F8411063
:10235000C0F3C0100025212904D118B1E58420461E
:1023600000F062F82068406994F84210C0F38010D1
:10237000222904D118B1E585204600F02EF8606CC2
:1023800040F0100060642046FFF75EF970BD10B5A4
:102390000146406A09680968890616D40021C1848B
:1023A0000168143151E8002F22F0800241E8002337
:1023B000002BF5D101680C3151E8002F42F04002AA
:1023C00041E80023002BF5D110BDFFF753FB10BDF2
:1023D00010B5406AFFF75AFB10BD01680C3151E897
:1023E000002F22F4907241E80023002BF5D1016800
:1023F000143151E8002F22F0010241E80023002BA4
:10240000F5D1016B012909D101680C3151E8002F88
:1024100022F0100241E80023002BF5D1202180F8A2
:10242000421000210163704701680C3151E8002F10
:1024300022F0C00241E80023002BF5D1202180F8D2
:102440004110704708B590F84210222901D00220AF
:1024500008BD82684FF480539A4201D1016921B1CD
:10246000816A9A421BD04AB10AE00268816A5268C6
:10247000C2F308020A80816A891C08E0026972B10D
:102480000268526802F07F020A70816A491C816208
:10249000C18D491E0904090CC18503D01BE00268E7
:1024A0005268F1E70168CA6822F02002CA60016838
:1024B000CA6822F48072CA6001684A6922F0010287
:1024C0004A61202180F8421000214163026B012AF9
:1024D00003D0FFF791FA002008BD016301680C31B9
:1024E00051E8002F22F0100241E80023002BF5D123
:1024F00001680A68D20602D50A6849680091818D90
:10250000FFF7A1F8E7E7000070B50446006801692D
:10251000E26821F44051114301612169A068084338
:10252000616908432168CA6841F20C639A43024317
:10253000CA6020684169A26921F440711143416178
:102540001E492068884202D1FEF7B4FD01E0FEF783
:10255000A1FD00EBC00101EB001260686421800066
:10256000B2FBF0F3B3FBF1F36FF018067343B2FB69
:10257000F0F5B2FBF0F605EB8305322303EB05150E
:10258000B5FBF1F5B6FBF1F605F0F00505EB061528
:10259000B2FBF0F6B2FBF0F0B0FBF1F06FF0180216
:1025A000504306EB800003EB0010B0FBF1F0216814
:1025B00000F00F002844886070BD00000038014022
:1025C0000148FFF743B8000088010020FEE7000043
:1025D0000FB4084B10B504A902AA039800F02CF818
:1025E000044602A9002000F0C8F9204610BC5DF89E
:1025F00014FB00007B2900080907090E002804DBF2
:1026000000F1E02080F80014704700F00F0000F1A6
:10261000E02080F8141D704702E008C8121F08C1AE
:10262000002AFAD170477047002001E001C1121F53
:10263000002AFBD1704700002DE9FF4F8BB0884680
:102640000546002606E025280BD0DDE90D1290474F
:102650006D1C761C28780028F5D10FB03046BDE8F7
:10266000F08F0024A146A2460122AE4900E00443B7
:1026700015F8013F203B02FA03F00842F7D1287811
:102680002A2810D06FF02F022878A0F130010929F4
:1026900015D809EB890102EB410144F0020400EB7B
:1026A00001096D1CF0E758F8041B5FEA010903D526
:1026B00044F40054C9F1000944F002046D1C287868
:1026C0002E2817D115F8010F44F004042A280ED043
:1026D0006FF02F022878A0F1300109290AD80AEBFF
:1026E0008A0102EB410100EB010A6D1CF2E758F888
:1026F00004AB6D1C28786C280FD006DC4C2817D052
:1027000068280DD06A2814D104E0742810D07A28E3
:102710000FD10DE044F400140AE044F4801401E009
:1027200044F440146978814202D104F580146D1C90
:102730006D1C2878692865D006DC00288DD06328B8
:1027400027D0642806D15DE06E2808D073282AD0EF
:10275000752877D0DDE90D129047761CE0E0C4F3D0
:102760000250022809D003280DD0D8F80010042800
:102770000DD00E6008F10408D2E0D8F80010F2176E
:10278000C1E90062F6E7D8F800100E80F2E70E709B
:10279000F0E718F8041B8DF8001000208DF80100F8
:1027A000EB46012003E058F804BB4FF0FF3061070F
:1027B0004FF0000701D40AE07F1C57450DDA87422D
:1027C000FADB1BF807100029F6D106E07F1C8742D0
:1027D000FCDB1BF807100029F8D1DDE90D23A9EB7C
:1027E00007008146214600F0B1F83044C61904E0E4
:1027F000DDE90D121BF8010B90477F1EF8D2214630
:10280000484688E058F8040BC4F302514FF00A0B15
:10281000032900D100B2042900D140B2002802DA15
:1028200040422D2102E0210505D52B218DF82410F1
:10283000012104E006E0E10710D02021F6E708AF0F
:10284000089113E058F8040BC4F302514FF00A0B3F
:10285000032900D180B2042900D1C0B20021EEE7E3
:102860005946FDF7CFFC303107F8011D0028F7D19C
:10287000ADEB070000F1200B600702D524F4803493
:1028800001E04FF0010ADA4502DDAAEB0B0000E09F
:102890000020824600EB0B0108980144A9EB0100DF
:1028A0000A90E00306D4DDE90D2321460A9800F0E2
:1028B0004DF806444FF0000908E009A911F8090095
:1028C000DDE90D12904709F10109761C0899894547
:1028D000F3DBE0030CD5DDE90D2321460A9800F077
:1028E00035F8064404E0DDE90D1230209047761CEF
:1028F000BAF10001AAF1010AF5DC05E0DDE90D12EB
:1029000017F8010B9047761CBBF10001ABF1010BEE
:10291000F4DC0A982146DDE90D2300F005F80644B1
:102920006D1C97E6092801002DE9F04104460025B9
:102930001E461746880404D405E039462020B047D7
:102940006D1C641EF9D52846BDE8F0812DE9F041E3
:10295000044600251E469046C80301D5302700E0F6
:102960002027880404D505E041463846B0476D1C51
:10297000641EF9D52846BDE8F0810A68531C0B6037
:1029800010707047FEF70EFAFFF71BFCFFF7A4FB71
:10299000FFF73CFBFFF7C6FBFFF7E4FB00F012F884
:1029A000FFF762FB00F020F8FEE710B5EFF30581BA
:1029B00011B16FF0050403E0002408B100F0F4FD4C
:1029C000204610BDEFF3058010B16FF00500704791
:1029D0000448016811B14FF0FF30704701210160D8
:1029E000002070476C00002010B5EFF3058010B197
:1029F0006FF0050010BD08480168012902D04FF0B2
:102A0000FF3010BD054A002182F8141D022101602B
:102A100000F032FE002010BD6C0000200BE000E052
:102A20002DE9FF414FEA01034FF00005EFF3058167
:102A3000039549BB40B38027182100244AB3166888
:102A400006B1344696691EB13146761E382E02D242
:102A50001679F60703D0002004B0BDE8F08156696E
:102A600006B1B708D2F808C0BCF1000F0DD0D56888
:102A70005C2D18D312693AB136B18DE806103A468A
:102A8000214601F06CF903900DE0D6685EB9126939
:102A90004AB903AACDE90012BAB2214601F032F9CF
:102AA000012800D003950398D6E700002DE9F041F6
:102AB000134C0F460546E6682068001D00F040FCF8
:102AC000681C07D137B12168BDE8F0410D48091DE8
:102AD00000F086BC20683544B5424560216805D2C7
:102AE000A06BBDE8F041091D00F062BC606B091DE0
:102AF00000F05EFCA06A854200D2A562BDE8F081CC
:102B00001C000020900700202DE9F041054600F050
:102B100073FC2D4CA068401CA06020682B4F10B1A6
:102B2000606930B32BE02560A068012827D100261A
:102B300006EB860007EB800000F02CFC761C382E9C
:102B4000F6D3234800F026FC2148143000F022FC84
:102B50001F48283000F01EFC1D483C3000F01AFCD5
:102B60001B48503000F016FC194860631430A06315
:102B700005E02068E96AC06A884200D82560606A7A
:102B8000401C60626864E86A2169884200D920615B
:102B900000EB800007EB8000291D00F021FC00F015
:102BA0004BFC606900280CD02068E96AC06A884242
:102BB00007D208494FF080500860BFF34F8FBFF332
:102BC0006F8FBDE8F08100001C000020E0020020B3
:102BD0004007002004ED00E038B500F00DFC104C7B
:102BE0002068C8B90F4800F0D5FB0E48143000F03B
:102BF000D1FB0C48E060143020610A4B0020F03B10
:102C0000009003F1500210210A2000F01DFE206008
:102C100010B105A100F092FCBDE8384000F00CBCFA
:102C20005800002094080020546D725100000000EC
:102C300030B4026C0B46002A0BD0C1681144C1604D
:102C40008468A14201D30168C16030BC1846FDF719
:102C5000B5BA30BC70472DE9F041856B1746044684
:102C60000026026C82B1C7B1E068FDF7A7FAE168FF
:102C7000206C091AE1602268914202D2A168081A08
:102C8000E060022F16D017E02068A8B9A06801F014
:102C900009F906460020A0600EE06068FDF78EFA94
:102CA000216C606808446060A168884204D3206891
:102CB000606001E005B16D1E6D1CA5633046BDE886
:102CC000F08110B5044690F8590058B101280CD095
:102CD00002280FD0502080F31188BFF34F8FBFF32D
:102CE0006F8FFEE7206B00F0BBFB2046BDE8104075
:102CF00000F0B6BB10BD000010484FF44061420721
:102D000006D0C01D0D4920F00700411AC1F54061F1
:102D10000B4A00230144C2E900030839183A21F0A4
:102D2000070111604B600B600B1AC0E90013936040
:102D30004FF000405360506170470000740F002056
:102D400088000020144E154CA6F29C474FF0805886
:102D5000DFF84C9012E000BF00F04EFBF068C56851
:102D6000281D00F0EDFAA068401EA0606068401EBB
:102D7000606000F061FB2846FFF7A3FF6068002851
:102D8000EAD138680128F9D9C9F80080BFF34F8F1C
:102D9000BFF36F8FF2E700007C0700201C000020CB
:102DA00004ED00E070B51D46049C51B1C4F800204C
:102DB000C4E90F010121204600F07AFD84F84C504F
:102DC00070BD2460F4E700002DE9F05F8846DDE97E
:102DD0000B941546834691009A460A9EA522206BC5
:102DE000FDF7FEF96FF00301206B01EB850108444C
:102DF00020F00707780707D0502080F31188BFF331
:102E00004F8FBFF36F8FFEE70025B8F1000F0FD093
:102E10005FF00000221818F8001082F8341018F83B
:102E2000001011B1401C1028F4D384F8435001E085
:102E300084F83450382E00D33726E662C4E913658F
:102E4000201D00F0B2FA04F1180000F0AEFA24617F
:102E5000C6F138006462A061656584F85850524636
:102E60005946384600F05AFA2060B9F1000F01D0F7
:102E7000C9F80040BDE8F09F30B5114900E01146A7
:102E80000A688242FBD34B685C18844203D14068D5
:102E900018444860084643681C18944209D1084CFD
:102EA000183C2468A24209D052681A4442600A6859
:102EB00012680260814200D0086030BD0460F9E70A
:102EC0008800002070B5002441600B4D00619142E4
:102ED00006D8D11A8269914206D2011D286907E0FD
:102EE0009A4203D2994201D3012403E0011DE8680C
:102EF00000F05EFA204670BD5800002010B5044670
:102F000000F07AFAA06B28B15FF0000400F094FAA8
:102F1000204610BD0124F9E730B589B03C4D6EE084
:102F20000498002806DADDE90601059A904704981E
:102F3000002864DB069C606910B1201D00F000FAD7
:102F400003A800F0D7F8024604980A2857D2DFE811
:102F500000F00505052D334A05052D3394F82800AA
:102F600040F0010084F828000599A069059B014400
:102F70002046FFF7A7FF68B3216A2046884794F8E8
:102F8000280040073BD5002000900598A169002348
:102F900042181946204601F08FF8D8B9502080F326
:102FA0001188BFF34F8FBFF36F8FFEE714F8280F20
:102FB00020F00100207022E094F8280040F0010089
:102FC00084F828000598A06128B18118134620468E
:102FD000FFF778FF13E0502080F31188BFF34F8F85
:102FE000BFF36F8FFEE794F82800810703D42046D3
:102FF00000F036FA03E020F0010084F828000022F7
:1030000004A9286800F0A8FD002889D109B030BDC6
:10301000580000202DE9FC410F46054600F070FBEA
:1030200001A800F067F80446019818B100F0B2FF5B
:10303000BDE8FC81254EAFB130690068D0B30027F0
:10304000291B3A46306800F08DFA00F0A3FF0028F3
:10305000EED11F494FF080500860BFF34F8FBFF390
:103060006F8FE5E7A542EBD800F094FFF0682746A4
:10307000C068C468201D00F063F994F82800410777
:1030800019D5A0692B4641193A462046FFF71AFF89
:10309000A8B100200346014600902A46204601F0D0
:1030A0000BF860B9502080F31188BFF34F8FBFF346
:1030B0006F8FFEE707E020F0010084F82800216A06
:1030C00020468847B4E70127BAE7000058000020EF
:1030D00004ED00E00648416B096829B1416BC968FD
:1030E000C9684968816270474FF0FF31FAE7000014
:1030F0001C00002070B5054600F06AFE064E04462E
:10310000B068844203D200F009F8012000E00020FA
:1031100028602046B46070BD58000020F8B5194DF5
:1031200020E0C068C4680668201D00F009F9216A23
:103130002046884794F82800400713D5A0693044FA
:10314000B04206D924616060211DE86800F030F9C2
:1031500008E000200346014600903246204600F079
:10316000ABFF38B1E86801680029DAD12969C5E9FF
:103170000310F8BD502080F31188BFF34F8FBFF3C9
:103180006F8FFEE75800002008484068401C4FF051
:10319000500080F3118804D0BFF34F8FBFF36F8FBF
:1031A000FEE7BFF34F8FBFF36F8FFEE79000002065
:1031B000074CE068016841B1C0680021D0F8000008
:1031C000FFF728FFFFF7A8FEF3E701210020F7E74C
:1031D000580000202DE9F041044600F00DF994F963
:1031E000455004F1240609E0606A48B1304600F019
:1031F00099FE08B100F006FA6D1E6DB2002DF3DCE9
:103200004FF0FF3684F8456000F016F900F0F4F84E
:1032100094F9445004F1100709E0206948B1384698
:1032200000F080FE08B100F0EDF96D1E6DB2002DCA
:10323000F3DC84F84460BDE8F04100F0FDB8000024
:103240002DE9F0410546002700F05AFA324E306869
:1032500008B9FFF751FD706905424ED1C5B3083575
:1032600068070ED005F00700C0F1080005446807A4
:1032700007D0502080F31188BFF34F8FBFF36F8FBB
:10328000FEE72DB37068854237D8234818300146D1
:103290000C6801E020460C466168A94202D2216810
:1032A0000029F7D131688C4227D007682168016076
:1032B00060680837411B10290FD96019420708D0F0
:1032C000502080F31188BFF34F8FBFF36F8FFEE75D
:1032D00013E041606560FFF7CFFD61687068401AD8
:1032E0007060B268904200D2B06070690143002003
:1032F000C4E90001F068401CF06000F04BFE780764
:1033000007D0502080F31188BFF34F8FBFF36F8F2A
:10331000FEE73846BDE8F0817000002010B5031FBD
:103320004FF080741C601B1F21F001011960191FF0
:10333000024B0B60143940380A6010BD8931000817
:10334000D0E9013201699A60D0E901235A604A68E4
:10335000824201D182684A60002202610868401EF0
:103360000860086870470000034B036003F15C00CD
:103370000860802010607047BC080020044B036088
:1033800003F15C0008604FF480701060704700002B
:10339000180B002000F108014FF0FF32C0E90112C4
:1033A000C160016100210160704700210161704727
:1033B00030B50B685A1C02D000F1080202E0026925
:1033C00004E02246546825689D42FAD953684B6050
:1033D00099608A60516008610168491C016030BDD4
:1033E00042684A6093688B60936859609160086195
:1033F0000168491C01607047502080F31188BFF3B9
:103400004F8FBFF36F8F0A494868401C48600128FE
:103410000CD10848006810F0FF0F07D0502080F34F
:103420001188BFF34F8FBFF36F8FFEE77047000027
:103430009000002004ED00E00849486828B1401ED3
:10344000486001D180F311887047502080F31188C3
:10345000BFF34F8FBFF36F8FFEE700009000002097
:1034600070B500282AD0164DA0F10804606869697B
:10347000084207D1502080F31188BFF34F8FBFF36C
:103480006F8FFEE722683AB1502080F31188BFF3B6
:103490004F8FBFF36F8FFEE78843606000F030F915
:1034A00060686968084468602046FFF7E5FC2869A1
:1034B000401C2861BDE8704000F06CBD70BD00008C
:1034C000700000204FF0E02000210161816105497A
:1034D0004FF47A720968B1FBF2F1491E416107218C
:1034E000016170471800002010B5FCF751FE11492A
:1034F00010280ED300F1E02090F8F0030A789042F3
:1035000007D2502080F31188BFF34F8FBFF36F8F26
:10351000FEE709480068896800F4E060884207D93E
:10352000502080F31188BFF34F8FBFF36F8FFEE7FA
:1035300010BD0000900000200CED00E010B5084B1D
:10354000002200BF53F832401CB1521C082AF9D3A4
:1035500010BD43F8321003EBC201486010BD0000FB
:10356000A002002070B515460E460446FFF744FF42
:1035700094F944100020491C01D184F8440094F9C6
:103580004510491C01D184F84500FFF755FFA06B99
:1035900028B92A46314604F1240000F051F82046AB
:1035A000BDE87040FFF716BE10B5020014D00F48FA
:1035B000006B38B1502080F31188BFF34F8FBFF3F9
:1035C0006F8FFEE700F09CF800211046FFF76EFABF
:1035D00000F0E0FC002807D105494FF0805008605A
:1035E000BFF34F8FBFF36F8F10BD00001C00002092
:1035F00004ED00E002490A6A0260C9684160704750
:103600001C00002001490120C86170471C000020F7
:1036100010B50C4650B1094909681831FFF7C8FECA
:103620002046BDE810400121FFF740BA502080F34A
:103630001188BFF34F8FBFF36F8FFEE71C00002090
:1036400070B514460D4668B10A4909681831FFF78C
:10365000C7FE0CB14FF0FF3521462846BDE870404B
:10366000FFF724BA502080F31188BFF34F8FBFF3C8
:103670006F8FFEE71C00002030B587B00024039454
:1036800005AA04A903A80494FFF76EFEDDE903016F
:103690000094CDE90110002315A11748059A00F008
:1036A0005EFB164D0028E8621FD000F0D5FC012813
:1036B00009D0401C19D1502080F31188BFF34F8FDF
:1036C000BFF36F8FFEE7502080F31188BFF34F8F59
:1036D000BFF36F8F4FF0FF30A86201206861EC608C
:1036E00007B0BDE8304000F045B807B030BD00007D
:1036F00049444C4500000000452D00081C000020F6
:103700000248016B491C0163704700001C00002047
:10371000164810B5016B11B10121C16110BD002126
:10372000C1610169124A01E0B9B1491E01EB81038F
:1037300052F82330002BF7D001EB810302EB830218
:1037400002F1080453685B685360A34201D15B68CF
:103750005360DA680260016110BD502080F3118867
:10376000BFF34F8FBFF36F8FFEE700001C000020F8
:10377000E00200201CB5264908780190FF2008705F
:1037800008788DF800009DF800009DF8002000F0FA
:10379000F000904207D0502080F31188BFF34F8F84
:1037A000BFF36F8FFEE79DF800001A4C00F0500049
:1037B00020700720A06005E09DF8002052008DF8E1
:1037C0000020401E9DF800201206F5D4A0600328BA
:1037D00007D0502080F31188BFF34F8FBFF36F8F56
:1037E000FEE74FF44070A060019808700A48016835
:1037F00041F470010160016841F070410160FFF720
:1038000061FE00206060FCF78DFC00201CBD000004
:1038100000E400E09000002020ED00E010B5502012
:1038200080F31188BFF34F8FBFF36F8F00F0D6FA8C
:1038300018B104494FF080500860002080F31188CF
:1038400010BD000004ED00E038B5049D18B153B17F
:10385000CAB181B120E0502080F31188BFF34F8FAF
:10386000BFF36F8FFEE7502080F31188BFF34F8FB7
:10387000BFF36F8FFEE7502080F31188BFF34F8FA7
:10388000BFF36F8FFEE739B1502080F31188BFF38B
:103890004F8FBFF36F8FFEE750241C46012384F83F
:1038A00046302B460094FFF77DFA204638BD0000D5
:1038B00070B50D46040025D0FFF79EFDD4E90F201A
:1038C000216802FB0011A1600021A16321686160F1
:1038D0000A46D4E90F01401E00FB0121E1602146A8
:1038E0004FF0FF3001F8440F487004F110008DB123
:1038F000FFF750FD04F12400FFF74CFDFFF79CFD9E
:10390000012070BD502080F31188BFF34F8FBFF3AB
:103910006F8FFEE721690029F0D000F003FB00283B
:10392000ECD004494FF080500860BFF34F8FBFF3D5
:103930006F8FE3E704ED00E02DE9FF4782B01D46FD
:103940008A464FF00008040003D0BAF1000F08D0F7
:1039500011E0502080F31188BFF34F8FBFF36F8FBA
:10396000FEE7206C38B1502080F31188BFF34F8FF1
:10397000BFF36F8FFEE7022D0AD1E06B012807D05D
:10398000502080F31188BFF34F8FBFF36F8FFEE796
:1039900000F010FA3F4F4FF000094FF0805648B941
:1039A000049838B1502080F31188BFF34F8FBFF3D4
:1039B0006F8FFEE7FFF720FDA06BE16B884207D316
:1039C000022D05D00498D0B1B8F1000F1AD01EE036
:1039D0002A4651462046FFF73EF9616A19B104F1C3
:1039E000240000F09FFA20B13E60BFF34F8FBFF379
:1039F0006F8FFFF721FD012006B0BDE8F087FFF7CC
:103A00001BFD22E06846FFF7F5FD4FF00108FFF7C8
:103A100013FDFFF775FEFFF7EFFC94F94400401C1F
:103A200001D184F8449094F94500401C01D184F8F8
:103A30004590FFF701FD04A9684600F029F930B16F
:103A40002046FFF7C7FB00F0A5FA0020D4E7FFF7F8
:103A5000D3FCA06BE16B884213D1FFF7EDFC04F1BE
:103A600010000499FFF7D4FD2046FFF7B3FB00F0E8
:103A700091FA00289ED13E60BFF34F8FBFF36F8F46
:103A800098E7FFF7D9FC2046FFF7A4FB00F082FA85
:103A900090E7000004ED00E02DE9F0471F46904656
:103AA0008946040003D0B9F1000F08D011E050207E
:103AB00080F31188BFF34F8FBFF36F8FFEE7206C49
:103AC00038B1502080F31188BFF34F8FBFF36F8F51
:103AD000FEE7022F0AD1E06B012807D0502080F3C7
:103AE0001188BFF34F8FBFF36F8FFEE7FFF7FCFC2A
:103AF0005020EFF3118680F31188BFF34F8FBFF38F
:103B00006F8FA06BE16B884206D3022F04D0002098
:103B100086F31188BDE8F08794F94550A06B3A46CA
:103B200049462046FFF797F8681C04D06D1C84F8BE
:103B300045500120ECE7606A0028FAD004F1240027
:103B400000F0F0F90028F4D0B8F1000FF1D0012115
:103B5000C8F80010EDE700002DE9F747002683B014
:103B60008A46040003D0BAF1000F08D011E05020BB
:103B700080F31188BFF34F8FBFF36F8FFEE7206C88
:103B800038B1502080F31188BFF34F8FBFF36F8F90
:103B9000FEE700F00FF9DFF8F4804FF000094FF076
:103BA000805748B9059838B1502080F31188BFF389
:103BB0004F8FBFF36F8FFEE7FFF71EFCA56BC5B1FC
:103BC00051462046FFF734F86D1EA563206950B1B9
:103BD00004F1100000F0A6F928B1C8F80070BFF396
:103BE0004F8FBFF36F8FFFF727FC012006B0BDE8B2
:103BF000F087059808B11EB106E0FFF71DFC27E02D
:103C00006846FFF7F7FC0126FFF716FCFFF778FD83
:103C1000FFF7F2FB94F94400401C01D184F8449072
:103C200094F94500401C01D184F84590FFF704FC4D
:103C300005A9684600F02CF8002820460AD0FFF7B6
:103C4000C9FA00F0A7F92046FFF758F90028B3D0C9
:103C50000020CBE7FFF752F990B104F12400059959
:103C6000FFF7D6FC2046FFF7B5FA00F093F90028DD
:103C7000A2D1C8F80070BFF34F8FBFF36F8F9BE7DF
:103C80002046FFF7A7FA00F085F995E704ED00E07C
:103C90002DE9F0410C46050011D0C4B1FFF7ACFB93
:103CA000174BDA686E682068911B471C17D02F6885
:103CB0001B6A9F4219D0964217D8012410E0502069
:103CC00080F31188BFF34F8FBFF36F8FFEE7502053
:103CD00080F31188BFF34F8FBFF36F8FFEE700248F
:103CE000FFF7AAFB2046BDE8F081884205D9401ABB
:103CF00020602846FFF77EFCF1E700202060DCE72B
:103D00001C0000202DE9FF5F8346DDE90E87994600
:103D100016468A469000FFF793FA05001CD05C20F7
:103D2000FFF78EFA040014D00020256384F85900B0
:103D3000CDE90240CDE900874B4632465146584610
:103D4000FFF742F82046FEF7DFFE012004B0BDE891
:103D5000F09F2846FFF784FB4FF0FF30F6E7F0B501
:103D600085B0DDE90B640A9DA6B1DCB15C27009744
:103D70002663022684F85960002604AFCDE9024686
:103D8000CDE90057FFF720F82046FEF7BDFE049866
:103D900005B0F0BD502080F31188BFF34F8FBFF303
:103DA0006F8FFEE7502080F31188BFF34F8FBFF372
:103DB0006F8FFEE70548416919B1006B18B100200B
:103DC0007047012070470220704700001C0000204F
:103DD0000148C068704700001C0000202DE9F04138
:103DE0002E4C0027206B28B1A069401CA0613846EA
:103DF000BDE8F081E668761CE66013D1606B006870
:103E000038B1502080F31188BFF34F8FBFF36F8F0D
:103E1000FEE7606BA16B6163A063206A401C2062B7
:103E2000FFF758F9A06ADFF87880864209D3606B03
:103E30000068A0B1606BC068C5686868864211D22E
:103E4000A0622068C06A00EB800158F821000128B8
:103E500000D90127E0690028C9D00127C7E74FF042
:103E6000FF30EDE7281DFFF76BFAA86A18B105F1DE
:103E70001800FFF765FAE86A2169884200D92061D5
:103E800000EB800108EB8100291DFFF7A9FAE86A21
:103E90002168C96A8842CAD30127C8E71C000020EC
:103EA000E002002070B504004FF0000133D01B4D3C
:103EB0002868844207D0502080F31188BFF34F8FC9
:103EC000BFF36F8FFEE7206D38B1401E2065E36CB5
:103ED000E26A9A421FD040B11DE0502080F3118861
:103EE000BFF34F8FBFF36F8FFEE7201DFFF728FA58
:103EF000E06CE062C0F13800A061E06A29698842A4
:103F000000D92861064900EB800001EB8000211DEB
:103F1000FFF766FA0121084670BD00001C00002072
:103F2000E002002070B5C068C46854B104F1180004
:103F30000646FFF705FA144D286B50B13146134879
:103F400015E0502080F31188BFF34F8FBFF36F8FC0
:103F5000FEE7201DFFF7F4F9E06A2969884200D9DD
:103F600028610B4900EB800001EB8000211DFFF769
:103F700037FAE06A2968C96A884202D90120E861F3
:103F800070BD002070BD00001C00002068070020EC
:103F9000E00200202DE9F0472C4D00242746286B35
:103FA00038B1FFF729FA286B401E2863286B40B10F
:103FB00046E0502080F31188BFF34F8FBFF36F8F1F
:103FC000FEE7A968224E0120D1B3A6F5916980468B
:103FD0003068E0B1F068C46804F11800FFF7B0F988
:103FE000201DFFF7ADF9E06A2969884200D92861F0
:103FF00000EB800109EB8100211DFFF7F1F9E06A78
:104000002968C96A8842E3D3C5F81C80E0E70CB18F
:10401000FFF760F8AC694CB14FEA0806FFF7DEFE27
:1040200000B1EE61641EF9D10020A861E86938B1E1
:104030000849012738070860BFF34F8FBFF36F8F20
:10404000FFF7FAF93846BDE8F08700001C000020B1
:104050006807002004ED00E010B586B0FEF7BCFD57
:10406000114C2068B8B100200390049005AA04A95F
:1040700003A8FFF783F9DDE9032102208DE807009B
:1040800000230AA10B48059AFFF769FE606010B192
:1040900006B0012010BD502080F31188BFF34F8F70
:1040A000BFF36F8FFEE7000058000020546D7220B0
:1040B00053766300B13100082DE9FF411E461346D7
:1040C00002000A9D4FF0000016D0144C2768002F04
:1040D0000FD0CDE900130292062917DAFFF76AFE26
:1040E00002284FF000030FD0002269462068FFF736
:1040F00023FC04B0BDE8F081502080F31188BFF3A9
:104100004F8FBFF36F8FFEE72A46EEE7002332465C
:1041100069463846FFF7C0FCEBE700005800002076
:10412000184200080000000000000000000000002D
:104130000000000000020000180000000000000065
:10414000000000000C420008000000000000000019
:104150000000000000000000000100001800000046
:104160000000000000000000004200080000000005
:10417000000000000000000000000000000200003D
:10418000180000000000000000000000010202030F
:104190000405060708090A0B0C0D0E0F101000008D
:1041A00000000000000001020304060708090000E7
:1041B00000000102030400000D0A416363656C5FA7
:1041C000783A25640D0A416363656C5F793A25642A
:1041D0000D0A416363656C5F7A3A25640D0A47797D
:1041E000726F5F783A25640D0A4779726F5F793A8A
:1041F00025640D0A4779726F5F7A3A25640D0A00CB
:104200005441534B5F5452414E5300005441534B61
:104210005F4D50550000000064656661756C745414
:1042200061736B004442000800000020AC000000F5
:1042300018260008F0420008AC000020CC1E000048
:104240002826000800000000000000000000000018
:1042500001000000100000000000000000127A00C1
:10426000000000000000000000000000000000004E
:10427000000000000000000000000000000000003E
:10428000000000000000000000000000000000002E
:10429000000000000000000000000000000000001E
:1042A000000000000000000000000000000000000E
:1042B00000000000000000000000000000000000FE
:1042C00000000000000000000000000000000000EE
:1042D0000000000000000000AAAAAAAA0000000036
:1042E00001000000000000000000000000000000CD
:04000005080000ED02
:00000001FF
