:020000040800F2
:10000000001F00209901000863190008E917000883
:100010006119000849020008991F0008000000004B
:1000200000000000000000000000000001010008C6
:100030008F02000800000000450100086D1900084B
:10004000B3010008B3010008B3010008B3010008C0
:10005000B3010008B3010008B3010008B3010008B0
:10006000B3010008B3010008B3010008B3010008A0
:10007000B3010008B30100084D020008590200084E
:10008000B3010008B3010008B3010008B301000880
:10009000B3010008B3010008B3010008B301000870
:1000A000B3010008B3010008B3010008B301000860
:1000B000B3010008B3010008E9190008B301000802
:1000C000B3010008B3010008B3010008B301000840
:1000D000B30100088D1F0008B3010008B301000838
:1000E000B3010008B3010008B3010008DFF80CD029
:1000F00000F098F800480047D91F0008001F0020B2
:10010000224B19680868B0E8F00F80F30988BFF344
:100110006F8F4FF0000080F311884EF00D0E704786
:100120000000000006480068006880F3088862B696
:1001300061B6BFF34F8FBFF36F8F00DF00BF00BF0B
:1001400008ED00E0EFF30980BFF36F8F0F4B1A68E3
:1001500020E9F00F106008B54FF0500080F31188CF
:10016000BFF34F8FBFF36F8F02F060FE4FF00000C0
:1001700080F31188BDE8084019680868B0E8F00FFE
:1001800080F30988BFF36F8F704700BF1400002011
:10019000EFF3058070470000064880470648004797
:1001A000FEE7FEE7FEE7FEE7FEE7FEE7FEE7FEE727
:1001B000FEE7FEE7E5190008ED00000840EA01034C
:1001C0009B0703D009E008C9121F08C0042AFAD20D
:1001D00003E011F8013B00F8013B521EF9D27047D1
:1001E000D2B201E000F8012B491EFBD27047002279
:1001F000F6E710B513460A4604461946FFF7F0FF26
:10020000204610BD30B505460020034600E05B1CCB
:10021000934205D2EC5CC85C201A01D1002CF6D1C7
:1002200030BD0000064C074D06E0E06840F00103D9
:1002300094E8070098471034AC42F6D3FFF75AFF12
:1002400098380008B8380008FEE70000014800F0C0
:10025000C7B800007C010020014800F0C1B80000D0
:100260003801002030B590F840500124AC40C56BF7
:100270006C60046863604368102B036803D0996066
:100280000068C26030BD9A600068C16030BD7047D0
:1002900072B6FEE77CB50D480424CDE90040A0F11C
:1002A0000C05002380220AA1686803F0B9F805F163
:1002B0001000CDE90040002380220AA1A86803F0C5
:1002C000AFF8BDE87C4002F065BD0000A000002052
:1002D0007461736B5F627265617468696E675F6C8D
:1002E000656400007461736B5F73657269616C5F54
:1002F000636F6D6D756E69636174696F6E73000015
:1003000010B590F821100022022905D00421816344
:1003100080F82020012010BD01680B6823F00E0337
:100320000B6001680B6823F001030B6090F840300C
:10033000C46B012101FA03F3636080F8211080F897
:100340002020104610BD000010B590F821100024A8
:10035000022903D00421816301243DE001680A6879
:1003600022F00E020A6001680A6822F001020A60A7
:100370001A4A0168914201D1012121E0174A143241
:10038000914201D110211BE0144A2832914201D13F
:10039000891515E0114A3C32914201D189140FE0D0
:1003A0000E4A5032914202D14FF4803108E00B4A9C
:1003B0006432914202D14FF4801101E04FF080711C
:1003C000064A083A5160012180F82110002180F886
:1003D0002010416B01B18847204610BD0800024043
:1003E0002DE9F05FC16B0C6801680B68D0F840C064
:1003F000042202FA0CF2494DDFF824A1494E4A4F7B
:10040000DFF828B1DFF828E122422CD05A072AD59C
:100410000A68920603D40A6822F004020A6001689E
:10042000A94201D1042219E0514501D1402215E031
:10043000B14202D14FF4806210E0B94202D14FF4D0
:1004400080420BE0594502D14FF4802206E071450D
:1004500002D14FF4800201E04FF080622F49083949
:100460004A60C16A3BE04FF0020808FA0CF818EA4B
:10047000040F4FF000094FF0010235D05FEA837896
:1004800032D50B689B0605D40B6823F00A030B607A
:1004900080F821200168A94201D1022219E05145CA
:1004A00001D1202215E0B14202D14FF4007210E0D8
:1004B000B94202D14FF400520BE0594502D14FF43A
:1004C000003206E0714502D14FF4001201E04FF016
:1004D0000072124908394A6080F82090816A002928
:1004E0001AD0BDE8F05F0847082505FA0CF525424B
:1004F00012D01B0710D50B6823F00E030B6090F889
:100500004010C36B02FA01F15960826380F8212028
:1005100080F82090016BE2E7BDE8F09F0800024000
:100520001C000240300002404400024058000240DB
:100530006C00024030B528B308C81349142219448E
:10054000B1FBF2F18900C163104981630221417757
:100550001A6843F6F0718A43D0E900142143D0E9C8
:1005600002452C43214304692143446921438469A2
:100570002143114319600021416301224277017731
:10058000084630BD012030BDF8FFFDBF000002402D
:1005900070B5044690F82000002501280CD00120F9
:1005A00084F8200094F821600020012E06D084F801
:1005B00020000225284670BD022070BD022684F866
:1005C0002160A0632068066826F0010606602046C8
:1005D000FFF748FEE06A00282068016802D041F079
:1005E0000E0106E021F0040101602068016841F07D
:1005F0000A0101602068016841F001010160D9E74A
:1006000070B5044600F004F90546601C02D00448A9
:100610000078044400F0FCF8401BA042FAD370BDFF
:10062000040000202DE9F84FDFF8B8910024A9F16B
:10063000040B23460F2709F1040AABF1040EC9E0AD
:100640000125A5402A40AA427DD1674ED1F804C0B9
:10065000ACEB0608B44532D014DCBCF1030F3AD041
:1006600009DCBCF1000F2AD0BCF1010F1CD0BCF199
:10067000020F31D11DE0BCF1110F17D0BCF1120FE8
:100680002AD119E0B8F5881F19D006DCB8F5803FEB
:1006900015D0B8F5801F1FD111E0B8F5001F0ED09E
:1006A000B8F5041F18D10AE0CB6815E0CB681B1D14
:1006B00012E0CB6808330FE0CB680C330CE08B689A
:1006C0002BB1012B4FF0080303D0456104E0042354
:1006D00002E0056100E00023FF2A01D8064601E0A0
:1006E00000F104064FEA840501D9A5F12005D6F8EA
:1006F000008007FA05FC28EA0C0803FA05F548EA29
:100700000508C6F800804D68ED0062D5374DAE692A
:1007100046F00106AE61AD6924F0030605F001055F
:100720000095334D06EB050CDCF80850A607360F94
:1007300007FA06F825EA0805DFF8B880404503D136
:100740004FF0000817E044E0DFF8AC80404502D1EC
:100750004FF001080FE0DFF8A480404502D14FF0D0
:10076000020808E0DFF89880404502D14FF0030806
:1007700001E04FF0040808FA06F848EA0508CCF84A
:1007800008804D68D9F80060ED024D4601D516434A
:1007900000E096432E604D68DAF80060AD025546E1
:1007A00001D5164300E096432E604D68DBF80060EB
:1007B000AD035D4601D5164300E096432E604D68BB
:1007C000DEF80060ED03754601D5164300E0964360
:1007D0002E60641C0D682A46E5407FF431AFBDE809
:1007E000F88F0000080401400000111000100240C2
:1007F0000000014000080140000C014000100140D1
:10080000001401400AB1016170470904FBE70000D0
:100810000148806870470000040000200248816899
:10082000027811448160704704000020074810B529
:10083000016841F010010160032000F0A7F80F20CB
:1008400000F006F800F050F8002010BD0020024033
:1008500030B505461F4887B0C16941F00401C16148
:10086000C06906A900F00400009001A800F036F964
:100870000498B0B100F052F940001749174AB0FB94
:10088000F1F11748491E0260416040F2E732002151
:10089000C0E903218160816100F04CFB040003D0BA
:1008A00015E000F03BF9E8E70D4800F071FB0400AB
:1008B0000DD11E2000F03CF8102D07D20022294651
:1008C0001E2000F043F80748056000E0012407B04F
:1008D000204630BD0010024040420F00000800409A
:1008E000C0010020080000200F4808B5816941F0D0
:1008F00001018161816901F001010091C16941F04B
:100900008051C161C069002200F0805000900F2129
:10091000901E00F01BF80548416821F0E06141F0AD
:100920000071416008BD000000100240000001405D
:10093000002809DB00F01F020121914040098000DE
:1009400000F1E020C0F8001170470000F0B40E4B39
:100950001B680C46C3F30223C3F10705042D00D91D
:100960000425191D072901D2002300E0DB1E012602
:1009700006FA05F1491E214099409E40761E164018
:100980003143F0BC01F009BB0CED00E0064900F07A
:10099000070208684FF6FF03184040EA0220034AA6
:1009A00010430860704700000CED00E00000FA05FD
:1009B0002DE9F0470F46050061D0434E306800F046
:1009C0000700B84209D2306820F007003843306091
:1009D000306800F00700B84251D128683B4C8107CD
:1009E00012D5400703D5606840F4E0606060287865
:1009F000000703D5606840F4605060606068A968D3
:100A000020F0F000084360602878C00728D06868AC
:100A1000012810D02168022810D0890700292EDA79
:100A2000616821F0030101436160FFF7F1FE804638
:100A300041F288390DE021688903EFE78901EDE78C
:100A4000FFF7E6FEA0EB0801494502D90320BDE807
:100A5000F0876068696800F00C00B0EB810FEFD19F
:100A6000306800F00700B8420BD9306820F007006A
:100A700038433060306800F00700B84201D00120F0
:100A8000E5E72878400705D56068E96820F4E0606C
:100A9000084360602878000706D56068296920F45B
:100AA000605040EAC100606000F058F86168084A90
:100AB000C1F30311515CC84006490860064800684C
:100AC000FFF7C6FE0020C2E70020024000100240EF
:100AD0007238000810000020080000200F22026079
:100AE0000C4A536803F003034360536803F0F003B8
:100AF0008360536803F4E063C36052684FF4E063BB
:100B000003EAD20202610448006800F007000860AE
:100B100070470000001002400020024004480549D0
:100B200000684968044AC1F30221515CC84070471B
:100B300010000020001002408238000804480549D7
:100B400000684968044AC1F3C221515CC84070473B
:100B50001000002000100240823800080E4A516840
:100B60000E4801F00C03042B11D0082B0FD10C48B8
:100B7000C1F38343C903C05C0AD55168084AC1F375
:100B80004041921E515C054A5043B0FBF1F0704762
:100B900004494843704700000010024000127A00E8
:100BA0006238000800093D002DE9F84F040070D0BC
:100BB0002078C04DC00749D06868C0F38100012883
:100BC00007D06868C0F38100022809D16868C003B3
:100BD00006D52868800339D560680028E7D035E05D
:100BE0006068B0F5803F0BD010B1B0F5A02F11D0E8
:100BF000286820F480302860286820F4802002E0F3
:100C0000286840F480302860606890B1FFF700FEEB
:100C100006460AE0286840F480202860F0E700BF1C
:100C2000FFF7F6FD801B642873D828688003F7D58A
:100C30000CE0FFF7EDFD064605E000BFFFF7E8FD1D
:100C4000801B6428F0D828688003F7D420789A4E57
:100C500080074FF001094FF0000839D5686810F09F
:100C60000C0F07D06868C0F38100022809D16868BA
:100C7000C00306D42868800714D52069012808D14C
:100C800010E02069B0B1C6F80090FFF7C1FD07463B
:100C900005E00AE1FFF7BCFDC01B0228C4D82868A4
:100CA0008007F7D52868616920F0F80040EAC100A4
:100CB00028600DE0C6F80080FFF7AAFD074604E0B3
:100CC000FFF7A6FDC01B022823D828688007F7D4A9
:100CD000207800072CD57948A169D9B1C0F80090D7
:100CE000FFF796FD074604E0FFF792FDC01B0228C0
:100CF0000FD8686A8007F7D571484FF4FA51006839
:100D0000B0FBF1F0009000BF0098411E0091FAD2B4
:100D10000EE080E0C0F80080FFF77AFD074604E0AF
:100D2000FFF776FDC01B022875D8686A8007F7D4E4
:100D30002078400760D5E8690027C00008D4E8693A
:100D400040F08050E861E869012700F08050009091
:100D50005C480168C90513D40168834641F4807179
:100D60000160FFF755FD824606E000BFFFF750FD2A
:100D7000A0EB0A0064284ED8DBF80000C005F5D5CA
:100D8000E06801280AD008B1052813D0286A20F0AD
:100D900001002862286A20F0040002E0286A40F07E
:100DA00001002862E06841F2883B98B1FFF730FD0E
:100DB00082460BE0286A40F004002862EEE700BF9C
:100DC000FFF726FDA0EB0A0159455AD8286A80078B
:100DD000F6D50CE0FFF71CFD824605E0FFF718FD95
:100DE000A0EB0A0159454CD8286A8007F6D41FB1F8
:100DF000E86920F08050E861E06988B36968C1F370
:100E00008101022944D00228C6F8608004D0FFF78F
:100E1000FFFC044638E034E0FFF7FAFC074604E044
:100E2000FFF7F6FCC01B02282BD828688001F7D4F6
:100E3000206AB0F5803F05D16868A16820F40030D1
:100E400008436860D4E908010843696821F4741113
:100E500008436860C6F86090FFF7DAFC044606E0D5
:100E600025E000BFFFF7D4FC001B022809D8286842
:100E70008001F7D51BE000BFFFF7CAFC001B02286A
:100E800002D90320BDE8F88F28688001F4D40EE071
:100E90000128F7D06868226A00F48031914204D1B9
:100EA000616A00F47010884201D00120EAE7002056
:100EB000E8E7000000100240000042428004424285
:100EC00010000020007000407047704770B590F827
:100ED0003C20012A26D0012480F83C40022280F8E0
:100EE0003D2003685A689D6822F070060A68324304
:100EF0005A600D4B02689A4208D0B2F1804F05D07B
:100F00000A4B9A4202D00A4B9A4204D1496825F012
:100F100080031943916080F83D40002180F83C1027
:100F2000084670BD022070BD002C01400004004046
:100F30000008004010B5040003D094F83D0010B143
:100F400007E0012010BD002084F83C00204600F09E
:100F50001EF8022084F83D00211D206800F04AFDA3
:100F6000012084F8460084F83E0084F83F0084F8AD
:100F7000400084F8410084F8420084F8430084F87B
:100F8000440084F8450084F83D00002010BD7047FF
:100F900090F83D10012901D001207047022180F80E
:100FA0003D100168CA6842F00102CA6000680B493E
:100FB000884208D0B0F1804F05D00949884202D05C
:100FC0000849884204D1816801F00701062903D04D
:100FD000016841F00101016000207047002C0140D0
:100FE000000400400008004070472DE9F04104462D
:100FF0000068C66805694FF00007A90713D5B10757
:1010000011D5F91E016101202077206880698007D1
:10101000204602D0FFF7E8FF04E000F0A1F82046E8
:1010200000F044F92777680716D5700714D52168B2
:101030006FF004000861022020772068806910F4B6
:10104000407F204602D0FFF7CFFF04E000F088F891
:10105000204600F02BF92777280715D5300713D540
:1010600021686FF008000861042020772068C069BB
:101070008007204602D0FFF7B7FF04E000F070F8C9
:10108000204600F013F92777E80616D5F00614D5A8
:1010900021686FF010000861082020772068C0697F
:1010A00010F4407F204602D0FFF79EFF04E000F0DE
:1010B00057F8204600F0FAF82777E80708D0F0073D
:1010C00006D021686FF001000861204600F03EF96B
:1010D000280608D5300606D521686FF08000086123
:1010E0002046FFF7F1FE680608D5700606D5216890
:1010F0006FF040000861204600F032F9A8060AD5DA
:10110000B00608D521686FF0200008612046BDE8D0
:10111000F041FFF7DABEBDE8F081000000B585B010
:10112000002100910191029103910068B0F1804F7C
:1011300010D10948816941F00401816180696946E3
:1011400000F00400049002200090019003900348F6
:10115000FFF768FA05B000BD00100240000801402A
:10116000704770B5044690F83C0000260D460128F3
:101170000FD0012084F83C006AB1042A1DD0082A4F
:101180002FD00C2A3FD00126002084F83C003046A6
:1011900070BD022070BD206800F076FC2068816977
:1011A00041F0080181612068816921F004018161B9
:1011B000206881692A69114311E0206800F08CFCE5
:1011C0002068816941F4006181612068816921F4AE
:1011D00080618161206881692A6941EA0221816117
:1011E000D2E7206800F0A4FC2068C16941F0080142
:1011F000C1612068C16921F00401C1612068C16931
:101200002A69114311E0206800F0BEFC2068C16922
:1012100041F40061C1612068C16921F48061C1614C
:101220002068C1692A6941EA0221C161ACE710B5B1
:10123000040003D094F83D0010B107E0012010BD78
:10124000002084F83C00204600F01EF8022084F8BC
:101250003D00211D206800F0CDFB012084F84600F0
:1012600084F83E0084F83F0084F8400084F8410090
:1012700084F8420084F8430084F8440084F8450070
:1012800084F83D00002010BD08B50068B0F1804F23
:1012900008D10548C16941F00101C161C06900F090
:1012A0000100009008BD00000010024070470000DF
:1012B00010B50446022249B104290ED0082913D0E2
:1012C00094F84100012816D0012010BD94F83E008A
:1012D0000128F9D184F83E200FE094F83F0001285E
:1012E000F2D184F83F2008E094F840000128EBD1C7
:1012F00084F8402001E084F841200122206800F0B9
:10130000B5FB0F492068884203D1426C42F4004289
:1013100042642068884208D0B0F1804F05D0094966
:10132000884202D00849884204D1816801F007014F
:10133000062903D0016841F001010160002010BDC1
:10134000002C0140000400400008004000680349F0
:10135000884201D1FFF762BA7047000000080040E0
:10136000704738B5044690F84200202801D002208A
:1013700038BD51B14AB1012020630020606320468E
:1013800000F0BCFD216B012901D0012038BD21688E
:101390000A684968009121680C3151E8002F42F039
:1013A000100241E80023002BF5D138BD014901208E
:1013B000087070479400002070470000F8B501687D
:1013C00004460868CA684B6910F00F0F4FF000051B
:1013D00059D003F0010602F49077374365D0C10776
:1013E00005D0D10503D5616C41F00101616441076D
:1013F00005D5D90703D0616C41F002016164810712
:1014000005D5D90703D0616C41F00401616401077F
:1014100007D502F02001314303D0616C41F008018F
:101420006164616C00293AD0800604D5900602D52B
:10143000204600F0A5FC20684069616CC0F3801074
:10144000090700D460B3204600F065FC20684069BD
:10145000400621D52068143050E8001F21F04001DB
:1014600040E80012002AF5D1E06BA8B16D49416354
:10147000E06BFEF769FF002811D0E06B416B01B013
:10148000BDE8F040084783060FD593060DD52046EA
:10149000BDE8F84000F074BC2046FFF78DFFF8BDB2
:1014A0002046FFF789FF6564F8BD266B2023012ED7
:1014B0007CD1C6067AD5D60678D5086848680090EB
:1014C00048694FF00206400640D5E16B0868406865
:1014D0000004000CE8D0A28D8242E5D9E08588693D
:1014E00020282DD020680C3050E8001F21F4807196
:1014F00040E80012002AF5D12068143050E8001F9F
:1015000021F0010140E80012002AF5D120681430D2
:1015100050E8001F21F0400140E80012002AF5D1F8
:1015200084F84230256320680C3050E8001F21F019
:10153000100140E80012002AF5D1E06BFEF7E0FE52
:101540006663A08DE18D401A81B22AE0A08DE18D05
:10155000401A81B2E08D0028A6D00029A4D02268CC
:101560000C3252E8000F20F4907042E80007002F80
:10157000F5D12068143050E8002F22F0010240E835
:101580000027002FF5D184F84230256320680C3005
:1015900050E8002F22F0100240E80023002BF5D184
:1015A00066632046FFF702FFF8BDFFE705062BD56F
:1015B000150629D594F841002128F5D1A068B0F589
:1015C000805F01D12069B0B1206A411C216221688D
:1015D00000784860E08C401E0004000CE084E3D1F9
:1015E0002068C16821F08001C1602068C16841F0B5
:1015F0004001C160D8E7206A0088C0F30800486055
:10160000206A801C2062E5E74006CDD55006CBD588
:10161000CA68204622F04002CA6084F8413000F0D7
:10162000E1F8C1E7CD1B000870B5040004D094F8C0
:101630004100002510B106E0012070BD84F8405043
:10164000204600F023F8242084F841002068C16877
:1016500021F40051C160204600F0F4FB20680169CC
:1016600021F4904101612068416921F02A01416122
:101670002068C16841F40051C1606564202084F88D
:10168000410084F842006563002070BDF0B585B06C
:1016900000240646009401940294039400682D49A6
:1016A000884254D12C48816941F48041816181692B
:1016B00001F480410491816941F0040181618069F4
:1016C000264D00F0040004904FF4007000900220BA
:1016D00001900320039069462846FEF7A3FF2815D2
:1016E000CDE90004694628460294FEF79BFF1D4D94
:1016F0001B488027C5E90004C5E902472C616C61DD
:10170000AC612846EC61FEF715FF08B1FEF7C0FD9D
:10171000F5636E62134D12484435143801C510202C
:1017200091C5104845F8104944306C61AC61EC61DA
:10173000FEF700FF08B1FEF7ABFDB56300220521FF
:1017400025206E62FFF702F92520FFF7F1F805B0BA
:10175000F0BD0000003801400010024000080140C8
:1017600058000240380100207047704770B50446A9
:1017700090F84100202801D0022070BD49B342B347
:101780002162A284E28400206064212384F8413035
:10179000A56B114BAB62A56B104BEB62A56B104BAD
:1017A0002B63A36B5863256813462A1DA06BFEF7B5
:1017B000EFFE21686FF0400008602068143050E8A8
:1017C000001F41F0800140E80012002AF5D10020FE
:1017D00070BD012070BD0000CB1C00080D1D00086D
:1017E000DD1B000870477047FEE700000D4808B594
:1017F000416941F0010141614069002200F00100AE
:10180000009005210E20FFF7A1F80E20FFF790F8B9
:10181000002205210F20FFF799F8BDE808400F20AE
:10182000FFF786B80010024010B5044A00210448B2
:1018300000F022FC0349086010BD00003C3800089D
:10184000651900080000002070B586B00024184813
:101850000094019402940394816941F01001816124
:10186000816901F010010491816941F020018161D9
:10187000816901F020010491816941F004018161D5
:101880008069012200F004000A4E550304902946A5
:101890003046FEF7B7FF01200095CDE90104022094
:1018A000039069463046FEF7BDFE06B070BD0000ED
:1018B000001002400010014010B58AB000240794C7
:1018C0001C2168460894FEF792FC16484FF08041B0
:1018D00001604721C0E9011440F2E731C0E9031477
:1018E00080218161FFF7A3FC08B1FEF7D1FC0794CA
:1018F00007A90C480894FFF7E9FA08B1FEF7C8FCFD
:101900006020CDE90004029404226946054804944D
:10191000FFF727FC08B1FEF7BBFC0248FFF7FEFB10
:101920000AB010BDA80000200C4810B50A4901609B
:101930004FF4E1314160002181600C22C160C0E9B7
:1019400004128161C161FFF76FFE002803D0BDE87A
:101950001040FEF79DBC10BD00380140F000002093
:10196000FEE7FEE7012000F04CFBFBE710B54FF06F
:10197000E020006901F0ACFD012803D0BDE8104073
:1019800001F0DABA10BD30B58FB028216846FEF7F5
:101990002EFC14210AA8FEF72AFC01210804CDE937
:1019A00000100024029402250491CDE907504FF461
:1019B000E01009906846FFF7F7F808B172B6FEE745
:1019C0000F20CDE90A054FF48060CDE90C400221DB
:1019D0000AA80E94FEF7ECFF002801D072B6FEE7CD
:1019E0000FB030BD704700000148FFF7FEBA00009D
:1019F000C0010020F0B50268194B1A4C1A4D4FF087
:101A00008047984205D0B84203D0A04201D0A842F6
:101A100003D122F070064A683243984205D0B8429A
:101A200003D0A04201D0A84203D122F44074CA6876
:101A300022434C6922F08002224302608A68C2621B
:101A40000A688262984201D10969016301214161FA
:101A50000169C90703D0016921F001010161F0BDED
:101A6000002C0140000400400008004010B501F0C7
:101A70001F030121046A99408C430462016A9A4061
:101A80001143016210BD000030B5036A026A22F002
:101A9000010202624268846924F073050C682C43D9
:101AA00023F002058B682B430A4DA8420BD123F08B
:101AB0000805CB6822F440722B434D6923F00403E0
:101AC00015438A692A43426084614968416303621D
:101AD00030BD0000002C014030B5026A036A23F0DB
:101AE00010030362436884690D6824F4E64444EA01
:101AF00005248D6822F0200242EA05120B4DA8420F
:101B00000ED1CD6822F0800242EA05124D6923F41D
:101B1000406343EA85038D6922F0400243EA85036E
:101B20004360846149688163026230BD002C0140DA
:101B300030B5036A026A22F4807202624268C469A4
:101B400023F4007324F073050C682C438D6843EA7A
:101B500005230C4DA8420ED1CD6823F4006343EA5F
:101B600005234D6922F4405242EA05128D6923F49F
:101B7000806342EA05124260C4614968C16303623E
:101B800030BD0000002C014030B5046A026A22F426
:101B9000805202624268C3690D6823F4E64343EA57
:101BA00005238D6824F4005444EA0534064DA84208
:101BB00004D14D6922F4804242EA85124260C36139
:101BC00049680164046230BD002C014010B5406AD0
:101BD0000021C185C184FFF7EFFB10BD70B5446AD9
:101BE0002068406994F84110C0F3C01000252129F5
:101BF00004D118B1E584204600F0B4F820684069AB
:101C000094F84210C0F38010222904D118B1E58560
:101C1000204600F080F8606C40F0100060642046C0
:101C2000FFF7CAFB70BD10B50146406A0968096834
:101C30004FF0000289062ED4C28501680C3151E8AC
:101C4000003F23F4807341E80034002CF5D1016893
:101C5000143151E8003F23F0010341E80034002C27
:101C6000F5D10168143151E8003F23F0400341E809
:101C70000034002CF5D1202180F84210016B01299D
:101C800009D101680C3151E8003F23F0100341E80D
:101C90000034002CF5D14263016B012902D0FFF71B
:101CA00063FD10BD818DFFF781FB10BD10B5406A4B
:101CB00001214163016B012902D0FFF756FD10BDE0
:101CC000818D4908FFF772FB10BD10B50146406ACF
:101CD00009680968890616D40021C1840168143195
:101CE00051E8002F22F0800241E80023002BF5D1BB
:101CF00001680C3151E8002F42F0400241E8002316
:101D0000002BF5D110BDFFF76DFD10BD10B5406A79
:101D1000FFF769FD10BD01680C3151E8002F22F476
:101D2000907241E80023002BF5D10168143151E88D
:101D3000002F22F0010241E80023002BF5D1016BB6
:101D4000012909D101680C3151E8002F22F010025D
:101D500041E80023002BF5D1202180F8421000211A
:101D60000163704701680C3151E8002F22F0C00276
:101D700041E80023002BF5D1202180F84110704765
:101D800008B590F84210222901D0022008BD8268CF
:101D90004FF480539A4201D1016921B1816A9A427C
:101DA0001BD04AB10AE00268816A5268C2F3080295
:101DB0000A80816A891C08E0026972B1026852686F
:101DC00002F07F020A70816A491C8162C18D491E3E
:101DD0000904090CC18503D01BE002685268F1E7D1
:101DE0000168CA6822F02002CA600168CA6822F449
:101DF0008072CA6001684A6922F001024A612021AA
:101E000080F8421000214163026B012A03D0FFF7E2
:101E1000ABFC002008BD016301680C3151E8002FC4
:101E200022F0100241E80023002BF5D101680A6876
:101E3000D20602D50A6849680091818DFFF7B6FA8B
:101E4000E7E7000070B5044600680169E26821F424
:101E50004051114301612169A06808436169084349
:101E60002168CA6841F20C639A430243CA60206841
:101E70004169A26921F44071114341611E49206802
:101E8000884202D1FEF75AFE01E0FEF747FE00EB62
:101E9000C00101EB0012606864218000B2FBF0F326
:101EA000B3FBF1F36FF018067343B2FBF0F5B2FB2E
:101EB000F0F605EB8305322303EB0515B5FBF1F5D1
:101EC000B6FBF1F605F0F00505EB0615B2FBF0F6F2
:101ED000B2FBF0F0B0FBF1F06FF01802504306EBEC
:101EE000800003EB0010B0FBF1F0216800F00F0060
:101EF0002844886070BD00000038014038B5816218
:101F000004468285002013466064222284F8422021
:101F1000E56B1B4AAA62E56B1A4AEA62E56B1A4A4C
:101F20002A63E26B50630A462168E06B091DFEF7E5
:101F30002FFB2068016840680090206948B1206844
:101F40000C3050E8001F41F4807140E80012002A74
:101F5000F5D12068143050E8001F41F0010140E83D
:101F60000012002AF5D12068143050E8001F41F01B
:101F7000400140E80012002AF5D1002038BD0000E1
:101F8000271C0008AD1C0008DD1B00080148FFF7F6
:101F900015BA0000F0000020FEE70907090E00282E
:101FA00004DB00F1E02080F80014704700F00F001F
:101FB00000F1E02080F8141D704702E008C8121FED
:101FC00008C1002AFAD170477047002001E001C122
:101FD000121F002AFBD17047FEF728FCFFF7D3FC45
:101FE000FFF732FCFFF702FCFFF766FCFFF79CFCF3
:101FF000FEF750F900F012F8FFF716FC00F020F899
:10200000FEE710B5EFF3058111B16FF0050403E0B1
:10201000002408B100F056FE204610BDEFF3058005
:1020200010B16FF0050070470448016811B14FF01E
:10203000FF307047012101600020704764000020DC
:1020400010B5EFF3058010B16FF0050010BD084822
:102050000168012902D04FF0FF3010BD054A002170
:1020600082F8141D0221016000F094FE002010BDD2
:10207000640000200BE000E02DE9FF414FEA01037E
:102080004FF00005EFF30581039549BB40B380276E
:10209000182100244AB3166806B1344696691EB169
:1020A0003146761E382E02D21679F60703D000206C
:1020B00004B0BDE8F081566906B1B708D2F808C08F
:1020C000BCF1000F0DD0D5685C2D18D312693AB160
:1020D00036B18DE806103A46214601F0CEF903905C
:1020E0000DE0D6685EB912694AB903AACDE90012BB
:1020F000BAB2214601F094F9012800D00395039863
:10210000D6E700002DE9F041134C0F460546E6687E
:102110002068001D00F0A2FC681C07D137B12168BF
:10212000BDE8F0410D48091D00F0E8BC20683544C9
:10213000B5424560216805D2A06BBDE8F041091D9C
:1021400000F0C4BC606B091D00F0C0FCA06A8542B1
:1021500000D2A562BDE8F08114000020F80600203E
:102160002DE9F041054600F0D5FC2D4CA068401C3F
:10217000A06020682B4F10B1606930B32BE0256060
:10218000A068012827D1002606EB860007EB800017
:1021900000F08EFC761C382EF6D3234800F088FC25
:1021A0002148143000F084FC1F48283000F080FCE7
:1021B0001D483C3000F07CFC1B48503000F078FC9F
:1021C000194860631430A06305E02068E96AC06ABA
:1021D000884200D82560606A401C60626864E86AD2
:1021E0002169884200D9206100EB800007EB800064
:1021F000291D00F083FC00F0ADFC606900280CD0C4
:102200002068E96AC06A884207D208494FF08050C6
:102210000860BFF34F8FBFF36F8FBDE8F081000000
:102220001400002048020020A806002004ED00E071
:1022300038B500F06FFC104C2068C8B90F4800F0AA
:1022400037FC0E48143000F033FC0C48E0601430CA
:1022500020610A4B0020F03B009003F15002102156
:102260000A2000F07FFE206010B105A100F0F4FC10
:10227000BDE8384000F06EBC50000020FC07002094
:10228000546D72510000000030B4026C0B46002AFD
:102290000BD0C1681144C1608468A14201D30168B8
:1022A000C16030BC1846FDF789BF30BC70472DE9CE
:1022B000F041856B174604460026026C82B1C7B117
:1022C000E068FDF77BFFE168206C091AE160226895
:1022D000914202D2A168081AE060022F16D017E0DE
:1022E0002068A8B9A06801F06BF906460020A0603C
:1022F0000EE06068FDF762FF216C60680844606072
:10230000A168884204D32068606001E005B16D1EB9
:102310006D1CA5633046BDE8F08110B5044690F809
:10232000590058B101280CD002280FD0502080F35A
:102330001188BFF34F8FBFF36F8FFEE7206B00F064
:102340001DFC2046BDE8104000F018BC10BD000088
:1023500010484FF44061420706D0C01D0D4920F0DF
:102360000700411AC1F540610B4A00230144C2E94C
:1023700000030839183A21F0070111604B600B6027
:102380000B1AC0E9001393604FF000405360506196
:1023900070470000DC0E002080000020144E154C19
:1023A000A6F29C474FF08058DFF84C9012E000BF37
:1023B00000F0B0FBF068C568281D00F04FFBA06876
:1023C000401EA0606068401E606000F0C3FB2846AD
:1023D000FFF7A3FF60680028EAD138680128F9D91F
:1023E000C9F80080BFF34F8FBFF36F8FF2E7000093
:1023F000E40600201400002004ED00E070B51D4646
:10240000049C51B1C4F80020C4E90F010121204609
:1024100000F0DCFD84F84C5070BD2460F4E700004F
:102420002DE9F05F8846DDE90B941546834691005F
:102430009A460A9EA522206BFDF7D2FE6FF003019B
:10244000206B01EB8501084420F00707780707D0CF
:10245000502080F31188BFF34F8FBFF36F8FFEE7DB
:102460000025B8F1000F0FD05FF00000221818F817
:10247000001082F8341018F8001011B1401C102818
:10248000F4D384F8435001E084F83450382E00D35C
:102490003726E662C4E91365201D00F014FB04F141
:1024A000180000F010FB2461C6F138006462A061DE
:1024B000656584F8585052465946384600F05AFA35
:1024C0002060B9F1000F01D0C9F80040BDE8F09FCD
:1024D00030B5114900E011460A688242FBD34B68CF
:1024E0005C18844203D14068184448600846436839
:1024F0001C18944209D1084C183C2468A24209D007
:1025000052681A4442600A6812680260814200D030
:10251000086030BD0460F9E78000002070B5002439
:1025200041600B4D0061914206D8D11A82699142F7
:1025300006D2011D286907E09A4203D2994201D3CD
:10254000012403E0011DE86800F0C0FA204670BDD8
:102550005000002010B5044600F0DCFAA06B28B152
:102560005FF0000400F0F6FA204610BD0124F9E700
:1025700030B589B03C4D6EE00498002806DADDE9FC
:102580000601059A90470498002864DB069C606960
:1025900010B1201D00F062FA03A800F0D7F802463F
:1025A00004980A2857D2DFE800F00505052D334AC4
:1025B00005052D3394F8280040F0010084F8280028
:1025C0000599A069059B01442046FFF7A7FF68B362
:1025D000216A2046884794F8280040073BD5002010
:1025E00000900598A169002342181946204601F081
:1025F000F1F8D8B9502080F31188BFF34F8FBFF3A3
:102600006F8FFEE714F8280F20F00100207022E001
:1026100094F8280040F0010084F828000598A06193
:1026200028B1811813462046FFF778FF13E05020A9
:1026300080F31188BFF34F8FBFF36F8FFEE794F8DD
:102640002800810703D4204600F098FA03E020F028
:10265000010084F82800002204A9286800F00AFE7E
:10266000002889D109B030BD500000202DE9FC417F
:102670000F46054600F0D2FB01A800F067F80446BB
:10268000019818B101F014F8BDE8FC81254EAFB1F6
:1026900030690068D0B30027291B3A46306800F043
:1026A000EFFA01F005F80028EED11F494FF08050F5
:1026B0000860BFF34F8FBFF36F8FE5E7A542EBD8FC
:1026C00000F0F6FFF0682746C068C468201D00F0DF
:1026D000C5F994F82800410719D5A0692B4641197E
:1026E0003A462046FFF71AFFA8B1002003460146EC
:1026F00000902A46204601F06DF860B9502080F322
:102700001188BFF34F8FBFF36F8FFEE707E020F014
:10271000010084F82800216A20468847B4E7012791
:10272000BAE700005000002004ED00E00648416BCD
:10273000096829B1416BC968C968496881627047F5
:102740004FF0FF31FAE700001400002070B5054695
:1027500000F0CCFE064E0446B068844203D200F07E
:1027600009F8012000E0002028602046B46070BD18
:1027700050000020F8B5194D20E0C068C468066814
:10278000201D00F06BF9216A2046884794F8280044
:10279000400713D5A0693044B04206D92461606077
:1027A000211DE86800F092F908E000200346014688
:1027B00000903246204601F00DF838B1E868016813
:1027C0000029DAD12969C5E90310F8BD502080F34A
:1027D0001188BFF34F8FBFF36F8FFEE750000020CB
:1027E00008484068401C4FF0500080F3118804D026
:1027F000BFF34F8FBFF36F8FFEE7BFF34F8FBFF372
:102800006F8FFEE788000020074CE068016841B147
:10281000C0680021D0F80000FFF728FFFFF7A8FEEE
:10282000F3E701210020F7E7500000202DE9F041F7
:10283000044600F06FF994F9455004F1240609E0CC
:10284000606A48B1304600F0FBFE08B100F068FA5B
:102850006D1E6DB2002DF3DC4FF0FF3684F845603D
:1028600000F078F900F056F994F9445004F110079B
:1028700009E0206948B1384600F0E2FE08B100F0F6
:102880004FFA6D1E6DB2002DF3DC84F84460BDE894
:10289000F04100F05FB900002DE9F0410546002746
:1028A00000F0BCFA324E306808B9FFF751FD70698C
:1028B00005424ED1C5B3083568070ED005F00700B4
:1028C000C0F108000544680707D0502080F3118844
:1028D000BFF34F8FBFF36F8FFEE72DB37068854254
:1028E00037D82348183001460C6801E020460C46D2
:1028F0006168A94202D221680029F7D131688C426F
:1029000027D007682168016060680837411B1029DB
:102910000FD96019420708D0502080F31188BFF307
:102920004F8FBFF36F8FFEE713E041606560FFF7E5
:10293000CFFD61687068401A7060B268904200D242
:10294000B060706901430020C4E90001F068401CD8
:10295000F06000F0ADFE780707D0502080F31188BA
:10296000BFF34F8FBFF36F8FFEE73846BDE8F081AE
:102970006800002010B5031F4FF080741C601B1FFF
:1029800021F001011960191F024B0B601439403806
:102990000A6010BDE127000800240A2504210A4826
:1029A000FEF786FC084E4FF47A773068846360192E
:1029B00084B2BC4201D3684245B20CB9684245B208
:1029C0000A20FDF71DFEF0E7A80000200A221849A2
:1029D0001848FEF7C6FC184F184C4FF40056002557
:1029E00020780028FCD0022215A11148FDF70AFC2E
:1029F00030B1032213A10E48FDF704FC38B110E0FA
:102A0000072211A10B48FEF7B1FE002205E00822C3
:102A10000FA10848FEF7AAFE012231463846FDF70D
:102A2000F1FE0A2202490348FEF79BFC2570D7E716
:102A3000DC1A0020F000002000100140940000206B
:102A40004F4E00004F4646004C4544204F4E21005B
:102A50004C4544204F46462100000000D0E9013299
:102A600001699A60D0E901235A604A68824201D123
:102A700082684A60002202610868401E0860086897
:102A800070470000034B036003F15C000860802086
:102A90001060704724080020044B036003F15C00C1
:102AA00008604FF48070106070470000800A0020BA
:102AB00000F108014FF0FF32C0E90112C16001616D
:102AC00000210160704700210161704730B50B683B
:102AD0005A1C02D000F1080202E0026904E022461A
:102AE000546825689D42FAD953684B6099608A60A2
:102AF000516008610168491C016030BD42684A604C
:102B000093688B6093685960916008610168491C03
:102B100001607047502080F31188BFF34F8FBFF3DF
:102B20006F8F0A494868401C486001280CD108484A
:102B3000006810F0FF0F07D0502080F31188BFF31A
:102B40004F8FBFF36F8FFEE77047000088000020B3
:102B500004ED00E00849486828B1401E486001D1F2
:102B600080F311887047502080F31188BFF34F8F96
:102B7000BFF36F8FFEE700008800002070B50028CB
:102B80002AD0164DA0F1080460686969084207D18F
:102B9000502080F31188BFF34F8FBFF36F8FFEE794
:102BA00022683AB1502080F31188BFF34F8FBFF3F2
:102BB0006F8FFEE78843606000F030F960686968F5
:102BC000084468602046FFF783FC2869401C2861A0
:102BD000BDE8704000F06CBD70BD000068000020D2
:102BE0004FF0E02000210161816105494FF47A72C4
:102BF0000968B1FBF2F1491E41610721016170478B
:102C00001000002010B5FDF7C3FA114910280ED3AB
:102C100000F1E02090F8F0030A78904207D25020AB
:102C200080F31188BFF34F8FBFF36F8FFEE7094822
:102C30000068896800F4E060884207D9502080F37A
:102C40001188BFF34F8FBFF36F8FFEE710BD0000F9
:102C5000880000200CED00E010B5084B002200BFFA
:102C600053F832401CB1521C082AF9D310BD43F866
:102C7000321003EBC201486010BD000008020020C2
:102C800070B515460E460446FFF744FF94F944100C
:102C90000020491C01D184F8440094F94510491CD6
:102CA00001D184F84500FFF755FFA06B28B92A46EB
:102CB000314604F1240000F051F82046BDE8704090
:102CC000FFF7B4BD10B5020014D00F48006B38B147
:102CD000502080F31188BFF34F8FBFF36F8FFEE753
:102CE00000F09CF800211046FFF70CFA00F0E0FC21
:102CF000002807D105494FF080500860BFF34F8F7F
:102D0000BFF36F8F10BD00001400002004ED00E041
:102D100002490A6A0260C9684160704714000020D5
:102D200001490120C86170471400002010B50C460D
:102D300050B1094909681831FFF7C8FE2046BDE8BF
:102D400010400121FFF7DEB9502080F31188BFF356
:102D50004F8FBFF36F8FFEE71400002070B514464D
:102D60000D4668B10A4909681831FFF7C7FE0CB172
:102D70004FF0FF3521462846BDE87040FFF7C2B945
:102D8000502080F31188BFF34F8FBFF36F8FFEE7A2
:102D90001400002030B587B00024039405AA04A9CC
:102DA00003A80494FFF76EFEDDE903010094CDE96A
:102DB0000110002315A11748059A00F05EFB164D7F
:102DC0000028E8621FD000F0D5FC012809D0401C83
:102DD00019D1502080F31188BFF34F8FBFF36F8F4D
:102DE000FEE7502080F31188BFF34F8FBFF36F8F42
:102DF0004FF0FF30A86201206861EC6007B0BDE8C9
:102E0000304000F045B807B030BD000049444C45A3
:102E1000000000009D230008140000200248016B00
:102E2000491C01637047000014000020164810B5CB
:102E3000016B11B10121C16110BD0021C1610169A6
:102E4000124A01E0B9B1491E01EB810352F8233067
:102E5000002BF7D001EB810302EB830202F108049F
:102E600053685B685360A34201D15B685360DA68C2
:102E70000260016110BD502080F31188BFF34F8FB5
:102E8000BFF36F8FFEE7000014000020480200200F
:102E90001CB5264908780190FF20087008788DF845
:102EA00000009DF800009DF8002000F0F000904226
:102EB00007D0502080F31188BFF34F8FBFF36F8F7F
:102EC000FEE79DF800001A4C00F05000207007202B
:102ED000A06005E09DF8002052008DF80020401E03
:102EE0009DF800201206F5D4A060032807D05020DA
:102EF00080F31188BFF34F8FBFF36F8FFEE74FF45E
:102F00004070A060019808700A48016841F470019F
:102F10000160016841F070410160FFF761FE00202F
:102F20006060FDF7FFF800201CBD000000E400E039
:102F30008800002020ED00E010B5502080F31188BB
:102F4000BFF34F8FBFF36F8F00F0D6FA18B104496B
:102F50004FF080500860002080F3118810BD000001
:102F600004ED00E038B5049D18B153B1CAB181B188
:102F700020E0502080F31188BFF34F8FBFF36F8F95
:102F8000FEE7502080F31188BFF34F8FBFF36F8FA0
:102F9000FEE7502080F31188BFF34F8FBFF36F8F90
:102FA000FEE739B1502080F31188BFF34F8FBFF394
:102FB0006F8FFEE750241C46012384F846302B46D1
:102FC0000094FFF71BFA204638BD000070B50D468F
:102FD000040025D0FFF79EFDD4E90F20216802FBF5
:102FE0000011A1600021A163216861600A46D4E953
:102FF0000F01401E00FB0121E16021464FF0FF3030
:1030000001F8440F487004F110008DB1FFF750FD36
:1030100004F12400FFF74CFDFFF79CFD012070BD7B
:10302000502080F31188BFF34F8FBFF36F8FFEE7FF
:1030300021690029F0D000F003FB0028ECD00449FE
:103040004FF080500860BFF34F8FBFF36F8FE3E7FF
:1030500004ED00E02DE9FF4782B01D468A464FF09F
:103060000008040003D0BAF1000F08D011E050208E
:1030700080F31188BFF34F8FBFF36F8FFEE7206C93
:1030800038B1502080F31188BFF34F8FBFF36F8F9B
:10309000FEE7022D0AD1E06B012807D0502080F313
:1030A0001188BFF34F8FBFF36F8FFEE700F010FA68
:1030B0003F4F4FF000094FF0805648B9049838B19F
:1030C000502080F31188BFF34F8FBFF36F8FFEE75F
:1030D000FFF720FDA06BE16B884207D3022D05D0DE
:1030E0000498D0B1B8F1000F1AD01EE02A4651461C
:1030F0002046FFF7DCF8616A19B104F1240000F002
:103100009FFA20B13E60BFF34F8FBFF36F8FFFF781
:1031100021FD012006B0BDE8F087FFF71BFD22E08E
:103120006846FFF7F5FD4FF00108FFF713FDFFF7C5
:1031300075FEFFF7EFFC94F94400401C01D184F8C0
:10314000449094F94500401C01D184F84590FFF764
:1031500001FD04A9684600F029F930B12046FFF7C7
:1031600065FB00F0A5FA0020D4E7FFF7D3FCA06BC5
:10317000E16B884213D1FFF7EDFC04F110000499D4
:10318000FFF7D4FD2046FFF751FB00F091FA00282D
:103190009ED13E60BFF34F8FBFF36F8F98E7FFF76D
:1031A000D9FC2046FFF742FB00F082FA90E70000CE
:1031B00004ED00E02DE9F0471F46904689460400E3
:1031C00003D0B9F1000F08D011E0502080F311882E
:1031D000BFF34F8FBFF36F8FFEE7206C38B15020E5
:1031E00080F31188BFF34F8FBFF36F8FFEE7022F7D
:1031F0000AD1E06B012807D0502080F31188BFF37B
:103200004F8FBFF36F8FFEE7FFF7FCFC5020EFF30B
:10321000118680F31188BFF34F8FBFF36F8FA06BC0
:10322000E16B884206D3022F04D0002086F3118878
:10323000BDE8F08794F94550A06B3A4649462046D0
:10324000FFF735F8681C04D06D1C84F84550012048
:10325000ECE7606A0028FAD004F1240000F0F0F9ED
:103260000028F4D0B8F1000FF1D00121C8F8001007
:10327000EDE700002DE9F747002683B08A460400F9
:1032800003D0BAF1000F08D011E0502080F311886C
:10329000BFF34F8FBFF36F8FFEE7206C38B1502024
:1032A00080F31188BFF34F8FBFF36F8FFEE700F0FD
:1032B0000FF9DFF8F4804FF000094FF0805748B95C
:1032C000059838B1502080F31188BFF34F8FBFF3BA
:1032D0006F8FFEE7FFF71EFCA56BC5B15146204678
:1032E000FEF7D2FF6D1EA563206950B104F11000F6
:1032F00000F0A6F928B1C8F80070BFF34F8FBFF3F4
:103300006F8FFFF727FC012006B0BDE8F087059816
:1033100008B11EB106E0FFF71DFC27E06846FFF785
:10332000F7FC0126FFF716FCFFF778FDFFF7F2FB2D
:1033300094F94400401C01D184F8449094F945006C
:10334000401C01D184F84590FFF704FC05A96846AC
:1033500000F02CF8002820460AD0FFF767FA00F0AA
:10336000A7F92046FFF7F6F80028B3D00020CBE7F6
:10337000FFF7F0F890B104F124000599FFF7D6FCAF
:103380002046FFF753FA00F093F90028A2D1C8F8BD
:103390000070BFF34F8FBFF36F8F9BE72046FFF79F
:1033A00045FA00F085F995E704ED00E02DE9F041DC
:1033B0000C46050011D0C4B1FFF7ACFB174BDA681F
:1033C0006E682068911B471C17D02F681B6A9F42AC
:1033D00019D0964217D8012410E0502080F31188AC
:1033E000BFF34F8FBFF36F8FFEE7502080F311883C
:1033F000BFF34F8FBFF36F8FFEE70024FFF7AAFBE9
:103400002046BDE8F081884205D9401A2060284650
:10341000FFF77EFCF1E700202060DCE714000020CD
:103420002DE9FF5F8346DDE90E87994616468A46F9
:103430009000FFF731FA05001CD05C20FFF72CFA52
:10344000040014D00020256384F85900CDE902401F
:10345000CDE900874B46324651465846FEF7E0FF1D
:103460002046FEF77DFE012004B0BDE8F09F28460F
:10347000FFF784FB4FF0FF30F6E7F0B585B0DDE9EC
:103480000B640A9DA6B1DCB15C2700972663022677
:1034900084F85960002604AFCDE90246CDE9005713
:1034A000FEF7BEFF2046FEF75BFE049805B0F0BDB8
:1034B000502080F31188BFF34F8FBFF36F8FFEE76B
:1034C000502080F31188BFF34F8FBFF36F8FFEE75B
:1034D0000548416919B1006B18B1002070470120FF
:1034E0007047022070470000140000200148C068A7
:1034F00070470000140000202DE9F0412E4C0027F9
:10350000206B28B1A069401CA0613846BDE8F0815D
:10351000E668761CE66013D1606B006838B1502015
:1035200080F31188BFF34F8FBFF36F8FFEE7606B9F
:10353000A16B6163A063206A401C2062FFF7F6F86C
:10354000A06ADFF87880864209D3606B0068A0B17A
:10355000606BC068C5686868864211D2A062206846
:10356000C06A00EB800158F82100012800D901272A
:10357000E0690028C9D00127C7E74FF0FF30EDE729
:10358000281DFFF76BFAA86A18B105F11800FFF7BC
:1035900065FAE86A2169884200D9206100EB800160
:1035A00008EB8100291DFFF7A9FAE86A2168C96ABA
:1035B0008842CAD30127C8E714000020480200202F
:1035C00070B504004FF0000133D01B4D28688442D1
:1035D00007D0502080F31188BFF34F8FBFF36F8F58
:1035E000FEE7206D38B1401E2065E36CE26A9A4226
:1035F0001FD040B11DE0502080F31188BFF34F8FE2
:10360000BFF36F8FFEE7201DFFF728FAE06CE06242
:10361000C0F13800A061E06A2969884200D92861B8
:10362000064900EB800001EB8000211DFFF766FAE0
:103630000121084670BD000014000020480200204F
:1036400070B5C068C46854B104F118000646FFF7AD
:1036500005FA144D286B50B13146134815E050203F
:1036600080F31188BFF34F8FBFF36F8FFEE7201DEC
:10367000FFF7F4F9E06A2969884200D928610B490B
:1036800000EB800001EB8000211DFFF737FAE06AB4
:103690002968C96A884202D90120E86170BD00200A
:1036A00070BD000014000020D00600204802002059
:1036B0002DE9F0472C4D00242746286B38B1FFF741
:1036C00029FA286B401E2863286B40B146E0502041
:1036D00080F31188BFF34F8FBFF36F8FFEE7A968A8
:1036E000224E0120D1B3A6F5916980463068E0B141
:1036F000F068C46804F11800FFF7B0F9201DFFF767
:10370000ADF9E06A2969884200D9286100EB80019F
:1037100009EB8100211DFFF7F1F9E06A2968C96A08
:103720008842E3D3C5F81C80E0E70CB1FEF7FEFF4A
:10373000AC694CB14FEA0806FFF7DEFE00B1EE615E
:10374000641EF9D10020A861E86938B10849012751
:1037500038070860BFF34F8FBFF36F8FFFF7FAF999
:103760003846BDE8F087000014000020D006002095
:1037700004ED00E010B586B0FEF75AFD114C20684C
:10378000B8B100200390049005AA04A903A8FFF78C
:1037900083F9DDE9032102208DE8070000230AA157
:1037A0000B48059AFFF769FE606010B106B0012072
:1037B00010BD502080F31188BFF34F8FBFF36F8F80
:1037C000FEE7000050000020546D72205376630025
:1037D000092800082DE9FF411E46134602000A9DF4
:1037E0004FF0000016D0144C2768002F0FD0CDE901
:1037F00000130292062917DAFFF76AFE02284FF03B
:1038000000030FD0002269462068FFF723FC04B0B4
:10381000BDE8F081502080F31188BFF34F8FBFF3D4
:103820006F8FFEE72A46EEE70023324669463846A8
:10383000FFF7C0FCEBE70000500000208C380008C8
:103840000000000000000000000000000000000078
:10385000000200001800000000000000000000004E
:10386000010202030405060708090A0B0C0D0E0FDE
:103870001010000000000000000001020304060711
:10388000080900000000010203040000646566618D
:10389000756C745461736B00B83800080000002028
:1038A000A8000000BA1F000860390008A800002026
:1038B000581E0000CA1F00080000000001000000A0
:1038C000100000000000000000127A00000000005C
:1038D00000000000000000000000000000000000E8
:1038E00000000000000000000000000000000000D8
:1038F00000000000000000000000000000000000C8
:1039000000000000000000000000000000000000B7
:1039100000000000000000000000000000000000A7
:103920000000000000000000000000000000000097
:103930000000000000000000000000000000000087
:1039400000000000AAAAAAAA0000000000000000CF
:1039500099290008CD29000800000000000000009F
:04000005080000ED02
:00000001FF
