:020000040800F2
:1000000010210020310200085B240008AB1F00080B
:1000100059240008E70700080D2800080000000028
:10002000000000000000000000000000990100082E
:10003000C108000800000000DD0100088926000852
:100040004B0200084B0200084B0200084B0200085C
:100050004B0200084B0200084B0200084B0200084C
:100060004B0200084B0200084B0200084B0200083C
:100070004B0200084B0200084B0200084B0200082C
:100080004B0200084B0200084B0200084B0200081C
:10009000012800084B0200084B0200084B02000830
:1000A0004B020008052700084B0200084B0200081D
:1000B0004B0200084B020008112700084B02000801
:1000C0004B0200084B0200084B0200084B020008DC
:1000D0004B0200084B0200084B0200084B020008CC
:1000E0004B0200084B0200084B02000800F002F827
:1000F00000F042F80AA090E8000C82448344AAF180
:100100000107DA4501D100F037F8AFF2090EBAE87D
:100110000F0013F0010F18BFFB1A43F0010318473B
:10012000B4450000D4450000103A24BF78C878C117
:10013000FAD8520724BF30C830C144BF04680C60ED
:10014000704700000023002400250026103A28BF35
:1001500078C1FBD8520728BF30C148BF0B60704739
:10016000642900F0C180782900F0FA8000207047EF
:100170001FB51FBD10B510BD00F0FBFA1146FFF70B
:10018000F7FF02F080FB00F019FB03B4FFF7F2FF6A
:1001900003BC00F021FB0000224B19680868B0E89E
:1001A000F00F80F30988BFF36F8F4FF0000080F3EA
:1001B00011884EF00D0E70470000000006480068E0
:1001C000006880F3088862B661B6BFF34F8FBFF353
:1001D0006F8F00DF00BF00BF08ED00E0EFF3098084
:1001E000BFF36F8F0F4B1A6820E9F00F106008B54E
:1001F0004FF0500080F31188BFF34F8FBFF36F8F24
:1002000003F008FA4FF0000080F31188BDE80840C1
:1002100019680868B0E8F00F80F30988BFF36F8FA2
:10022000704700BF20000020EFF3058070470000FA
:100230000948804709480047FEE7FEE7FEE7FEE77A
:10024000FEE7FEE7FEE7FEE7FEE7FEE704480549B6
:10025000054A064B7047000001270008ED00000822
:10026000101B002010210020101D0020101D002058
:100270000FB41CB5074B06AA7B446946009005984D
:1002800000F03DFA0020694600F04CFA1CBC5DF815
:1002900014FB0000A904000070B5044685690068DD
:1002A000C10601D5302600E02026C00707D070BD6A
:1002B000D4E9012130469047206A401C20626D1E1F
:1002C000F6D570BD70B5044685690078C00707D1C2
:1002D00070BDD4E9012120209047206A401C206293
:1002E0006D1EF6D570BD00002DE9F04106460024D4
:1002F00010687529314616A510D0AFF3008000288C
:1003000002DA404213A507E031688A0701D512A539
:1003100002E0490704D511A5012401E0AFF30080F4
:1003200000210A2206F1240709E0B0FBF2FCB0FB31
:10033000F2F302FB1C00303078541846491C0028A8
:10034000F3D123462A463046BDE8F04100F079B9A2
:10035000000000002D0000002B0000002000000025
:1003600070B504460D4621461068AFF30080218821
:10037000090502D50F4A7A4402E00E4A7A440E3249
:10038000002104F1240305E000F00F060009965D4A
:100390005E54491C0028F7D120780023000704D5BB
:1003A000702D02D009B1022311322046BDE8704001
:1003B00000F047B90C4300002DE9F05F8946044680
:1003C0004FF0000ADFF824B1FB44C0F820A020461B
:1003D000E168884700287DD0252806D0D4E901218E
:1003E0009047206A401C2062F1E700255F462046C6
:1003F000E16888472028064607DB312E05D2B81968
:1004000010F8200C08B10543F1E7A80701D525F045
:100410000405C4F81CA00027C4F818A02A2E09D08F
:10042000304602F029FA38B304EB8708303EC8F8AA
:10043000186019E059F8041B204604EB870291610B
:10044000E1688847012F064618D1E069002820DAC4
:1004500025F020051DE0D8F8180000EB800006EB21
:1004600040003038C8F818002046E1688847064642
:1004700002F002FA0028EED1012F0AD02E2E08D168
:100480002046E16888477F1C0646022F45F020057C
:10049000C4DBA069002803DA404245F00105A061F1
:1004A000E80701D025F01005A6B1A6F141001928F2
:1004B00002D8203645F400654A463146204625607C
:1004C0004D46FFF74DFE60B1012807D0ED1D25F028
:1004D000070000E007E000F1080978E705F10409EA
:1004E00075E730467AE7206ABDE8F09FE2420000F7
:1004F000032A40F2308010F0030C00F0158011F850
:10050000013BBCF1020F624498BF11F801CB00F827
:10051000013B38BF11F8013BA2F1040298BF00F87B
:1005200001CB38BF00F8013B11F0030300F0258038
:10053000083AC0F0088051F8043B083A51F804CB5F
:10054000A0E80810F5E7121D5CBF51F8043B40F825
:10055000043BAFF30080D20724BF11F8013B11F830
:1005600001CB48BF11F8012B24BF00F8013B00F874
:1005700001CB48BF00F8012B704710B5203AC0F0FE
:100580000B80B1E81850203AA0E81850B1E8185094
:10059000A0E81850BFF4F5AF5FEA027C24BFB1E8D1
:1005A0001850A0E8185044BF18C918C0BDE8104042
:1005B0005FEA827C24BF51F8043B40F8043B08BF4B
:1005C0007047D20728BF31F8023B48BF11F8012B12
:1005D00028BF20F8023B48BF00F8012B704702F00B
:1005E000FF0343EA032242EA024200F0A2B84FF0BE
:1005F000000200B5134694469646203922BFA0E873
:100600000C50A0E80C50B1F12001BFF4F7AF09077E
:1006100028BFA0E80C5048BF0CC05DF804EB89006F
:1006200028BF40F8042B08BF704748BF20F8022BB2
:1006300011F0804F18BF00F8012B704770477047CA
:1006400070472DE9F0470D4699469246044600F161
:1006500024080168880604D5E06921F010012160B2
:1006600000E00120A84201DD471B00E00027A1694E
:100670007A1902EB0900081AA0612078C00602D49A
:100680002046FFF709FE002608E0D4E901211AF808
:1006900006009047206A401C761C20624E45F4DB21
:1006A0002078C0060AD52046FFF7F6FD06E0D4E91B
:1006B000012130209047206A401C2062381EA7F19B
:1006C0000107F4DC07E0D4E9012118F805009047A0
:1006D000206A401C2062281EA5F10105F3DC20469B
:1006E000FFF7F0FD2078000602D50220BDE8F08774
:1006F0000120FBE701694A1C02610878704700B5D8
:100700008FB0CDE901310021059105497944CDE94A
:10071000031011466846FFF74FFE0FB000BD000002
:10072000E5FFFFFF0A6802F8010B0A6070474FF00F
:1007300000020429C0F0128010F0030C3FF459AFFE
:10074000CCF1040CBCF1020F18BF00F8012BA8BFBC
:1007500020F8022BA1EB0C01FFF74BBF5FEAC17C35
:1007600024BF00F8012B00F8012B48BF00F8012B33
:100770007047754600F02CF8AE46050069465346B2
:1007800020F00700854618B020B5FFF75FFDBDE8F3
:1007900020404FF000064FF000074FF000084FF0E8
:1007A000000B21F00701AC46ACE8C009ACE8C00979
:1007B000ACE8C009ACE8C0098D46704710B50446E6
:1007C000AFF300802046BDE81040FFF7DEBC00001C
:1007D00000487047B01A002001491820ABBEFEE760
:1007E000260002007047FEE730B58BB01A4800F0D3
:1007F000D5FB28216846FFF7FAFE00240125CDE944
:1008000005454FF48860CDE90004079569460895D1
:100810000494114800F0C8F808B100F052F82821FB
:100820006846FFF7E4FECDE905544FF400700090F0
:10083000CDE9074501904FF47E400290CDE90304D5
:100840006946054800F0B0F808B100F03AF80248EF
:1008500000F078FB0BB030BDD000002030B587B081
:10086000144605460B466A460021064800F014F976
:1008700010B1002007B030BD0098286004982070A7
:100880000120F7E7D000002000B587B0082A12D871
:10089000002910D0B0F5006F0DD20090002001901B
:1008A0000290CDE903028DF814000A4606AB6946B2
:1008B000024800F01AF807B000BD0000D000002088
:1008C000704772B6FEE790F82020012A07D0022A6E
:1008D00005D0416A41F480214162012070470068DF
:1008E00042690A43426100207047F0B590F82050F9
:1008F0000468A468012D05D0022D03D0416A41F49B
:1009000080214DE014F0406F01D1E50045D5C4F3DE
:1009100001640125A5401D608D684FF4C0739DB131
:10092000CE6835434E6845EAC605066803EB0417F2
:10093000F5514FF4C275076805EB04150E697E5139
:10094000097D012905D009E00E88CD6845EA4655A4
:10095000EBE701684E5946F480764E511179D2F892
:1009600005504FF4C67641EA0521056806EB0416EA
:10097000A9511178D2F801204FF4C47541EA02213F
:10098000026805EB04155151006803EB041142584D
:1009900042F0010242500020F0BD416A41F40011D2
:1009A00041620120F0BD000010B590F820300268CF
:1009B000012B07D0022B05D0416A41F4802141620E
:1009C000012010BDD2F8000240F00100C2F8000280
:1009D000087D00F01F0301209840D2F81C328343A9
:1009E000C2F81C32CB69B3B9D2F80C328343C2F8D7
:1009F0000C328C894B6864F31F434C6902EBC404CE
:100A0000C4F840320C890B6864F31F434C6902EB55
:100A1000C404C4F84432CB69012B16D1D2F80C328D
:100A20000343C2F80C320C884B6864F31F434C69D3
:100A300002EBC404C4F840320C89CB6864F31F4352
:100A40004C6902EBC404C4F844328B69002BD2F821
:100A500004320FD053EA0003C2F804320B69002BB2
:100A6000D2F8143208D00343C2F81432096A0129BB
:100A700004D008E08343EFE78343F5E7D2F81C1284
:100A80000143C2F81C12D2F8000220F00100C2F8A3
:100A90000002002010BD704770B590F82040012C76
:100AA00005D0022C03D0416A41F4802128E004687B
:100AB00009B32469A40720D04FF4D874056804EB67
:100AC00001142D5915F00405956005682D591AD0AB
:100AD000ED08556005682C5904F00204D4604FF409
:100AE000DA74056804EB01142E5906F00F06082E7F
:100AF0000CD308250DE0E468DCE7416A41F40011FD
:100B00004162012070BD6D0D1560E3E72D5905F0C0
:100B10000F05156105682D59C5F307259561056811
:100B20002C59240C54614FF4DC72046802EB01125E
:100B3000A4581C700468A458240A5C700468A45863
:100B4000240C9C700468A258120EDA704FF4DE7206
:100B5000046802EB0112A4581C710468A458240A0A
:100B60005C710468A458240C9C710468A258120E8D
:100B7000DA71006829B1016941F0200101610020AA
:100B800070BDC16841F02001C160F8E72DE9F05F58
:100B90000546006800244669D0F804908768D0F8BC
:100BA0000CB0D0F810A0D0F81880F10748D0F907A1
:100BB00014D001218160B80703D5284600F01FFA40
:100BC0000CE0780702D54FF4006407E0380702D53F
:100BD0004FF4805402E0284600F010FAF80516D5CC
:100BE00029684FF480708860B80503D5284600F066
:100BF00008FA0CE0780502D544F4005407E0380503
:100C000002D544F4804402E0284600F0F9F9F803E4
:100C100016D529684FF480308860B80303D528467C
:100C200000F0F1F90CE0780302D544F4004407E049
:100C3000380302D544F4803402E0284600F0E2F99B
:100C4000300707D55FEACB6004D52968102044F44B
:100C50000074C86070074FF0080707D55FEA0B7093
:100C600004D52868C760284600F05AF9B00706D5B1
:100C70002868C068800702D0284600F053F9700643
:100C800007D55FEACA6004D52968102044F480645F
:100C90000861B00607D55FEA0A7004D528680761C5
:100CA000284600F04BF9F00606D528680069800751
:100CB00002D0284600F043F9B00308D55FEAC960C6
:100CC00005D5296810204860284600F039F9F0035E
:100CD00007D55FEA097004D528684760284600F008
:100CE00093F9300446D55FEA497040D5F00504D544
:100CF0005FEAC87001D044F00104B00504D55FEA92
:100D0000887001D544F00204700504D55FEA48708C
:100D100001D544F00404300529D518F0700F26D011
:100D200008F07000402815D006DC102809D02028D3
:100D30000AD0302816D10AE050280ED0602811D1F0
:100D40000EE044F008040DE044F010040AE044F022
:100D5000200407E044F0400404E044F0800401E093
:100D600044F480742868816921F0700181612968E8
:100D700004204860002C05D0686A20436862284639
:100D8000FFF789FEBDE8F09F70B5040003D094F82A
:100D9000200010B104E0012070BD204600F082F870
:100DA0002068016841F00101016000F03FFA05464A
:100DB000052604E000F03AFA401B0A2811D8206802
:100DC0004068C007F6D02068016821F00201016088
:100DD00000F02CFA05460BE000F028FA401B0A2828
:100DE00006D9606A40F40030606284F82060D2E77F
:100DF000206840688007EFD4207E012820680168C1
:100E00003DD021F080010160607E012820680168EA
:100E100038D021F040010160A07E012820680168DF
:100E200033D021F020010160E07E012820680168B4
:100E30002ED041F010010160207F01282068016858
:100E400029D021F008010160607F01282068016835
:100E500024D021F004010160D4E902010843D4E95F
:100E60000412114308436168491E08432168C861A0
:100E700000206062012084F82000002070BD41F055
:100E80008001C0E741F04001C5E741F02001CAE719
:100E900021F01001CFE741F00801D4E741F004014F
:100EA000D9E7000010B586B00021009101910291B0
:100EB00003910068174988422AD11748C16941F057
:100EC0000071C161C16901F000710491816941F053
:100ED000040181618069114C00F0040004904FF41A
:100EE000006000906946204600F0A2F8A01400902F
:100EF00002200190032003906946204600F098F8F4
:100F000000220521142000F0B9FB142000F0A8FBFA
:100F100006B010BD0064004000100240000801400F
:100F200070470000024A03490348FFF797BC0000DE
:100F3000AC000020A0000020A800002070477047EF
:100F40007047000070B5044690F82000012804D0D6
:100F5000606A40F40020606218E0022084F82000FB
:100F60002068016821F00101016000F05FF9054689
:100F70000EE000BF00F05AF9401B0A2808D9606A49
:100F800040F400306062052084F82000012070BD2C
:100F900020684068C007EDD1606270BD70B504463E
:100FA00090F82000022804D0606A40F4801060624B
:100FB00014E02068016841F00101016000F036F999
:100FC00005460DE000F032F9401B0A2808D9606A96
:100FD00040F400306062052084F82000012070BDDC
:100FE00020684068C007EDD02068016821F0020148
:100FF0000160012084F82000002070BD7047704718
:1010000070477047704770477047000070B50446DE
:1010100000F00CF90546601C02D004480078044436
:1010200000F004F9401BA042FAD370BD100000206C
:101030002DE9F84FDFF8B8910024A9F1040B2346FD
:101040000F2709F1040AABF1040EC9E00125A54000
:101050002A40AA427DD1674ED1F804C0ACEB060805
:10106000B44532D014DCBCF1030F3AD009DCBCF13A
:10107000000F2AD0BCF1010F1CD0BCF1020F31D1FE
:101080001DE0BCF1110F17D0BCF1120F2AD119E0ED
:10109000B8F5881F19D006DCB8F5803F15D0B8F533
:1010A000801F1FD111E0B8F5001F0ED0B8F5041F46
:1010B00018D10AE0CB6815E0CB681B1D12E0CB68A5
:1010C00008330FE0CB680C330CE08B682BB1012B9D
:1010D0004FF0080303D0456104E0042302E00561FA
:1010E00000E00023FF2A01D8064601E000F10406D3
:1010F0004FEA840501D9A5F12005D6F8008007FA4A
:1011000005FC28EA0C0803FA05F548EA0508C6F8C4
:1011100000804D68ED0062D5374DAE6946F001069E
:10112000AE61AD6924F0030605F001050095334D6D
:1011300006EB050CDCF80850A607360F07FA06F890
:1011400025EA0805DFF8B880404503D14FF00008D4
:1011500017E044E0DFF8AC80404502D14FF00108D1
:101160000FE0DFF8A480404502D14FF0020808E00C
:10117000DFF89880404502D14FF0030801E04FF0BE
:10118000040808FA06F848EA0508CCF808804D6813
:10119000D9F80060ED024D4601D5164300E09643B4
:1011A0002E604D68DAF80060AD02554601D5164351
:1011B00000E096432E604D68DBF80060AD035D46AD
:1011C00001D5164300E096432E604D68DEF80060BE
:1011D000ED03754601D5164300E096432E60641C6E
:1011E0000D682A46E5407FF431AFBDE8F88F000076
:1011F00008040140000011100010024000000140EE
:1012000000080140000C01400010014000140140A2
:10121000C26821EA02030A4043EA024101617047C1
:101220000AB1016170470904FBE7000001488068CA
:10123000704700001000002070B5040025D094F81D
:101240003D00002520B984F83C50204600F050F9BC
:10125000242084F83D002068016821F0010101602C
:101260002068016841F4004101602068016821F4B0
:101270000041016000F0EAFA4D4A6168914201D8EC
:101280004C4900E04C49884201D2012070BD4B49D5
:101290002368B0FBF1F15E6826F03F060E435E6006
:1012A0006368934206D94FF4967359434FF47A73A7
:1012B000B1FBF3F12368491C1E6A26F03F06314357
:1012C00019626168914210D84900401EB0FBF1F2EA
:1012D000521CC2F30B02042A01D2042022E0B0FB0C
:1012E000F1F0401CC0F30B001CE0A268F2B301EB6C
:1012F000C10303EB0116431EB3FBF6F35B1C43F47F
:1013000080431B0549D092B301EBC10202EB0111EE
:10131000401EB0FBF1F0401CC0F30B0040F48040D5
:1013200040F400402168CA694CF6FF739A431043A9
:10133000C861D4E9071001432068026822F0C002A6
:1013400011430160D4E9030101432068826848F237
:10135000FF339A4311438160D4E9050108432168B2
:10136000CA6822F0FF021043C86001E00EE016E0F8
:101370002068016841F0010101602564202084F8A3
:101380003D00256384F83E50002070BD01EB41060E
:10139000431EB3FBF6F35B1CB3E70120C2E701EB8E
:1013A0004101401EB0FBF1F0401CC0F30B00B7E759
:1013B000A086010080841E0000093D0040420F000D
:1013C0002DE9FF4F83B09A46DDE911979346044615
:1013D000DDF84080FFF72AFF054694F83D002028FD
:1013E0007FD11923012240492046009500F076FE66
:1013F000002876D194F83C00012872D0012084F8AE
:101400003C0020680168C90703D1016841F001016F
:1014100001602068016821F400610160212084F8E6
:101420003D00402084F83E0000262664C4F8248055
:10143000A4F82A90608D20852C48E062CDE90075E3
:1014400053465A462046049900F0C8FD70B930E072
:101450002A463946204600F0E7FE58B1206C0428A1
:1014600004D12068016841F400710160012007B0D7
:10147000BDE8F08F606A216800780861606A401CEE
:101480006062218D491E89B22185628D521E62855E
:1014900022685369DB435B070BD469B100781061A4
:1014A000606A401C6062208D401E2085608D401E59
:1014B0006085208D0028CBD12A463946204600F091
:1014C000E1FD0028CAD154F83D0B016841F40071D8
:1014D0000160202004F81E09E67766770020C6E741
:1014E000FFE70220C3E70000020010000000FFFF3A
:1014F00010B586B00021009101910291039100681E
:101500000F4988421AD10F4CA06940F00800A06131
:10151000A069694600F008000490C02000901220E5
:101520000190032003900848FFF782FDE06940F432
:101530000010E061E06900F40010049006B010BDF6
:101540000054004000100240000C01400248816835
:10155000027811448160704710000020074810B5E0
:10156000016841F010010160032000F0A7F80F208E
:1015700000F006F800F050F8002010BD00200240F6
:1015800030B505461F4887B0C16941F00401C1610B
:10159000C06906A900F00400009001A800F036F927
:1015A0000498B0B100F052F940001749174AB0FB57
:1015B000F1F11748491E0260416040F2E732002114
:1015C000C0E903218160816100F03CFB040003D08D
:1015D00015E000F03BF9E8E70D4800F07FFB040060
:1015E0000DD11E2000F03CF8102D07D20022294614
:1015F0001E2000F043F80748056000E0012407B012
:10160000204630BD0010024040420F00000800405C
:1016100094010020140000200F4808B5816941F0B2
:1016200001018161816901F001010091C16941F00D
:101630008051C161C069002200F0805000900F21EC
:10164000901E00F01BF80548416821F0E06141F070
:101650000071416008BD0000001002400000014020
:10166000002809DB00F01F020121914040098000A1
:1016700000F1E020C0F8001170470000F0B40E4BFC
:101680001B680C46C3F30223C3F10705042D00D9E0
:101690000425191D072901D2002300E0DB1E0126C5
:1016A00006FA05F1491E214099409E40761E1640DB
:1016B0003143F0BC01F0D0B80CED00E0064900F079
:1016C000070208684FF6FF03184040EA0220034A69
:1016D00010430860704700000CED00E00000FA05C0
:1016E0002DE9F0470F46050061D0434E306800F009
:1016F0000700B84209D2306820F007003843306054
:10170000306800F00700B84251D128683B4C81078F
:1017100012D5400703D5606840F4E0606060287827
:10172000000703D5606840F4605060606068A96895
:1017300020F0F000084360602878C00728D068686F
:10174000012810D02168022810D0890700292EDA3C
:10175000616821F0030101436160FFF767FD804686
:1017600041F288390DE021688903EFE78901EDE74F
:10177000FFF75CFDA0EB0801494502D90320BDE855
:10178000F0876068696800F00C00B0EB810FEFD162
:10179000306800F00700B8420BD9306820F007002D
:1017A00038433060306800F00700B84201D00120B3
:1017B000E5E72878400705D56068E96820F4E0602F
:1017C000084360602878000706D56068296920F41E
:1017D000605040EAC100606000F048F86168084A63
:1017E000C1F30311515CC84006490860064800680F
:1017F000FFF7C6FE0020C2E70020024000100240B2
:101800007E4000081C000020140000200F2202600F
:101810000C4A536803F003034360536803F0F0037A
:101820008360536803F4E063C36052684FF4E0637D
:1018300003EAD20202610448006800F00700086071
:101840007047000000100240002002400448054993
:1018500000684968044AC1F30221515CC8407047DE
:101860001C000020001002408E4000080E4A516803
:101870000E4801F00C03042B11D0082B0FD10C489B
:10188000C1F38343C903C05C0AD55168084AC1F358
:101890004041921E515C054A5043B0FBF1F0704745
:1018A00004494843704700000010024000127A00CB
:1018B0006E40000800093D002DE9F84F040070D08B
:1018C0002078C04DC00749D06868C0F38100012866
:1018D00007D06868C0F38100022809D16868C00396
:1018E00006D52868800339D560680028E7D035E040
:1018F0006068B0F5803F0BD010B1B0F5A02F11D0CB
:10190000286820F480302860286820F4802002E0D5
:10191000286840F480302860606890B1FFF786FC4A
:1019200006460AE0286840F480202860F0E700BFFF
:10193000FFF77CFC801B642873D828688003F7D5E8
:101940000CE0FFF773FC064605E000BFFFF76EFCF6
:10195000801B6428F0D828688003F7D420789A4E3A
:1019600080074FF001094FF0000839D5686810F082
:101970000C0F07D06868C0F38100022809D168689D
:10198000C00306D42868800714D52069012808D12F
:1019900010E02069B0B1C6F80090FFF747FC074699
:1019A00005E00AE1FFF742FCC01B0228C4D8286802
:1019B0008007F7D52868616920F0F80040EAC10087
:1019C00028600DE0C6F80080FFF730FC074604E011
:1019D000FFF72CFCC01B022823D828688007F7D407
:1019E000207800072CD57948A169D9B1C0F80090BA
:1019F000FFF71CFC074604E0FFF718FCC01B022899
:101A00000FD8686A8007F7D571484FF4FA5100681B
:101A1000B0FBF1F0009000BF0098411E0091FAD297
:101A20000EE080E0C0F80080FFF700FC074604E00D
:101A3000FFF7FCFBC01B022875D8686A8007F7D443
:101A40002078400760D5E8690027C00008D4E8691D
:101A500040F08050E861E869012700F08050009074
:101A60005C480168C90513D40168834641F480715C
:101A70000160FFF7DBFB824606E000BFFFF7D6FB05
:101A8000A0EB0A0064284ED8DBF80000C005F5D5AD
:101A9000E06801280AD008B1052813D0286A20F090
:101AA00001002862286A20F0040002E0286A40F061
:101AB00001002862E06841F2883B98B1FFF7B6FB6D
:101AC00082460BE0286A40F004002862EEE700BF7F
:101AD000FFF7ACFBA0EB0A0159455AD8286A8007EA
:101AE000F6D50CE0FFF7A2FB824605E0FFF79EFB70
:101AF000A0EB0A0159454CD8286A8007F6D41FB1DB
:101B0000E86920F08050E861E06988B36968C1F352
:101B10008101022944D00228C6F8608004D0FFF772
:101B200085FB044638E034E0FFF780FB074604E01D
:101B3000FFF77CFBC01B02282BD828688001F7D454
:101B4000206AB0F5803F05D16868A16820F40030B4
:101B500008436860D4E908010843696821F47411F6
:101B600008436860C6F86090FFF760FB044606E033
:101B700025E000BFFFF75AFB001B022809D82868A0
:101B80008001F7D51BE000BFFFF750FB001B0228C8
:101B900002D90320BDE8F88F28688001F4D40EE054
:101BA0000128F7D06868226A00F48031914204D19C
:101BB000616A00F47010884201D00120EAE7002039
:101BC000E8E7000000100240000042428004424268
:101BD0001C000020007000407047704770B590F8FE
:101BE0003C20012A26D0012480F83C40022280F8C3
:101BF0003D2003685A689D6822F070060A683243E7
:101C00005A600D4B02689A4208D0B2F1804F05D05D
:101C10000A4B9A4202D00A4B9A4204D1496825F0F5
:101C200080031943916080F83D40002180F83C100A
:101C3000084670BD022070BD002C01400004004029
:101C40000008004010B5040003D094F83D0010B126
:101C500007E0012010BD002084F83C00204600F081
:101C60001FF8022084F83D00211D206800F056FD79
:101C7000012084F8460084F83E0084F83F0084F890
:101C8000400084F8410084F8420084F8430084F85E
:101C9000440084F8450084F83D00002010BD000099
:101CA00008B500680B49884212D10B48816941F49C
:101CB000006181618069002200F4006000900521CC
:101CC0001920FFF7DBFCBDE808401920FFF7C8BC6E
:101CD00008BD0000002C01400010024090F83D10AB
:101CE000012901D001207047022180F83D100168D0
:101CF000CA6842F00102CA6000680B49884208D0F5
:101D0000B0F1804F05D00949884202D00849884285
:101D100004D1816801F00701062903D0016841F070
:101D20000101016000207047002C014000040040C8
:101D30000008004070B5044690F83C0000250128DA
:101D400017D0012684F83C60022084F83D0020680A
:101D5000826822F0770222F47F428260086850286D
:101D600038D00DDC20284FD005DC90B3102811D1DD
:101D70004AE0022070BD302846D040280AD13BE01E
:101D800060282FD070280DD0B0F5805F03D0B0F55B
:101D9000005F12D0012584F83D60002084F83C00EB
:101DA000284670BDCB68D1E90121206800F0F2FC23
:101DB0002068816841F0770109E0CB68D1E9012111
:101DC000206800F0E7FC2068816841F48041816070
:101DD000E1E719E0CA684968206800F0EDFC50218D
:101DE000206806E0CA684968206800F0F6FC6021B7
:101DF000206800F0D9FCCEE7CA684968206800F086
:101E0000DBFC40212068F4E7226801461046F0E739
:101E100070472DE9F04104460068C66805694FF037
:101E20000007A90713D5B10711D5F91E01610120DB
:101E30002077206880698007204602D0FFF7E8FFFE
:101E400004E000F07EF8204600F07CF82777680771
:101E500016D5700714D521686FF0040008610220C0
:101E600020772068806910F4407F204602D0FFF779
:101E7000CFFF04E000F065F8204600F063F8277714
:101E8000280715D5300713D521686FF008000861C1
:101E9000042020772068C0698007204602D0FFF721
:101EA000B7FF04E000F04DF8204600F04BF827772C
:101EB000E80616D5F00614D521686FF01000086109
:101EC000082020772068C06910F4407F204602D0A7
:101ED000FFF79EFF04E000F034F8204600F032F8EF
:101EE0002777E80708D0F00706D021686FF00100D7
:101EF0000861204600F028F8280608D5300606D5E7
:101F000021686FF0800008612046FFF765FE6806D3
:101F100008D5700606D521686FF04000086120469C
:101F200000F042F8A8060AD5B00608D521686FF07F
:101F3000200008612046BDE8F041FFF74EBEBDE835
:101F4000F0817047704700007CB504460068124974
:101F5000884201D1FFF7FAFA10492068884219D166
:101F60000F4C2088401C80B22080B0F5FA7F11D33E
:101F70000025009549140B480195FFF749F9258084
:101F800060688DF8000001226946FEF77DFC6068FC
:101F9000401C60607CBD000000080040002C014037
:101FA00000000020001001407047FEE701684A6908
:101FB000D24352050FD46FF480624A61002140F889
:101FC000301F202242738173026942F004020261D1
:101FD0000173012070470020704700002DE9F8438D
:101FE000044600680D46DDE90897016898461646E4
:101FF00041F4807101604B4600224FF001112046F0
:10200000009700F06BF848B120680068C00502D561
:102010004FF4007020640320BDE8F883216805F0C8
:10202000FE0008613B464A461549204600F09EF8EE
:1020300088B920684169806900903A46494620463F
:1020400000F0F2F848B1206C042804D1206801683F
:1020500041F4007101600120DEE7F5B2B8F1010F33
:1020600009D02168300A08613A464946204600F006
:10207000DBF80028E7D1206805610020CCE70000EC
:102080000200010070B516460D4604461EE02046CB
:10209000FFF78CFF08B1012070BD681C16D0FFF758
:1020A000C5F8801BA84200D885B920684069C043A4
:1020B00040070BD5002044F8300F20216173A07336
:1020C000216941F0200121612073E4E72068406923
:1020D000C0434007DBD4002070BD00002DE9F0476D
:1020E000984617460D460446C1F30746DDF8209092
:1020F0002AE000BFB8F1FF3F26D0FFF797F8A0EB2A
:102100000901414502D8B8F1000F1DD12068012E08
:1021100016D0806925EA00000004000C12D00020CF
:10212000B84211D1002044F8300F20216173A07310
:10213000216941F02001216120730120BDE8F08771
:102140004069E7E70120EBE72068012E0AD08069AB
:1021500025EA00000004000C06D00020B842C9D0D7
:102160000020EBE74069F3E70120F7E72DE9F047AE
:10217000984616460D4604464FF000094FF0200AD7
:10218000C1F3074723E020684069C043400515D4E8
:102190002068016841F40071016021686FF480607B
:1021A0004861C4F8309084F83DA084F83E90216CDA
:1021B00041F00401216484F83C9021E0701C06D0B9
:1021C000FFF734F8A0EB0800B04203D816B1012F96
:1021D0001FD021E02068012F15D0806925EA00007A
:1021E0000004000C18D000BF44F8309F84F80DA004
:1021F00084F80E90216941F02001216184F80C904F
:102200000120BDE8F087406925EA00000004000CC9
:10221000EAD12068406901E02068806925EA000071
:102220000004000CAFD1ECE770B516460D4604462D
:102230001EE02046FFF7BAFE08B1012070BD681C01
:1022400016D0FEF7F3FF801BA84200D885B920689E
:102250004069C04300060BD5002044F8300F202110
:102260006173A073216941F0200121612073E4E7CB
:1022700020684069C0430006DBD4002070BD000028
:102280000E4810B50C49016010214160890681603B
:102290000021C16001614161017641768176C1769C
:1022A00001774177FEF770FD002803D0BDE81040AC
:1022B000FEF707BB10BD000000640040D000002006
:1022C00010B58AB000F032F900F010F91248FEF7AC
:1022D00039FEFEF789FA02210F48FEF7F4FA0F489B
:1022E000FFF7FCFC0E4A00210E4800F01BFB0E4CD1
:1022F0002421E0606846FEF77AF909492422243156
:102300006846FEF73AF96A460021084800F00AFBE1
:10231000A0600AB010BD0000D00000204C010020D9
:102320002440000881260008000000205D240008E9
:1023300070B586B000241C48009401940294039464
:10234000816941F010018161816901F010010491FE
:10235000816941F020018161816901F020010491CE
:10236000816941F004018161816901F004010491F6
:10237000816941F0080181618069012200F0080053
:102380000A4E5503049029463046FEF749FF0120C6
:102390000095CDE901040220039069463046FEF71E
:1023A00047FE06B070BD0000001002400010014062
:1023B0000D4810B50B4901600C49416000214FF4F4
:1023C00080428160C0E9031241618161C1610162A3
:1023D000FEF732FF002803D0BDE81040FEF771BAC7
:1023E00010BD000000540040F8000020801A0600D4
:1023F00010B586B000241748009401940294039409
:1024000004941349059401604721C0E9011440F286
:10241000E731C0E9031444618461FFF713FC08B19C
:10242000FEF74FFA4FF48050009069460948FFF7D5
:1024300081FC08B1FEF745FA049404A90548059407
:10244000FFF7CCFB002801D0FEF73BFA06B010BD29
:10245000002C01404C010020FEE7FEE71CB5134DA7
:10246000134E144C14A117482A68FDF701FF0021F0
:10247000144A084600F0EEF8327813A11148FDF72F
:10248000F7FE104A0221002000F0E4F8E178A0787D
:10249000CDE90001637822780EA10A48FDF7E8FE35
:1024A000084A0421002000F0D5F8DBE7A80000204E
:1024B000AC000020A0000020525849443A30782552
:1024C00030335800B00000204C454E4754483A2560
:1024D00064000000443A253032582025303258201C
:1024E000253032582025303258000000002000F0FE
:1024F00001B8000070B506465FF0000404F1B000BA
:10250000C0B200F085F9002000F082F9102000F040
:102510007FF90025304600F08DF96D1CEDB2802D5D
:10252000F8D3641CE4B2082CE8D370BD10B5642065
:10253000FEF76CFDAE2000F06BF9202000F068F98A
:10254000102000F065F9B02000F062F9C82000F01A
:102550005FF9002000F05CF9102000F059F94020EC
:1025600000F056F9812000F053F9FF2000F050F9F7
:10257000A12000F04DF9A62000F04AF9A82000F0B3
:1025800047F93F2000F044F9A42000F041F9D3209E
:1025900000F03EF9002000F03BF9D52000F038F9BA
:1025A000F02000F035F9D92000F032F9222000F0B7
:1025B0002FF9DA2000F02CF9122000F029F9DB20A5
:1025C00000F026F9202000F023F98D2000F020F9FA
:1025D000142000F01DF9BDE81040AF2000F018B93C
:1025E00010B50446B031C8B200F012F9102040EA2C
:1025F000141000F00DF904F00F00BDE8104040F099
:10260000010000F005B900002DE9F041203A002456
:10261000D5B20E4607465F2D18D2FFF7E1FF0C48F2
:1026200000EB0515285D00F005F9641CE4B2082CE8
:10263000F8D3761CF1B23846FFF7D2FF04E0285DEC
:1026400000F0F8F8641CE4B2102CF8D3BDE8F08177
:10265000964000082DE9F04116460F460546002435
:1026600009E0772D07D839462846FFF7CDFF083512
:10267000641CEDB2E4B2325D002AF2D1BDE8F08113
:10268000012000F013F9FBE710B54FF0E0200069DE
:1026900001F012FB012803D0BDE8104001F040B862
:1026A00010BD30B58FB028216846FDF7A0FF14217A
:1026B0000AA8FDF79CFF01210804CDE900100024C1
:1026C000029402250491CDE907504FF4E0100990DF
:1026D0006846FFF7F1F808B172B6FEE70F20CDE9C2
:1026E0000A054FF48060CDE90C4002210AA80E943F
:1026F000FEF7F6FF002801D072B6FEE70FB030BD3E
:10270000704700000148FFF784BB00004C01002027
:102710000148FFF77EBB000094010020F0B502687D
:10272000194B1A4C1A4D4FF08047984205D0B842C9
:1027300003D0A04201D0A84203D122F070064A681B
:102740003243984205D0B84203D0A04201D0A842FB
:1027500003D122F44074CA6822434C6922F08002FB
:10276000224302608A68C2620A688262984201D18A
:1027700009690163012141610169C90703D0016948
:1027800021F001010161F0BD002C01400004004076
:102790000008004010B5846842EA032224F47F4414
:1027A0000A432243826010BD826822F070020A430D
:1027B00042F007018160704710B5036A046A24F093
:1027C00001040462846924F0F00444EA021423F052
:1027D0000A020A438461026210BD10B5036A046AEA
:1027E00024F010040462846923F0A00324F47044EC
:1027F00044EA023243EA01118261016210BD000025
:102800000148FEF7C3B90000D0000020FEE7000039
:1028100001B584B001214FF47A7204A88DE8070055
:102820000B46002278210248FEF7CAFD05B000BD24
:10283000F800002001B584B00121642204A88DE8CD
:1028400007000B46402278210248FEF7B9FD05B08B
:1028500000BD0000F80000200907090E002804DB75
:1028600000F1E02080F80014704700F00F0000F144
:10287000E02080F8141D704730380A2801D201206A
:10288000704700207047FEF769FEFFF70AFFFFF769
:102890004FFDFFF7F5FCFFF78BFDFFF7A9FD00F0FB
:1028A00013F8FFF70DFD00F021F8FEE710B5EFF388
:1028B000058111B16FF0050403E0002408B100F0B8
:1028C000F5FD204610BD0000EFF3058010B16FF05C
:1028D000050070470448016811B14FF0FF307047A0
:1028E00001210160002070477000002010B5EFF357
:1028F000058010B16FF0050010BD0848016801297E
:1029000002D04FF0FF3010BD054A002182F8141D9F
:102910000221016000F032FE002010BD7000002096
:102920000BE000E02DE9FF414FEA01034FF0000505
:10293000EFF30581039549BB40B38027182100249C
:102940004AB3166806B1344696691EB13146761E02
:10295000382E02D21679F60703D0002004B0BDE865
:10296000F081566906B1B708D2F808C0BCF1000F73
:102970000DD0D5685C2D18D312693AB136B18DE807
:1029800006103A46214601F06CF903900DE0D66836
:102990005EB912694AB903AACDE90012BAB221465A
:1029A00001F032F9012800D003950398D6E7000022
:1029B0002DE9F041134C0F460546E6682068001DDE
:1029C00000F040FC681C07D137B12168BDE8F04138
:1029D0000D48091D00F086BC20683544B5424560AD
:1029E000216805D2A06BBDE8F041091D00F062BC72
:1029F000606B091D00F05EFCA06A854200D2A562F2
:102A0000BDE8F08120000020CC0600202DE9F04137
:102A1000054600F073FC2D4CA068401CA0602068A7
:102A20002B4F10B1606930B32BE02560A0680128FE
:102A300027D1002606EB860007EB800000F02CFC77
:102A4000761C382EF6D3234800F026FC214814309B
:102A500000F022FC1F48283000F01EFC1D483C30CE
:102A600000F01AFC1B48503000F016FC1948606357
:102A70001430A06305E02068E96AC06A884200D883
:102A80002560606A401C60626864E86A2169884267
:102A900000D9206100EB800007EB8000291D00F0C9
:102AA00021FC00F04BFC606900280CD02068E96A2A
:102AB000C06A884207D208494FF080500860BFF3CF
:102AC0004F8FBFF36F8FBDE8F08100002000002022
:102AD0001C0200207C06002004ED00E038B500F068
:102AE0000DFC104C2068C8B90F4800F0D5FB0E480B
:102AF000143000F0D1FB0C48E060143020610A4B28
:102B00000020F03B009003F1500210210A2000F059
:102B10001DFE206010B105A100F092FCBDE8384018
:102B200000F00CBC5C000020D0070020546D7251F6
:102B30000000000030B4026C0B46002A0BD0C168C4
:102B40001144C1608468A14201D30168C16030BCF6
:102B50001846FDF7CDBC30BC70472DE9F041856BC0
:102B6000174604460026026C82B1C7B1E068FDF743
:102B7000BFFCE168206C091AE1602268914202D230
:102B8000A168081AE060022F16D017E02068A8B9E3
:102B9000A06801F009F906460020A0600EE0606818
:102BA000FDF7A6FC216C606808446060A16888425B
:102BB00004D32068606001E005B16D1E6D1CA56343
:102BC0003046BDE8F08110B5044690F8590058B180
:102BD00001280CD002280FD0502080F31188BFF3B9
:102BE0004F8FBFF36F8FFEE7206B00F0BBFB2046DB
:102BF000BDE8104000F0B6BB10BD000010484FF417
:102C00004061420706D0C01D0D4920F00700411A5F
:102C1000C1F540610B4A00230144C2E900030839B1
:102C2000183A21F0070111604B600B600B1AC0E9E4
:102C3000001393604FF000405360506170470000F4
:102C4000B00E00208C000020144E154CA6F29C47BC
:102C50004FF08058DFF84C9012E000BF00F04EFBC0
:102C6000F068C568281D00F0EDFAA068401EA0605D
:102C70006068401E606000F061FB2846FFF7A3FF1C
:102C800060680028EAD138680128F9D9C9F80080BD
:102C9000BFF34F8FBFF36F8FF2E70000B80600203D
:102CA0002000002004ED00E070B51D46049C51B1E9
:102CB000C4F80020C4E90F010121204600F07AFD8C
:102CC00084F84C5070BD2460F4E700002DE9F05FFB
:102CD0008846DDE90B941546834691009A460A9E84
:102CE000A522206BFDF77BFC6FF00301206B01EB4D
:102CF0008501084420F00707780707D0502080F3AB
:102D00001188BFF34F8FBFF36F8FFEE70025B8F137
:102D1000000F0FD05FF00000221818F8001082F8A2
:102D2000341018F8001011B1401C1028F4D384F8A6
:102D3000435001E084F83450382E00D33726E66241
:102D4000C4E91365201D00F0B2FA04F1180000F088
:102D5000AEFA2461C6F138006462A061656584F84A
:102D6000585052465946384600F05AFA2060B9F198
:102D7000000F01D0C9F80040BDE8F09F30B51149FF
:102D800000E011460A688242FBD34B685C1884421B
:102D900003D1406818444860084643681C189442B0
:102DA00009D1084C183C2468A24209D052681A4440
:102DB00042600A6812680260814200D0086030BD3B
:102DC0000460F9E78C00002070B5002441600B4DD1
:102DD0000061914206D8D11A8269914206D2011D42
:102DE000286907E09A4203D2994201D3012403E003
:102DF000011DE86800F05EFA204670BD5C0000200E
:102E000010B5044600F07AFAA06B28B15FF0000418
:102E100000F094FA204610BD0124F9E730B589B0DE
:102E20003C4D6EE00498002806DADDE90601059ABB
:102E300090470498002864DB069C606910B1201D4F
:102E400000F000FA03A800F0D7F8024604980A2818
:102E500057D2DFE800F00505052D334A05052D336F
:102E600094F8280040F0010084F828000599A06932
:102E7000059B01442046FFF7A7FF68B3216A20465F
:102E8000884794F8280040073BD50020009005981B
:102E9000A169002342181946204601F08FF8D8B9DD
:102EA000502080F31188BFF34F8FBFF36F8FFEE781
:102EB00014F8280F20F00100207022E094F8280078
:102EC00040F0010084F828000598A06128B181181D
:102ED00013462046FFF778FF13E0502080F3118857
:102EE000BFF34F8FBFF36F8FFEE794F82800810781
:102EF00003D4204600F036FA03E020F0010084F805
:102F00002800002204A9286800F0A8FD002889D123
:102F100009B030BD5C0000202DE9FC410F4605469C
:102F200000F070FB01A800F067F80446019818B1A2
:102F300000F0B2FFBDE8FC81254EAFB130690068FA
:102F4000D0B30027291B3A46306800F08DFA00F014
:102F5000A3FF0028EED11F494FF080500860BFF357
:102F60004F8FBFF36F8FE5E7A542EBD800F094FFDA
:102F7000F0682746C068C468201D00F063F994F823
:102F80002800410719D5A0692B4641193A46204629
:102F9000FFF71AFFA8B100200346014600902A4619
:102FA000204601F00BF860B9502080F31188BFF380
:102FB0004F8FBFF36F8FFEE707E020F0010084F82A
:102FC0002800216A20468847B4E70127BAE70000B5
:102FD0005C00002004ED00E00648416B096829B15F
:102FE000416BC968C9684968816270474FF0FF3119
:102FF000FAE700002000002070B5054600F06AFEE8
:10300000064E0446B068844203D200F009F801205D
:1030100000E0002028602046B46070BD5C00002005
:10302000F8B5194D20E0C068C4680668201D00F09E
:1030300009F9216A2046884794F82800400713D5EB
:10304000A0693044B04206D924616060211DE8685F
:1030500000F030F908E000200346014600903246B7
:10306000204600F0ABFF38B1E86801680029DAD1EA
:103070002969C5E90310F8BD502080F31188BFF31A
:103080004F8FBFF36F8FFEE75C0000200848406859
:10309000401C4FF0500080F3118804D0BFF34F8FD5
:1030A000BFF36F8FFEE7BFF34F8FBFF36F8FFEE766
:1030B00094000020074CE068016841B1C06800211D
:1030C000D0F80000FFF728FFFFF7A8FEF3E7012183
:1030D0000020F7E75C0000202DE9F041044600F0F5
:1030E0000DF994F9455004F1240609E0606A48B1ED
:1030F000304600F099FE08B100F006FA6D1E6DB280
:10310000002DF3DC4FF0FF3684F8456000F016F92F
:1031100000F0F4F894F9445004F1100709E0206934
:1031200048B1384600F080FE08B100F0EDF96D1EA0
:103130006DB2002DF3DC84F84460BDE8F04100F08E
:10314000FDB800002DE9F0410546002700F05AFACD
:10315000324E306808B9FFF751FD706905424ED113
:10316000C5B3083568070ED005F00700C0F10800A8
:103170000544680707D0502080F31188BFF34F8FB4
:10318000BFF36F8FFEE72DB37068854237D82348B1
:10319000183001460C6801E020460C466168A942DF
:1031A00002D221680029F7D131688C4227D0076804
:1031B0002168016060680837411B10290FD9601928
:1031C000420708D0502080F31188BFF34F8FBFF320
:1031D0006F8FFEE713E041606560FFF7CFFD616828
:1031E0007068401A7060B268904200D2B060706936
:1031F00001430020C4E90001F068401CF06000F0C9
:103200004BFE780707D0502080F31188BFF34F8F13
:10321000BFF36F8FFEE73846BDE8F08174000020F1
:1032200010B5031F4FF080741C601B1F21F00101BB
:103230001960191F024B0B60143940380A6010BD29
:103240008D300008D0E9013201699A60D0E901238C
:103250005A604A68824201D182684A600022026153
:103260000868401E0860086870470000034B036050
:1032700003F15C000860802010607047F8070020B0
:10328000044B036003F15C0008604FF48070106031
:1032900070470000540A002000F108014FF0FF328F
:1032A000C0E90112C1600161002101607047002185
:1032B0000161704730B50B685A1C02D000F108025A
:1032C00002E0026904E02246546825689D42FAD96A
:1032D00053684B6099608A60516008610168491CBD
:1032E000016030BD42684A6093688B6093685960A2
:1032F000916008610168491C01607047502080F3AB
:103300001188BFF34F8FBFF36F8F0A494868401C85
:10331000486001280CD10848006810F0FF0F07D062
:10332000502080F31188BFF34F8FBFF36F8FFEE7FC
:10333000704700009400002004ED00E00849486850
:1033400028B1401E486001D180F311887047502099
:1033500080F31188BFF34F8FBFF36F8FFEE700003C
:103360009400002070B500282AD0164DA0F1080462
:1033700060686969084207D1502080F31188BFF363
:103380004F8FBFF36F8FFEE722683AB1502080F372
:103390001188BFF34F8FBFF36F8FFEE788436060E4
:1033A00000F030F960686968084468602046FFF7FB
:1033B000E5FC2869401C2861BDE8704000F06CBD48
:1033C00070BD0000740000204FF0E020002101617A
:1033D000816105494FF47A720968B1FBF2F1491E27
:1033E00041610721016170471C00002010B5FCF706
:1033F0001BFF114910280ED300F1E02090F8F003D4
:103400000A78904207D2502080F31188BFF34F8F83
:10341000BFF36F8FFEE709480068896800F4E06039
:10342000884207D9502080F31188BFF34F8FBFF334
:103430006F8FFEE710BD0000940000200CED00E04F
:1034400010B5084B002200BF53F832401CB1521C8B
:10345000082AF9D310BD43F8321003EBC2014860CB
:1034600010BD0000DC01002070B515460E46044674
:10347000FFF744FF94F944100020491C01D184F85F
:10348000440094F94510491C01D184F84500FFF728
:1034900055FFA06B28B92A46314604F1240000F0FC
:1034A00051F82046BDE87040FFF716BE10B5020087
:1034B00014D00F48006B38B1502080F31188BFF34F
:1034C0004F8FBFF36F8FFEE700F09CF8002110468E
:1034D000FFF76EFA00F0E0FC002807D105494FF035
:1034E00080500860BFF34F8FBFF36F8F10BD000097
:1034F0002000002004ED00E002490A6A0260C96869
:10350000416070472000002001490120C8617047D8
:103510002000002010B50C4650B109490968183147
:10352000FFF7C8FE2046BDE810400121FFF740BA72
:10353000502080F31188BFF34F8FBFF36F8FFEE7EA
:103540002000002070B514460D4668B10A4909688C
:103550001831FFF7C7FE0CB14FF0FF352146284662
:10356000BDE87040FFF724BA502080F31188BFF304
:103570004F8FBFF36F8FFEE72000002030B587B07C
:103580000024039405AA04A903A80494FFF76EFE7F
:10359000DDE903010094CDE90110002315A11748CE
:1035A000059A00F05EFB164D0028E8621FD000F07F
:1035B000D5FC012809D0401C19D1502080F3118876
:1035C000BFF34F8FBFF36F8FFEE7502080F311885A
:1035D000BFF34F8FBFF36F8F4FF0FF30A862012012
:1035E0006861EC6007B0BDE8304000F045B807B056
:1035F00030BD000049444C4500000000492C000843
:10360000200000200248016B491C01637047000044
:1036100020000020164810B5016B11B10121C161D5
:1036200010BD0021C1610169124A01E0B9B1491E12
:1036300001EB810352F82330002BF7D001EB81031B
:1036400002EB830202F1080453685B685360A342F3
:1036500001D15B685360DA680260016110BD5020DF
:1036600080F31188BFF34F8FBFF36F8FFEE7000029
:10367000200000201C0200201CB52649087801907B
:10368000FF20087008788DF800009DF800009DF874
:10369000002000F0F000904207D0502080F3118805
:1036A000BFF34F8FBFF36F8FFEE79DF800001A4CFA
:1036B00000F0500020700720A06005E09DF8002079
:1036C00052008DF80020401E9DF800201206F5D40F
:1036D000A060032807D0502080F31188BFF34F8FDC
:1036E000BFF36F8FFEE74FF44070A0600198087041
:1036F0000A48016841F470010160016841F07041BD
:103700000160FFF761FE00206060FCF757FD0020BC
:103710001CBD000000E400E09400002020ED00E06B
:1037200010B5502080F31188BFF34F8FBFF36F8F18
:1037300000F0D6FA18B104494FF08050086000201C
:1037400080F3118810BD000004ED00E038B5049D41
:1037500018B153B1CAB181B120E0502080F3118873
:10376000BFF34F8FBFF36F8FFEE7502080F31188B8
:10377000BFF34F8FBFF36F8FFEE7502080F31188A8
:10378000BFF34F8FBFF36F8FFEE739B1502080F347
:103790001188BFF34F8FBFF36F8FFEE750241C4695
:1037A000012384F846302B460094FFF77DFA20462B
:1037B00038BD000070B50D46040025D0FFF79EFD12
:1037C000D4E90F20216802FB0011A1600021A16350
:1037D000216861600A46D4E90F01401E00FB012107
:1037E000E16021464FF0FF3001F8440F487004F1CA
:1037F00010008DB1FFF750FD04F12400FFF74CFDE0
:10380000FFF79CFD012070BD502080F31188BFF3AD
:103810004F8FBFF36F8FFEE721690029F0D000F0D2
:1038200003FB0028ECD004494FF080500860BFF340
:103830004F8FBFF36F8FE3E704ED00E02DE9FF4703
:1038400082B01D468A464FF00008040003D0BAF14A
:10385000000F08D011E0502080F31188BFF34F8F84
:10386000BFF36F8FFEE7206C38B1502080F31188D2
:10387000BFF34F8FBFF36F8FFEE7022D0AD1E06BCE
:10388000012807D0502080F31188BFF34F8FBFF37A
:103890006F8FFEE700F010FA3F4F4FF000094FF036
:1038A000805648B9049838B1502080F31188BFF38E
:1038B0004F8FBFF36F8FFEE7FFF720FDA06BE16B2B
:1038C000884207D3022D05D00498D0B1B8F1000F7B
:1038D0001AD01EE02A4651462046FFF73EF9616A9B
:1038E00019B104F1240000F09FFA20B13E60BFF34B
:1038F0004F8FBFF36F8FFFF721FD012006B0BDE8AA
:10390000F087FFF71BFD22E06846FFF7F5FD4FF05B
:103910000108FFF713FDFFF775FEFFF7EFFC94F9C1
:103920004400401C01D184F8449094F94500401CA7
:1039300001D184F84590FFF701FD04A9684600F025
:1039400029F930B12046FFF7C7FB00F0A5FA0020A7
:10395000D4E7FFF7D3FCA06BE16B884213D1FFF7EC
:10396000EDFC04F110000499FFF7D4FD2046FFF7A9
:10397000B3FB00F091FA00289ED13E60BFF34F8F59
:10398000BFF36F8F98E7FFF7D9FC2046FFF7A4FB42
:1039900000F082FA90E7000004ED00E02DE9F04726
:1039A0001F4690468946040003D0B9F1000F08D0A5
:1039B00011E0502080F31188BFF34F8FBFF36F8F5A
:1039C000FEE7206C38B1502080F31188BFF34F8F91
:1039D000BFF36F8FFEE7022F0AD1E06B012807D0FB
:1039E000502080F31188BFF34F8FBFF36F8FFEE736
:1039F000FFF7FCFC5020EFF3118680F31188BFF332
:103A00004F8FBFF36F8FA06BE16B884206D3022FFD
:103A100004D0002086F31188BDE8F08794F9455062
:103A2000A06B3A4649462046FFF797F8681C04D039
:103A30006D1C84F845500120ECE7606A0028FAD03C
:103A400004F1240000F0F0F90028F4D0B8F1000FE0
:103A5000F1D00121C8F80010EDE700002DE9F7478B
:103A6000002683B08A46040003D0BAF1000F08D0C4
:103A700011E0502080F31188BFF34F8FBFF36F8F99
:103A8000FEE7206C38B1502080F31188BFF34F8FD0
:103A9000BFF36F8FFEE700F00FF9DFF8F4804FF00F
:103AA00000094FF0805748B9059838B1502080F38D
:103AB0001188BFF34F8FBFF36F8FFEE7FFF71EFC38
:103AC000A56BC5B151462046FFF734F86D1EA563BE
:103AD000206950B104F1100000F0A6F928B1C8F82F
:103AE0000070BFF34F8FBFF36F8FFFF727FC0120EC
:103AF00006B0BDE8F087059808B11EB106E0FFF7F3
:103B00001DFC27E06846FFF7F7FC0126FFF716FCCF
:103B1000FFF778FDFFF7F2FB94F94400401C01D158
:103B200084F8449094F94500401C01D184F84590F4
:103B3000FFF704FC05A9684600F02CF80028204691
:103B40000AD0FFF7C9FA00F0A7F92046FFF758F9A5
:103B50000028B3D00020CBE7FFF752F990B104F171
:103B600024000599FFF7D6FC2046FFF7B5FA00F0D0
:103B700093F90028A2D1C8F80070BFF34F8FBFF3AC
:103B80006F8F9BE72046FFF7A7FA00F085F995E7CE
:103B900004ED00E02DE9F0410C46050011D0C4B160
:103BA000FFF7ACFB174BDA686E682068911B471C67
:103BB00017D02F681B6A9F4219D0964217D801244C
:103BC00010E0502080F31188BFF34F8FBFF36F8F49
:103BD000FEE7502080F31188BFF34F8FBFF36F8F44
:103BE000FEE70024FFF7AAFB2046BDE8F0818842EB
:103BF00005D9401A20602846FFF77EFCF1E7002037
:103C00002060DCE7200000202DE9FF5F8346DDE92E
:103C10000E87994616468A469000FFF793FA0500EC
:103C20001CD05C20FFF78EFA040014D0002025631E
:103C300084F85900CDE90240CDE900874B46324671
:103C400051465846FFF742F82046FEF7DFFE0120B6
:103C500004B0BDE8F09F2846FFF784FB4FF0FF302B
:103C6000F6E7F0B585B0DDE90B640A9DA6B1DCB1DD
:103C70005C2700972663022684F85960002604AF6B
:103C8000CDE90246CDE90057FFF720F82046FEF7C0
:103C9000BDFE049805B0F0BD502080F31188BFF33D
:103CA0004F8FBFF36F8FFEE7502080F31188BFF373
:103CB0004F8FBFF36F8FFEE70548416919B1006B65
:103CC00018B10020704701207047022070470000A3
:103CD000200000200148C06870470000200000203C
:103CE0002DE9F0412E4C0027206B28B1A069401C23
:103CF000A0613846BDE8F081E668761CE66013D125
:103D0000606B006838B1502080F31188BFF34F8F8B
:103D1000BFF36F8FFEE7606BA16B6163A063206AE6
:103D2000401C2062FFF758F9A06ADFF878808642CD
:103D300009D3606B0068A0B1606BC068C568686833
:103D4000864211D2A0622068C06A00EB800158F858
:103D50002100012800D90127E0690028C9D00127E6
:103D6000C7E74FF0FF30EDE7281DFFF76BFAA86AB1
:103D700018B105F11800FFF765FAE86A2169884271
:103D800000D9206100EB800108EB8100291DFFF7BD
:103D9000A9FAE86A2168C96A8842CAD30127C8E734
:103DA000200000201C02002070B504004FF000012C
:103DB00033D01B4D2868844207D0502080F31188EF
:103DC000BFF34F8FBFF36F8FFEE7206D38B1401EFA
:103DD0002065E36CE26A9A421FD040B11DE050209A
:103DE00080F31188BFF34F8FBFF36F8FFEE7201D65
:103DF000FFF728FAE06CE062C0F13800A061E06AE9
:103E00002969884200D92861064900EB800001EB4E
:103E10008000211DFFF766FA0121084670BD0000F1
:103E2000200000201C02002070B5C068C46854B196
:103E300004F118000646FFF705FA144D286B50B13F
:103E40003146134815E0502080F31188BFF34F8F9F
:103E5000BFF36F8FFEE7201DFFF7F4F9E06A2969D1
:103E6000884200D928610B4900EB800001EB8000FB
:103E7000211DFFF737FAE06A2968C96A884202D92A
:103E80000120E86170BD002070BD0000200000200E
:103E9000A40600201C0200202DE9F0472C4D002430
:103EA0002746286B38B1FFF729FA286B401E286394
:103EB000286B40B146E0502080F31188BFF34F8F4C
:103EC000BFF36F8FFEE7A968224E0120D1B3A6F59C
:103ED000916980463068E0B1F068C46804F1180068
:103EE000FFF7B0F9201DFFF7ADF9E06A29698842B4
:103EF00000D9286100EB800109EB8100211DFFF74B
:103F0000F1F9E06A2968C96A8842E3D3C5F81C80E0
:103F1000E0E70CB1FFF760F8AC694CB14FEA080676
:103F2000FFF7DEFE00B1EE61641EF9D10020A8614A
:103F3000E86938B10849012738070860BFF34F8F97
:103F4000BFF36F8FFFF7FAF93846BDE8F08700003E
:103F500020000020A406002004ED00E010B586B08B
:103F6000FEF7BCFD114C2068B8B10020039004900E
:103F700005AA04A903A8FFF783F9DDE903210220BC
:103F80008DE8070000230AA10B48059AFFF769FE98
:103F9000606010B106B0012010BD502080F3118880
:103FA000BFF34F8FBFF36F8FFEE700005C00002070
:103FB000546D722053766300B53000082DE9FF413F
:103FC0001E46134602000A9D4FF0000016D0144C06
:103FD0002768002F0FD0CDE900130292062917DAC7
:103FE000FFF76AFE02284FF000030FD00022694657
:103FF0002068FFF723FC04B0BDE8F081502080F377
:104000001188BFF34F8FBFF36F8FFEE72A46EEE7AD
:104010000023324669463846FFF7C0FCEBE7000054
:104020005C000020C84600080000000000000000FE
:104030000000000000000000000200001800000066
:104040000000000000000000C04600080000000062
:10405000000000000000000000000000000400005C
:104060001800000000000000000000000102020330
:104070000405060708090A0B0C0D0E0F10100000AE
:104080000000000000000102030406070809000008
:104090000000010203040000000000000000000016
:1040A000000000000000000000F800000000000018
:1040B00000333000000000100C06100C0600000059
:1040C00000000000000040C07840C0784000043F7D
:1040D00004043F040400007088FC0830000000184D
:1040E00020FF211E0000F008F000E0180000002171
:1040F0001C031E211E0000F00888700000001E2115
:1041000023241927211010160E00000000000000C3
:10411000000000000000000000E0180402000000A1
:1041200000071820400000020418E00000000040D2
:10413000201807000000404080F08040400002024C
:10414000010F01020200000000F000000000010168
:10415000011F01010100000000000000000080B00C
:1041600070000000000000000000000000000001DE
:104170000101010101010000000000000000003009
:1041800030000000000000000000806018040060A3
:1041900018060100000000E010080810E000000F01
:1041A000102020100F00001010F800000000002068
:1041B000203F2020000000700808088870000030B0
:1041C0002824222130000030088888483000001858
:1041D000202020110E000000C02010F80000000771
:1041E0000424243F240000F80888880808000019E7
:1041F000212020110E0000E0108888180000000F18
:10420000112020110E0000380808C83808000000EE
:10421000003F000000000070880808887000001C43
:10422000222121221C0000E010080810E0000000FC
:10423000312222110F00000000C0C0000000000069
:10424000003030000000000000800000000000008E
:104250008060000000000000804020100800000185
:104260000204081020004040404040404000040448
:104270000404040404000008102040800000002012
:10428000100804020100007048080808F00000004F
:10429000003036010000C030C828E810E0000718E0
:1042A000272423140B000000C038E0000000203C4D
:1042B00023020227382008F8888888700000203FF1
:1042C000202020110E00C030080808083800071808
:1042D00020202010080008F808080810E000203FFF
:1042E000202020100F0008F88888E8081000203FE0
:1042F00020202320180008F88888E8081000203FB4
:10430000200003000000C03008080838000007182B
:104310002020221E020008F808000008F808203FAC
:10432000210101213F20000808F8080800000020B2
:10433000203F2020000000000808F8080800C08086
:1043400080807F00000008F888C028180800203FFF
:1043500020012638200008F8080000000000203F57
:1043600020202020300008F8F800F8F80800203F4E
:10437000003F003F200008F830C00008F808203F48
:10438000200007183F00E01008080810E0000F1098
:10439000202020100F0008F808080808F000203F2F
:1043A000210101010000E01008080810E0000F18CA
:1043B000242438504F0008F8888888887000203FEF
:1043C0002000030C302000708808080838000038EE
:1043D000202121221C00180808F8080818000000F5
:1043E000203F2000000008F808000008F808001F1F
:1043F000202020201F000878880000C8380800000E
:1044000007380E010000F80800F80008F800033C27
:104410000700073C030008186880806818082030EF
:104420002C03032C30200838C800C83808000000CE
:10443000203F2000000010080808C8380800203875
:10444000262120201800000000FE020202000000C9
:10445000007F40404000000C30C000000000000021
:1044600000010638C00000020202FE000000004009
:1044700040407F000000000004020202040000002F
:10448000000000000000000000000000000080802C
:104490008080808080800002020400000000000014
:1044A00000000000000000008080808000000019F3
:1044B000242222223F2008F8008080000000003FD4
:1044C000112020110E000000008080800000000EEE
:1044D000112020201100000000808088F800000ECC
:1044E000112020103F200000808080800000001FED
:1044F000222222221300008080F088888818002061
:10450000203F202000000000808080808000006B21
:1045100094949493600008F8008080800000203F0D
:10452000210000203F20008098980000000000201B
:10453000203F20200000000000809898000000C06C
:104540008080807F000008F8000080808000203F8D
:1045500024022D302000000808F800000000002090
:10456000203F202000008080808080808000203FCD
:1045700020003F20003F8080008080800000203F9E
:10458000210000203F200000808080800000001F6C
:10459000202020201F00808000808000000080FFFD
:1045A000A12020110E000000008080808000000EFD
:1045B000112020A0FF80808080008080800020204B
:1045C0003F212000010000008080808080000033B7
:1045D000242424241900008080E080800000000052
:1045E000001F202000008080000000808000001F4D
:1045F000202020103F2080808000008080800001EB
:104600000E300806010080800080008080800F301E
:104610000C030C300F0000808000808080000020A0
:10462000312E0E31200080808000008080808081CB
:104630008E7018060100008080808080800000213C
:10464000302C2221300000000000807C020200009B
:104650000000003F404000000000FF00000000009C
:104660000000FF0000000002027C8000000000400B
:10467000403F0000000000060101020204040000A7
:10468000000000000000303132333435363738391D
:10469000414243444546403058003031323334358E
:1046A00036373839616263646566403078000400EB
:1046B00000080000000000000002000100001000DF
:1046C0004F4C45440000000064656661756C74548D
:1046D00061736B00F446000800000020B000000089
:1046E00028010008A4470008B00000206020000056
:1046F000440100080100000000000000000000006C
:104700000000000001000000100000000000000098
:1047100000127A000000000000000000000000000D
:104720000000000000000000000000000000000089
:104730000000000000000000000000000000000079
:104740000000000000000000000000000000000069
:104750000000000000000000000000000000000059
:104760000000000000000000000000000000000049
:104770000000000000000000000000000000000039
:10478000000000000000000000000000AAAAAAAA81
:104790000000000000000000000000000000000019
:0447A0000000000015
:04000005080000ED02
:00000001FF
